{
	"compilerInput": "{\"language\":\"Solidity\",\"sources\":{\"contracts/Criptomoedaterrareal.sol\":{\"content\":\"// SPDX-License-Identifier: MIT\\npragma solidity ^0.8.0;\\n\\ncontract TerraReal {\\n    // Public variables of the token\\n    string public name = \\\"Terra Real\\\";\\n    string public symbol = \\\"TR\\\";\\n    uint8 public decimals = 0;\\n    uint256 public totalSupply;\\n\\n    // Constants\\n    uint256 public constant squareMetersPerToken = 1; // Each token represents 1 square meter of land\\n    uint256 public constant hectares = 2500; // 2,500 hectares\\n    uint256 public constant initialSupply = squareMetersPerToken * hectares * 10000; // Converting hectares to square meters\\n\\n    // Owner of the contract\\n    address public owner;\\n    \\n    // Mapping to hold balances\\n    mapping(address => uint256) public balanceOf;\\n    // Mapping to hold allowances\\n    mapping(address => mapping(address => uint256)) public allowance;\\n\\n    // Events\\n    event Transfer(address indexed from, address indexed to, uint256 value);\\n    event Approval(address indexed owner, address indexed spender, uint256 value);\\n    event OwnershipTransferred(address indexed previousOwner, address indexed newOwner);\\n\\n    // Constructor\\n    constructor() {\\n        totalSupply = initialSupply;\\n        balanceOf[msg.sender] = initialSupply;\\n        owner = msg.sender;\\n        emit Transfer(address(0), msg.sender, initialSupply);\\n    }\\n\\n    // Modifier to check if the caller is the owner\\n    modifier onlyOwner() {\\n        require(msg.sender == owner, \\\"Only owner can perform this action\\\");\\n        _;\\n    }\\n\\n    // Transfer function\\n    function transfer(address _to, uint256 _value) public returns (bool success) {\\n        require(_to != address(0), \\\"Invalid address\\\");\\n        require(balanceOf[msg.sender] >= _value, \\\"Insufficient balance\\\");\\n        \\n        balanceOf[msg.sender] -= _value;\\n        balanceOf[_to] += _value;\\n        \\n        emit Transfer(msg.sender, _to, _value);\\n        return true;\\n    }\\n\\n    // Approve function\\n    function approve(address _spender, uint256 _value) public returns (bool success) {\\n        allowance[msg.sender][_spender] = _value;\\n        emit Approval(msg.sender, _spender, _value);\\n        return true;\\n    }\\n\\n    // Transfer from function\\n    function transferFrom(address _from, address _to, uint256 _value) public returns (bool success) {\\n        require(_from != address(0) && _to != address(0), \\\"Invalid address\\\");\\n        require(balanceOf[_from] >= _value, \\\"Insufficient balance\\\");\\n        require(allowance[_from][msg.sender] >= _value, \\\"Allowance exceeded\\\");\\n\\n        balanceOf[_from] -= _value;\\n        balanceOf[_to] += _value;\\n        allowance[_from][msg.sender] -= _value;\\n\\n        emit Transfer(_from, _to, _value);\\n        return true;\\n    }\\n\\n    // Mint function\\n    function mint(uint256 _amount) public onlyOwner {\\n        totalSupply += _amount;\\n        balanceOf[owner] += _amount;\\n        emit Transfer(address(0), owner, _amount);\\n    }\\n\\n    // Function to transfer ownership to a new address\\n    function transferOwnership(address newOwner) public onlyOwner {\\n        require(newOwner != address(0), \\\"New owner is the zero address\\\");\\n        emit OwnershipTransferred(owner, newOwner);\\n        owner = newOwner;\\n    }\\n}\"}},\"settings\":{\"optimizer\":{\"enabled\":false,\"runs\":200},\"outputSelection\":{\"*\":{\"\":[\"ast\"],\"*\":[\"abi\",\"metadata\",\"devdoc\",\"userdoc\",\"storageLayout\",\"evm.legacyAssembly\",\"evm.bytecode\",\"evm.deployedBytecode\",\"evm.methodIdentifiers\",\"evm.gasEstimates\",\"evm.assembly\"]}},\"remappings\":[]}}",
	"name": "TerraReal",
	"bytecode": {
		"linkReferences": {},
		"object": "60806040526040518060400160405280600a81526020017f5465727261205265616c000000000000000000000000000000000000000000008152505f90816100479190610431565b506040518060400160405280600281526020017f54520000000000000000000000000000000000000000000000000000000000008152506001908161008c9190610431565b505f60025f6101000a81548160ff021916908360ff1602179055503480156100b2575f80fd5b506127106109c460016100c5919061052d565b6100cf919061052d565b6003819055506127106109c460016100e7919061052d565b6100f1919061052d565b60055f3373ffffffffffffffffffffffffffffffffffffffff1673ffffffffffffffffffffffffffffffffffffffff1681526020019081526020015f20819055503360045f6101000a81548173ffffffffffffffffffffffffffffffffffffffff021916908373ffffffffffffffffffffffffffffffffffffffff1602179055503373ffffffffffffffffffffffffffffffffffffffff165f73ffffffffffffffffffffffffffffffffffffffff167fddf252ad1be2c89b69c2b068fc378daa952ba7f163c4a11628f55a4df523b3ef6127106109c460016101d3919061052d565b6101dd919061052d565b6040516101ea919061057d565b60405180910390a3610596565b5f81519050919050565b7f4e487b71000000000000000000000000000000000000000000000000000000005f52604160045260245ffd5b7f4e487b71000000000000000000000000000000000000000000000000000000005f52602260045260245ffd5b5f600282049050600182168061027257607f821691505b6020821081036102855761028461022e565b5b50919050565b5f819050815f5260205f209050919050565b5f6020601f8301049050919050565b5f82821b905092915050565b5f600883026102e77fffffffffffffffffffffffffffffffffffffffffffffffffffffffffffffffff826102ac565b6102f186836102ac565b95508019841693508086168417925050509392505050565b5f819050919050565b5f819050919050565b5f61033561033061032b84610309565b610312565b610309565b9050919050565b5f819050919050565b61034e8361031b565b61036261035a8261033c565b8484546102b8565b825550505050565b5f90565b61037661036a565b610381818484610345565b505050565b5b818110156103a4576103995f8261036e565b600181019050610387565b5050565b601f8211156103e9576103ba8161028b565b6103c38461029d565b810160208510156103d2578190505b6103e66103de8561029d565b830182610386565b50505b505050565b5f82821c905092915050565b5f6104095f19846008026103ee565b1980831691505092915050565b5f61042183836103fa565b9150826002028217905092915050565b61043a826101f7565b67ffffffffffffffff81111561045357610452610201565b5b61045d825461025b565b6104688282856103a8565b5f60209050601f831160018114610499575f8415610487578287015190505b6104918582610416565b8655506104f8565b601f1984166104a78661028b565b5f5b828110156104ce578489015182556001820191506020850194506020810190506104a9565b868310156104eb57848901516104e7601f8916826103fa565b8355505b6001600288020188555050505b505050505050565b7f4e487b71000000000000000000000000000000000000000000000000000000005f52601160045260245ffd5b5f61053782610309565b915061054283610309565b925082820261055081610309565b9150828204841483151761056757610566610500565b5b5092915050565b61057781610309565b82525050565b5f6020820190506105905f83018461056e565b92915050565b611528806105a35f395ff3fe608060405234801561000f575f80fd5b50600436106100f3575f3560e01c80638da5cb5b11610095578063dd62ed3e11610064578063dd62ed3e14610287578063ee2bdd48146102b7578063f2fde38b146102d5578063f3e00728146102f1576100f3565b80638da5cb5b146101ff57806395d89b411461021d578063a0712d681461023b578063a9059cbb14610257576100f3565b806323b872dd116100d157806323b872dd14610163578063313ce56714610193578063378dc3dc146101b157806370a08231146101cf576100f3565b806306fdde03146100f7578063095ea7b31461011557806318160ddd14610145575b5f80fd5b6100ff61030f565b60405161010c9190610f09565b60405180910390f35b61012f600480360381019061012a9190610fba565b61039a565b60405161013c9190611012565b60405180910390f35b61014d610487565b60405161015a919061103a565b60405180910390f35b61017d60048036038101906101789190611053565b61048d565b60405161018a9190611012565b60405180910390f35b61019b610814565b6040516101a891906110be565b60405180910390f35b6101b9610826565b6040516101c6919061103a565b60405180910390f35b6101e960048036038101906101e491906110d7565b610845565b6040516101f6919061103a565b60405180910390f35b61020761085a565b6040516102149190611111565b60405180910390f35b61022561087f565b6040516102329190610f09565b60405180910390f35b6102556004803603810190610250919061112a565b61090b565b005b610271600480360381019061026c9190610fba565b610aaf565b60405161027e9190611012565b60405180910390f35b6102a1600480360381019061029c9190611155565b610cb3565b6040516102ae919061103a565b60405180910390f35b6102bf610cd3565b6040516102cc919061103a565b60405180910390f35b6102ef60048036038101906102ea91906110d7565b610cd9565b005b6102f9610e94565b604051610306919061103a565b60405180910390f35b5f805461031b906111c0565b80601f0160208091040260200160405190810160405280929190818152602001828054610347906111c0565b80156103925780601f1061036957610100808354040283529160200191610392565b820191905f5260205f20905b81548152906001019060200180831161037557829003601f168201915b505050505081565b5f8160065f3373ffffffffffffffffffffffffffffffffffffffff1673ffffffffffffffffffffffffffffffffffffffff1681526020019081526020015f205f8573ffffffffffffffffffffffffffffffffffffffff1673ffffffffffffffffffffffffffffffffffffffff1681526020019081526020015f20819055508273ffffffffffffffffffffffffffffffffffffffff163373ffffffffffffffffffffffffffffffffffffffff167f8c5be1e5ebec7d5bd14f71427d1e84f3dd0314c0f7b2291e5b200ac8c7c3b92584604051610475919061103a565b60405180910390a36001905092915050565b60035481565b5f8073ffffffffffffffffffffffffffffffffffffffff168473ffffffffffffffffffffffffffffffffffffffff16141580156104f657505f73ffffffffffffffffffffffffffffffffffffffff168373ffffffffffffffffffffffffffffffffffffffff1614155b610535576040517f08c379a000000000000000000000000000000000000000000000000000000000815260040161052c9061123a565b60405180910390fd5b8160055f8673ffffffffffffffffffffffffffffffffffffffff1673ffffffffffffffffffffffffffffffffffffffff1681526020019081526020015f205410156105b5576040517f08c379a00000000000000000000000000000000000000000000000000000000081526004016105ac906112a2565b60405180910390fd5b8160065f8673ffffffffffffffffffffffffffffffffffffffff1673ffffffffffffffffffffffffffffffffffffffff1681526020019081526020015f205f3373ffffffffffffffffffffffffffffffffffffffff1673ffffffffffffffffffffffffffffffffffffffff1681526020019081526020015f20541015610670576040517f08c379a00000000000000000000000000000000000000000000000000000000081526004016106679061130a565b60405180910390fd5b8160055f8673ffffffffffffffffffffffffffffffffffffffff1673ffffffffffffffffffffffffffffffffffffffff1681526020019081526020015f205f8282546106bc9190611355565b925050819055508160055f8573ffffffffffffffffffffffffffffffffffffffff1673ffffffffffffffffffffffffffffffffffffffff1681526020019081526020015f205f82825461070f9190611388565b925050819055508160065f8673ffffffffffffffffffffffffffffffffffffffff1673ffffffffffffffffffffffffffffffffffffffff1681526020019081526020015f205f3373ffffffffffffffffffffffffffffffffffffffff1673ffffffffffffffffffffffffffffffffffffffff1681526020019081526020015f205f82825461079d9190611355565b925050819055508273ffffffffffffffffffffffffffffffffffffffff168473ffffffffffffffffffffffffffffffffffffffff167fddf252ad1be2c89b69c2b068fc378daa952ba7f163c4a11628f55a4df523b3ef84604051610801919061103a565b60405180910390a3600190509392505050565b60025f9054906101000a900460ff1681565b6127106109c4600161083891906113bb565b61084291906113bb565b81565b6005602052805f5260405f205f915090505481565b60045f9054906101000a900473ffffffffffffffffffffffffffffffffffffffff1681565b6001805461088c906111c0565b80601f01602080910402602001604051908101604052809291908181526020018280546108b8906111c0565b80156109035780601f106108da57610100808354040283529160200191610903565b820191905f5260205f20905b8154815290600101906020018083116108e657829003601f168201915b505050505081565b60045f9054906101000a900473ffffffffffffffffffffffffffffffffffffffff1673ffffffffffffffffffffffffffffffffffffffff163373ffffffffffffffffffffffffffffffffffffffff161461099a576040517f08c379a00000000000000000000000000000000000000000000000000000000081526004016109919061146c565b60405180910390fd5b8060035f8282546109ab9190611388565b925050819055508060055f60045f9054906101000a900473ffffffffffffffffffffffffffffffffffffffff1673ffffffffffffffffffffffffffffffffffffffff1673ffffffffffffffffffffffffffffffffffffffff1681526020019081526020015f205f828254610a1f9190611388565b9250508190555060045f9054906101000a900473ffffffffffffffffffffffffffffffffffffffff1673ffffffffffffffffffffffffffffffffffffffff165f73ffffffffffffffffffffffffffffffffffffffff167fddf252ad1be2c89b69c2b068fc378daa952ba7f163c4a11628f55a4df523b3ef83604051610aa4919061103a565b60405180910390a350565b5f8073ffffffffffffffffffffffffffffffffffffffff168373ffffffffffffffffffffffffffffffffffffffff1603610b1e576040517f08c379a0000000000000000000000000000000000000000000000000000000008152600401610b159061123a565b60405180910390fd5b8160055f3373ffffffffffffffffffffffffffffffffffffffff1673ffffffffffffffffffffffffffffffffffffffff1681526020019081526020015f20541015610b9e576040517f08c379a0000000000000000000000000000000000000000000000000000000008152600401610b95906112a2565b60405180910390fd5b8160055f3373ffffffffffffffffffffffffffffffffffffffff1673ffffffffffffffffffffffffffffffffffffffff1681526020019081526020015f205f828254610bea9190611355565b925050819055508160055f8573ffffffffffffffffffffffffffffffffffffffff1673ffffffffffffffffffffffffffffffffffffffff1681526020019081526020015f205f828254610c3d9190611388565b925050819055508273ffffffffffffffffffffffffffffffffffffffff163373ffffffffffffffffffffffffffffffffffffffff167fddf252ad1be2c89b69c2b068fc378daa952ba7f163c4a11628f55a4df523b3ef84604051610ca1919061103a565b60405180910390a36001905092915050565b6006602052815f5260405f20602052805f5260405f205f91509150505481565b6109c481565b60045f9054906101000a900473ffffffffffffffffffffffffffffffffffffffff1673ffffffffffffffffffffffffffffffffffffffff163373ffffffffffffffffffffffffffffffffffffffff1614610d68576040517f08c379a0000000000000000000000000000000000000000000000000000000008152600401610d5f9061146c565b60405180910390fd5b5f73ffffffffffffffffffffffffffffffffffffffff168173ffffffffffffffffffffffffffffffffffffffff1603610dd6576040517f08c379a0000000000000000000000000000000000000000000000000000000008152600401610dcd906114d4565b60405180910390fd5b8073ffffffffffffffffffffffffffffffffffffffff1660045f9054906101000a900473ffffffffffffffffffffffffffffffffffffffff1673ffffffffffffffffffffffffffffffffffffffff167f8be0079c531659141344cd1fd0a4f28419497f9722a3daafe3b4186f6b6457e060405160405180910390a38060045f6101000a81548173ffffffffffffffffffffffffffffffffffffffff021916908373ffffffffffffffffffffffffffffffffffffffff16021790555050565b600181565b5f81519050919050565b5f82825260208201905092915050565b8281835e5f83830152505050565b5f601f19601f8301169050919050565b5f610edb82610e99565b610ee58185610ea3565b9350610ef5818560208601610eb3565b610efe81610ec1565b840191505092915050565b5f6020820190508181035f830152610f218184610ed1565b905092915050565b5f80fd5b5f73ffffffffffffffffffffffffffffffffffffffff82169050919050565b5f610f5682610f2d565b9050919050565b610f6681610f4c565b8114610f70575f80fd5b50565b5f81359050610f8181610f5d565b92915050565b5f819050919050565b610f9981610f87565b8114610fa3575f80fd5b50565b5f81359050610fb481610f90565b92915050565b5f8060408385031215610fd057610fcf610f29565b5b5f610fdd85828601610f73565b9250506020610fee85828601610fa6565b9150509250929050565b5f8115159050919050565b61100c81610ff8565b82525050565b5f6020820190506110255f830184611003565b92915050565b61103481610f87565b82525050565b5f60208201905061104d5f83018461102b565b92915050565b5f805f6060848603121561106a57611069610f29565b5b5f61107786828701610f73565b935050602061108886828701610f73565b925050604061109986828701610fa6565b9150509250925092565b5f60ff82169050919050565b6110b8816110a3565b82525050565b5f6020820190506110d15f8301846110af565b92915050565b5f602082840312156110ec576110eb610f29565b5b5f6110f984828501610f73565b91505092915050565b61110b81610f4c565b82525050565b5f6020820190506111245f830184611102565b92915050565b5f6020828403121561113f5761113e610f29565b5b5f61114c84828501610fa6565b91505092915050565b5f806040838503121561116b5761116a610f29565b5b5f61117885828601610f73565b925050602061118985828601610f73565b9150509250929050565b7f4e487b71000000000000000000000000000000000000000000000000000000005f52602260045260245ffd5b5f60028204905060018216806111d757607f821691505b6020821081036111ea576111e9611193565b5b50919050565b7f496e76616c6964206164647265737300000000000000000000000000000000005f82015250565b5f611224600f83610ea3565b915061122f826111f0565b602082019050919050565b5f6020820190508181035f83015261125181611218565b9050919050565b7f496e73756666696369656e742062616c616e63650000000000000000000000005f82015250565b5f61128c601483610ea3565b915061129782611258565b602082019050919050565b5f6020820190508181035f8301526112b981611280565b9050919050565b7f416c6c6f77616e636520657863656564656400000000000000000000000000005f82015250565b5f6112f4601283610ea3565b91506112ff826112c0565b602082019050919050565b5f6020820190508181035f830152611321816112e8565b9050919050565b7f4e487b71000000000000000000000000000000000000000000000000000000005f52601160045260245ffd5b5f61135f82610f87565b915061136a83610f87565b925082820390508181111561138257611381611328565b5b92915050565b5f61139282610f87565b915061139d83610f87565b92508282019050808211156113b5576113b4611328565b5b92915050565b5f6113c582610f87565b91506113d083610f87565b92508282026113de81610f87565b915082820484148315176113f5576113f4611328565b5b5092915050565b7f4f6e6c79206f776e65722063616e20706572666f726d207468697320616374695f8201527f6f6e000000000000000000000000000000000000000000000000000000000000602082015250565b5f611456602283610ea3565b9150611461826113fc565b604082019050919050565b5f6020820190508181035f8301526114838161144a565b9050919050565b7f4e6577206f776e657220697320746865207a65726f20616464726573730000005f82015250565b5f6114be601d83610ea3565b91506114c98261148a565b602082019050919050565b5f6020820190508181035f8301526114eb816114b2565b905091905056fea26469706673582212201b16fae3c543f988f91a2e619b16024fa4bc412b56d011ece019961dedb1b02c64736f6c634300081a0033",
		"opcodes": "PUSH1 0x80 PUSH1 0x40 MSTORE PUSH1 0x40 MLOAD DUP1 PUSH1 0x40 ADD PUSH1 0x40 MSTORE DUP1 PUSH1 0xA DUP2 MSTORE PUSH1 0x20 ADD PUSH32 0x5465727261205265616C00000000000000000000000000000000000000000000 DUP2 MSTORE POP PUSH0 SWAP1 DUP2 PUSH2 0x47 SWAP2 SWAP1 PUSH2 0x431 JUMP JUMPDEST POP PUSH1 0x40 MLOAD DUP1 PUSH1 0x40 ADD PUSH1 0x40 MSTORE DUP1 PUSH1 0x2 DUP2 MSTORE PUSH1 0x20 ADD PUSH32 0x5452000000000000000000000000000000000000000000000000000000000000 DUP2 MSTORE POP PUSH1 0x1 SWAP1 DUP2 PUSH2 0x8C SWAP2 SWAP1 PUSH2 0x431 JUMP JUMPDEST POP PUSH0 PUSH1 0x2 PUSH0 PUSH2 0x100 EXP DUP2 SLOAD DUP2 PUSH1 0xFF MUL NOT AND SWAP1 DUP4 PUSH1 0xFF AND MUL OR SWAP1 SSTORE POP CALLVALUE DUP1 ISZERO PUSH2 0xB2 JUMPI PUSH0 DUP1 REVERT JUMPDEST POP PUSH2 0x2710 PUSH2 0x9C4 PUSH1 0x1 PUSH2 0xC5 SWAP2 SWAP1 PUSH2 0x52D JUMP JUMPDEST PUSH2 0xCF SWAP2 SWAP1 PUSH2 0x52D JUMP JUMPDEST PUSH1 0x3 DUP2 SWAP1 SSTORE POP PUSH2 0x2710 PUSH2 0x9C4 PUSH1 0x1 PUSH2 0xE7 SWAP2 SWAP1 PUSH2 0x52D JUMP JUMPDEST PUSH2 0xF1 SWAP2 SWAP1 PUSH2 0x52D JUMP JUMPDEST PUSH1 0x5 PUSH0 CALLER PUSH20 0xFFFFFFFFFFFFFFFFFFFFFFFFFFFFFFFFFFFFFFFF AND PUSH20 0xFFFFFFFFFFFFFFFFFFFFFFFFFFFFFFFFFFFFFFFF AND DUP2 MSTORE PUSH1 0x20 ADD SWAP1 DUP2 MSTORE PUSH1 0x20 ADD PUSH0 KECCAK256 DUP2 SWAP1 SSTORE POP CALLER PUSH1 0x4 PUSH0 PUSH2 0x100 EXP DUP2 SLOAD DUP2 PUSH20 0xFFFFFFFFFFFFFFFFFFFFFFFFFFFFFFFFFFFFFFFF MUL NOT AND SWAP1 DUP4 PUSH20 0xFFFFFFFFFFFFFFFFFFFFFFFFFFFFFFFFFFFFFFFF AND MUL OR SWAP1 SSTORE POP CALLER PUSH20 0xFFFFFFFFFFFFFFFFFFFFFFFFFFFFFFFFFFFFFFFF AND PUSH0 PUSH20 0xFFFFFFFFFFFFFFFFFFFFFFFFFFFFFFFFFFFFFFFF AND PUSH32 0xDDF252AD1BE2C89B69C2B068FC378DAA952BA7F163C4A11628F55A4DF523B3EF PUSH2 0x2710 PUSH2 0x9C4 PUSH1 0x1 PUSH2 0x1D3 SWAP2 SWAP1 PUSH2 0x52D JUMP JUMPDEST PUSH2 0x1DD SWAP2 SWAP1 PUSH2 0x52D JUMP JUMPDEST PUSH1 0x40 MLOAD PUSH2 0x1EA SWAP2 SWAP1 PUSH2 0x57D JUMP JUMPDEST PUSH1 0x40 MLOAD DUP1 SWAP2 SUB SWAP1 LOG3 PUSH2 0x596 JUMP JUMPDEST PUSH0 DUP2 MLOAD SWAP1 POP SWAP2 SWAP1 POP JUMP JUMPDEST PUSH32 0x4E487B7100000000000000000000000000000000000000000000000000000000 PUSH0 MSTORE PUSH1 0x41 PUSH1 0x4 MSTORE PUSH1 0x24 PUSH0 REVERT JUMPDEST PUSH32 0x4E487B7100000000000000000000000000000000000000000000000000000000 PUSH0 MSTORE PUSH1 0x22 PUSH1 0x4 MSTORE PUSH1 0x24 PUSH0 REVERT JUMPDEST PUSH0 PUSH1 0x2 DUP3 DIV SWAP1 POP PUSH1 0x1 DUP3 AND DUP1 PUSH2 0x272 JUMPI PUSH1 0x7F DUP3 AND SWAP2 POP JUMPDEST PUSH1 0x20 DUP3 LT DUP2 SUB PUSH2 0x285 JUMPI PUSH2 0x284 PUSH2 0x22E JUMP JUMPDEST JUMPDEST POP SWAP2 SWAP1 POP JUMP JUMPDEST PUSH0 DUP2 SWAP1 POP DUP2 PUSH0 MSTORE PUSH1 0x20 PUSH0 KECCAK256 SWAP1 POP SWAP2 SWAP1 POP JUMP JUMPDEST PUSH0 PUSH1 0x20 PUSH1 0x1F DUP4 ADD DIV SWAP1 POP SWAP2 SWAP1 POP JUMP JUMPDEST PUSH0 DUP3 DUP3 SHL SWAP1 POP SWAP3 SWAP2 POP POP JUMP JUMPDEST PUSH0 PUSH1 0x8 DUP4 MUL PUSH2 0x2E7 PUSH32 0xFFFFFFFFFFFFFFFFFFFFFFFFFFFFFFFFFFFFFFFFFFFFFFFFFFFFFFFFFFFFFFFF DUP3 PUSH2 0x2AC JUMP JUMPDEST PUSH2 0x2F1 DUP7 DUP4 PUSH2 0x2AC JUMP JUMPDEST SWAP6 POP DUP1 NOT DUP5 AND SWAP4 POP DUP1 DUP7 AND DUP5 OR SWAP3 POP POP POP SWAP4 SWAP3 POP POP POP JUMP JUMPDEST PUSH0 DUP2 SWAP1 POP SWAP2 SWAP1 POP JUMP JUMPDEST PUSH0 DUP2 SWAP1 POP SWAP2 SWAP1 POP JUMP JUMPDEST PUSH0 PUSH2 0x335 PUSH2 0x330 PUSH2 0x32B DUP5 PUSH2 0x309 JUMP JUMPDEST PUSH2 0x312 JUMP JUMPDEST PUSH2 0x309 JUMP JUMPDEST SWAP1 POP SWAP2 SWAP1 POP JUMP JUMPDEST PUSH0 DUP2 SWAP1 POP SWAP2 SWAP1 POP JUMP JUMPDEST PUSH2 0x34E DUP4 PUSH2 0x31B JUMP JUMPDEST PUSH2 0x362 PUSH2 0x35A DUP3 PUSH2 0x33C JUMP JUMPDEST DUP5 DUP5 SLOAD PUSH2 0x2B8 JUMP JUMPDEST DUP3 SSTORE POP POP POP POP JUMP JUMPDEST PUSH0 SWAP1 JUMP JUMPDEST PUSH2 0x376 PUSH2 0x36A JUMP JUMPDEST PUSH2 0x381 DUP2 DUP5 DUP5 PUSH2 0x345 JUMP JUMPDEST POP POP POP JUMP JUMPDEST JUMPDEST DUP2 DUP2 LT ISZERO PUSH2 0x3A4 JUMPI PUSH2 0x399 PUSH0 DUP3 PUSH2 0x36E JUMP JUMPDEST PUSH1 0x1 DUP2 ADD SWAP1 POP PUSH2 0x387 JUMP JUMPDEST POP POP JUMP JUMPDEST PUSH1 0x1F DUP3 GT ISZERO PUSH2 0x3E9 JUMPI PUSH2 0x3BA DUP2 PUSH2 0x28B JUMP JUMPDEST PUSH2 0x3C3 DUP5 PUSH2 0x29D JUMP JUMPDEST DUP2 ADD PUSH1 0x20 DUP6 LT ISZERO PUSH2 0x3D2 JUMPI DUP2 SWAP1 POP JUMPDEST PUSH2 0x3E6 PUSH2 0x3DE DUP6 PUSH2 0x29D JUMP JUMPDEST DUP4 ADD DUP3 PUSH2 0x386 JUMP JUMPDEST POP POP JUMPDEST POP POP POP JUMP JUMPDEST PUSH0 DUP3 DUP3 SHR SWAP1 POP SWAP3 SWAP2 POP POP JUMP JUMPDEST PUSH0 PUSH2 0x409 PUSH0 NOT DUP5 PUSH1 0x8 MUL PUSH2 0x3EE JUMP JUMPDEST NOT DUP1 DUP4 AND SWAP2 POP POP SWAP3 SWAP2 POP POP JUMP JUMPDEST PUSH0 PUSH2 0x421 DUP4 DUP4 PUSH2 0x3FA JUMP JUMPDEST SWAP2 POP DUP3 PUSH1 0x2 MUL DUP3 OR SWAP1 POP SWAP3 SWAP2 POP POP JUMP JUMPDEST PUSH2 0x43A DUP3 PUSH2 0x1F7 JUMP JUMPDEST PUSH8 0xFFFFFFFFFFFFFFFF DUP2 GT ISZERO PUSH2 0x453 JUMPI PUSH2 0x452 PUSH2 0x201 JUMP JUMPDEST JUMPDEST PUSH2 0x45D DUP3 SLOAD PUSH2 0x25B JUMP JUMPDEST PUSH2 0x468 DUP3 DUP3 DUP6 PUSH2 0x3A8 JUMP JUMPDEST PUSH0 PUSH1 0x20 SWAP1 POP PUSH1 0x1F DUP4 GT PUSH1 0x1 DUP2 EQ PUSH2 0x499 JUMPI PUSH0 DUP5 ISZERO PUSH2 0x487 JUMPI DUP3 DUP8 ADD MLOAD SWAP1 POP JUMPDEST PUSH2 0x491 DUP6 DUP3 PUSH2 0x416 JUMP JUMPDEST DUP7 SSTORE POP PUSH2 0x4F8 JUMP JUMPDEST PUSH1 0x1F NOT DUP5 AND PUSH2 0x4A7 DUP7 PUSH2 0x28B JUMP JUMPDEST PUSH0 JUMPDEST DUP3 DUP2 LT ISZERO PUSH2 0x4CE JUMPI DUP5 DUP10 ADD MLOAD DUP3 SSTORE PUSH1 0x1 DUP3 ADD SWAP2 POP PUSH1 0x20 DUP6 ADD SWAP5 POP PUSH1 0x20 DUP2 ADD SWAP1 POP PUSH2 0x4A9 JUMP JUMPDEST DUP7 DUP4 LT ISZERO PUSH2 0x4EB JUMPI DUP5 DUP10 ADD MLOAD PUSH2 0x4E7 PUSH1 0x1F DUP10 AND DUP3 PUSH2 0x3FA JUMP JUMPDEST DUP4 SSTORE POP JUMPDEST PUSH1 0x1 PUSH1 0x2 DUP9 MUL ADD DUP9 SSTORE POP POP POP JUMPDEST POP POP POP POP POP POP JUMP JUMPDEST PUSH32 0x4E487B7100000000000000000000000000000000000000000000000000000000 PUSH0 MSTORE PUSH1 0x11 PUSH1 0x4 MSTORE PUSH1 0x24 PUSH0 REVERT JUMPDEST PUSH0 PUSH2 0x537 DUP3 PUSH2 0x309 JUMP JUMPDEST SWAP2 POP PUSH2 0x542 DUP4 PUSH2 0x309 JUMP JUMPDEST SWAP3 POP DUP3 DUP3 MUL PUSH2 0x550 DUP2 PUSH2 0x309 JUMP JUMPDEST SWAP2 POP DUP3 DUP3 DIV DUP5 EQ DUP4 ISZERO OR PUSH2 0x567 JUMPI PUSH2 0x566 PUSH2 0x500 JUMP JUMPDEST JUMPDEST POP SWAP3 SWAP2 POP POP JUMP JUMPDEST PUSH2 0x577 DUP2 PUSH2 0x309 JUMP JUMPDEST DUP3 MSTORE POP POP JUMP JUMPDEST PUSH0 PUSH1 0x20 DUP3 ADD SWAP1 POP PUSH2 0x590 PUSH0 DUP4 ADD DUP5 PUSH2 0x56E JUMP JUMPDEST SWAP3 SWAP2 POP POP JUMP JUMPDEST PUSH2 0x1528 DUP1 PUSH2 0x5A3 PUSH0 CODECOPY PUSH0 RETURN INVALID PUSH1 0x80 PUSH1 0x40 MSTORE CALLVALUE DUP1 ISZERO PUSH2 0xF JUMPI PUSH0 DUP1 REVERT JUMPDEST POP PUSH1 0x4 CALLDATASIZE LT PUSH2 0xF3 JUMPI PUSH0 CALLDATALOAD PUSH1 0xE0 SHR DUP1 PUSH4 0x8DA5CB5B GT PUSH2 0x95 JUMPI DUP1 PUSH4 0xDD62ED3E GT PUSH2 0x64 JUMPI DUP1 PUSH4 0xDD62ED3E EQ PUSH2 0x287 JUMPI DUP1 PUSH4 0xEE2BDD48 EQ PUSH2 0x2B7 JUMPI DUP1 PUSH4 0xF2FDE38B EQ PUSH2 0x2D5 JUMPI DUP1 PUSH4 0xF3E00728 EQ PUSH2 0x2F1 JUMPI PUSH2 0xF3 JUMP JUMPDEST DUP1 PUSH4 0x8DA5CB5B EQ PUSH2 0x1FF JUMPI DUP1 PUSH4 0x95D89B41 EQ PUSH2 0x21D JUMPI DUP1 PUSH4 0xA0712D68 EQ PUSH2 0x23B JUMPI DUP1 PUSH4 0xA9059CBB EQ PUSH2 0x257 JUMPI PUSH2 0xF3 JUMP JUMPDEST DUP1 PUSH4 0x23B872DD GT PUSH2 0xD1 JUMPI DUP1 PUSH4 0x23B872DD EQ PUSH2 0x163 JUMPI DUP1 PUSH4 0x313CE567 EQ PUSH2 0x193 JUMPI DUP1 PUSH4 0x378DC3DC EQ PUSH2 0x1B1 JUMPI DUP1 PUSH4 0x70A08231 EQ PUSH2 0x1CF JUMPI PUSH2 0xF3 JUMP JUMPDEST DUP1 PUSH4 0x6FDDE03 EQ PUSH2 0xF7 JUMPI DUP1 PUSH4 0x95EA7B3 EQ PUSH2 0x115 JUMPI DUP1 PUSH4 0x18160DDD EQ PUSH2 0x145 JUMPI JUMPDEST PUSH0 DUP1 REVERT JUMPDEST PUSH2 0xFF PUSH2 0x30F JUMP JUMPDEST PUSH1 0x40 MLOAD PUSH2 0x10C SWAP2 SWAP1 PUSH2 0xF09 JUMP JUMPDEST PUSH1 0x40 MLOAD DUP1 SWAP2 SUB SWAP1 RETURN JUMPDEST PUSH2 0x12F PUSH1 0x4 DUP1 CALLDATASIZE SUB DUP2 ADD SWAP1 PUSH2 0x12A SWAP2 SWAP1 PUSH2 0xFBA JUMP JUMPDEST PUSH2 0x39A JUMP JUMPDEST PUSH1 0x40 MLOAD PUSH2 0x13C SWAP2 SWAP1 PUSH2 0x1012 JUMP JUMPDEST PUSH1 0x40 MLOAD DUP1 SWAP2 SUB SWAP1 RETURN JUMPDEST PUSH2 0x14D PUSH2 0x487 JUMP JUMPDEST PUSH1 0x40 MLOAD PUSH2 0x15A SWAP2 SWAP1 PUSH2 0x103A JUMP JUMPDEST PUSH1 0x40 MLOAD DUP1 SWAP2 SUB SWAP1 RETURN JUMPDEST PUSH2 0x17D PUSH1 0x4 DUP1 CALLDATASIZE SUB DUP2 ADD SWAP1 PUSH2 0x178 SWAP2 SWAP1 PUSH2 0x1053 JUMP JUMPDEST PUSH2 0x48D JUMP JUMPDEST PUSH1 0x40 MLOAD PUSH2 0x18A SWAP2 SWAP1 PUSH2 0x1012 JUMP JUMPDEST PUSH1 0x40 MLOAD DUP1 SWAP2 SUB SWAP1 RETURN JUMPDEST PUSH2 0x19B PUSH2 0x814 JUMP JUMPDEST PUSH1 0x40 MLOAD PUSH2 0x1A8 SWAP2 SWAP1 PUSH2 0x10BE JUMP JUMPDEST PUSH1 0x40 MLOAD DUP1 SWAP2 SUB SWAP1 RETURN JUMPDEST PUSH2 0x1B9 PUSH2 0x826 JUMP JUMPDEST PUSH1 0x40 MLOAD PUSH2 0x1C6 SWAP2 SWAP1 PUSH2 0x103A JUMP JUMPDEST PUSH1 0x40 MLOAD DUP1 SWAP2 SUB SWAP1 RETURN JUMPDEST PUSH2 0x1E9 PUSH1 0x4 DUP1 CALLDATASIZE SUB DUP2 ADD SWAP1 PUSH2 0x1E4 SWAP2 SWAP1 PUSH2 0x10D7 JUMP JUMPDEST PUSH2 0x845 JUMP JUMPDEST PUSH1 0x40 MLOAD PUSH2 0x1F6 SWAP2 SWAP1 PUSH2 0x103A JUMP JUMPDEST PUSH1 0x40 MLOAD DUP1 SWAP2 SUB SWAP1 RETURN JUMPDEST PUSH2 0x207 PUSH2 0x85A JUMP JUMPDEST PUSH1 0x40 MLOAD PUSH2 0x214 SWAP2 SWAP1 PUSH2 0x1111 JUMP JUMPDEST PUSH1 0x40 MLOAD DUP1 SWAP2 SUB SWAP1 RETURN JUMPDEST PUSH2 0x225 PUSH2 0x87F JUMP JUMPDEST PUSH1 0x40 MLOAD PUSH2 0x232 SWAP2 SWAP1 PUSH2 0xF09 JUMP JUMPDEST PUSH1 0x40 MLOAD DUP1 SWAP2 SUB SWAP1 RETURN JUMPDEST PUSH2 0x255 PUSH1 0x4 DUP1 CALLDATASIZE SUB DUP2 ADD SWAP1 PUSH2 0x250 SWAP2 SWAP1 PUSH2 0x112A JUMP JUMPDEST PUSH2 0x90B JUMP JUMPDEST STOP JUMPDEST PUSH2 0x271 PUSH1 0x4 DUP1 CALLDATASIZE SUB DUP2 ADD SWAP1 PUSH2 0x26C SWAP2 SWAP1 PUSH2 0xFBA JUMP JUMPDEST PUSH2 0xAAF JUMP JUMPDEST PUSH1 0x40 MLOAD PUSH2 0x27E SWAP2 SWAP1 PUSH2 0x1012 JUMP JUMPDEST PUSH1 0x40 MLOAD DUP1 SWAP2 SUB SWAP1 RETURN JUMPDEST PUSH2 0x2A1 PUSH1 0x4 DUP1 CALLDATASIZE SUB DUP2 ADD SWAP1 PUSH2 0x29C SWAP2 SWAP1 PUSH2 0x1155 JUMP JUMPDEST PUSH2 0xCB3 JUMP JUMPDEST PUSH1 0x40 MLOAD PUSH2 0x2AE SWAP2 SWAP1 PUSH2 0x103A JUMP JUMPDEST PUSH1 0x40 MLOAD DUP1 SWAP2 SUB SWAP1 RETURN JUMPDEST PUSH2 0x2BF PUSH2 0xCD3 JUMP JUMPDEST PUSH1 0x40 MLOAD PUSH2 0x2CC SWAP2 SWAP1 PUSH2 0x103A JUMP JUMPDEST PUSH1 0x40 MLOAD DUP1 SWAP2 SUB SWAP1 RETURN JUMPDEST PUSH2 0x2EF PUSH1 0x4 DUP1 CALLDATASIZE SUB DUP2 ADD SWAP1 PUSH2 0x2EA SWAP2 SWAP1 PUSH2 0x10D7 JUMP JUMPDEST PUSH2 0xCD9 JUMP JUMPDEST STOP JUMPDEST PUSH2 0x2F9 PUSH2 0xE94 JUMP JUMPDEST PUSH1 0x40 MLOAD PUSH2 0x306 SWAP2 SWAP1 PUSH2 0x103A JUMP JUMPDEST PUSH1 0x40 MLOAD DUP1 SWAP2 SUB SWAP1 RETURN JUMPDEST PUSH0 DUP1 SLOAD PUSH2 0x31B SWAP1 PUSH2 0x11C0 JUMP JUMPDEST DUP1 PUSH1 0x1F ADD PUSH1 0x20 DUP1 SWAP2 DIV MUL PUSH1 0x20 ADD PUSH1 0x40 MLOAD SWAP1 DUP2 ADD PUSH1 0x40 MSTORE DUP1 SWAP3 SWAP2 SWAP1 DUP2 DUP2 MSTORE PUSH1 0x20 ADD DUP3 DUP1 SLOAD PUSH2 0x347 SWAP1 PUSH2 0x11C0 JUMP JUMPDEST DUP1 ISZERO PUSH2 0x392 JUMPI DUP1 PUSH1 0x1F LT PUSH2 0x369 JUMPI PUSH2 0x100 DUP1 DUP4 SLOAD DIV MUL DUP4 MSTORE SWAP2 PUSH1 0x20 ADD SWAP2 PUSH2 0x392 JUMP JUMPDEST DUP3 ADD SWAP2 SWAP1 PUSH0 MSTORE PUSH1 0x20 PUSH0 KECCAK256 SWAP1 JUMPDEST DUP2 SLOAD DUP2 MSTORE SWAP1 PUSH1 0x1 ADD SWAP1 PUSH1 0x20 ADD DUP1 DUP4 GT PUSH2 0x375 JUMPI DUP3 SWAP1 SUB PUSH1 0x1F AND DUP3 ADD SWAP2 JUMPDEST POP POP POP POP POP DUP2 JUMP JUMPDEST PUSH0 DUP2 PUSH1 0x6 PUSH0 CALLER PUSH20 0xFFFFFFFFFFFFFFFFFFFFFFFFFFFFFFFFFFFFFFFF AND PUSH20 0xFFFFFFFFFFFFFFFFFFFFFFFFFFFFFFFFFFFFFFFF AND DUP2 MSTORE PUSH1 0x20 ADD SWAP1 DUP2 MSTORE PUSH1 0x20 ADD PUSH0 KECCAK256 PUSH0 DUP6 PUSH20 0xFFFFFFFFFFFFFFFFFFFFFFFFFFFFFFFFFFFFFFFF AND PUSH20 0xFFFFFFFFFFFFFFFFFFFFFFFFFFFFFFFFFFFFFFFF AND DUP2 MSTORE PUSH1 0x20 ADD SWAP1 DUP2 MSTORE PUSH1 0x20 ADD PUSH0 KECCAK256 DUP2 SWAP1 SSTORE POP DUP3 PUSH20 0xFFFFFFFFFFFFFFFFFFFFFFFFFFFFFFFFFFFFFFFF AND CALLER PUSH20 0xFFFFFFFFFFFFFFFFFFFFFFFFFFFFFFFFFFFFFFFF AND PUSH32 0x8C5BE1E5EBEC7D5BD14F71427D1E84F3DD0314C0F7B2291E5B200AC8C7C3B925 DUP5 PUSH1 0x40 MLOAD PUSH2 0x475 SWAP2 SWAP1 PUSH2 0x103A JUMP JUMPDEST PUSH1 0x40 MLOAD DUP1 SWAP2 SUB SWAP1 LOG3 PUSH1 0x1 SWAP1 POP SWAP3 SWAP2 POP POP JUMP JUMPDEST PUSH1 0x3 SLOAD DUP2 JUMP JUMPDEST PUSH0 DUP1 PUSH20 0xFFFFFFFFFFFFFFFFFFFFFFFFFFFFFFFFFFFFFFFF AND DUP5 PUSH20 0xFFFFFFFFFFFFFFFFFFFFFFFFFFFFFFFFFFFFFFFF AND EQ ISZERO DUP1 ISZERO PUSH2 0x4F6 JUMPI POP PUSH0 PUSH20 0xFFFFFFFFFFFFFFFFFFFFFFFFFFFFFFFFFFFFFFFF AND DUP4 PUSH20 0xFFFFFFFFFFFFFFFFFFFFFFFFFFFFFFFFFFFFFFFF AND EQ ISZERO JUMPDEST PUSH2 0x535 JUMPI PUSH1 0x40 MLOAD PUSH32 0x8C379A000000000000000000000000000000000000000000000000000000000 DUP2 MSTORE PUSH1 0x4 ADD PUSH2 0x52C SWAP1 PUSH2 0x123A JUMP JUMPDEST PUSH1 0x40 MLOAD DUP1 SWAP2 SUB SWAP1 REVERT JUMPDEST DUP2 PUSH1 0x5 PUSH0 DUP7 PUSH20 0xFFFFFFFFFFFFFFFFFFFFFFFFFFFFFFFFFFFFFFFF AND PUSH20 0xFFFFFFFFFFFFFFFFFFFFFFFFFFFFFFFFFFFFFFFF AND DUP2 MSTORE PUSH1 0x20 ADD SWAP1 DUP2 MSTORE PUSH1 0x20 ADD PUSH0 KECCAK256 SLOAD LT ISZERO PUSH2 0x5B5 JUMPI PUSH1 0x40 MLOAD PUSH32 0x8C379A000000000000000000000000000000000000000000000000000000000 DUP2 MSTORE PUSH1 0x4 ADD PUSH2 0x5AC SWAP1 PUSH2 0x12A2 JUMP JUMPDEST PUSH1 0x40 MLOAD DUP1 SWAP2 SUB SWAP1 REVERT JUMPDEST DUP2 PUSH1 0x6 PUSH0 DUP7 PUSH20 0xFFFFFFFFFFFFFFFFFFFFFFFFFFFFFFFFFFFFFFFF AND PUSH20 0xFFFFFFFFFFFFFFFFFFFFFFFFFFFFFFFFFFFFFFFF AND DUP2 MSTORE PUSH1 0x20 ADD SWAP1 DUP2 MSTORE PUSH1 0x20 ADD PUSH0 KECCAK256 PUSH0 CALLER PUSH20 0xFFFFFFFFFFFFFFFFFFFFFFFFFFFFFFFFFFFFFFFF AND PUSH20 0xFFFFFFFFFFFFFFFFFFFFFFFFFFFFFFFFFFFFFFFF AND DUP2 MSTORE PUSH1 0x20 ADD SWAP1 DUP2 MSTORE PUSH1 0x20 ADD PUSH0 KECCAK256 SLOAD LT ISZERO PUSH2 0x670 JUMPI PUSH1 0x40 MLOAD PUSH32 0x8C379A000000000000000000000000000000000000000000000000000000000 DUP2 MSTORE PUSH1 0x4 ADD PUSH2 0x667 SWAP1 PUSH2 0x130A JUMP JUMPDEST PUSH1 0x40 MLOAD DUP1 SWAP2 SUB SWAP1 REVERT JUMPDEST DUP2 PUSH1 0x5 PUSH0 DUP7 PUSH20 0xFFFFFFFFFFFFFFFFFFFFFFFFFFFFFFFFFFFFFFFF AND PUSH20 0xFFFFFFFFFFFFFFFFFFFFFFFFFFFFFFFFFFFFFFFF AND DUP2 MSTORE PUSH1 0x20 ADD SWAP1 DUP2 MSTORE PUSH1 0x20 ADD PUSH0 KECCAK256 PUSH0 DUP3 DUP3 SLOAD PUSH2 0x6BC SWAP2 SWAP1 PUSH2 0x1355 JUMP JUMPDEST SWAP3 POP POP DUP2 SWAP1 SSTORE POP DUP2 PUSH1 0x5 PUSH0 DUP6 PUSH20 0xFFFFFFFFFFFFFFFFFFFFFFFFFFFFFFFFFFFFFFFF AND PUSH20 0xFFFFFFFFFFFFFFFFFFFFFFFFFFFFFFFFFFFFFFFF AND DUP2 MSTORE PUSH1 0x20 ADD SWAP1 DUP2 MSTORE PUSH1 0x20 ADD PUSH0 KECCAK256 PUSH0 DUP3 DUP3 SLOAD PUSH2 0x70F SWAP2 SWAP1 PUSH2 0x1388 JUMP JUMPDEST SWAP3 POP POP DUP2 SWAP1 SSTORE POP DUP2 PUSH1 0x6 PUSH0 DUP7 PUSH20 0xFFFFFFFFFFFFFFFFFFFFFFFFFFFFFFFFFFFFFFFF AND PUSH20 0xFFFFFFFFFFFFFFFFFFFFFFFFFFFFFFFFFFFFFFFF AND DUP2 MSTORE PUSH1 0x20 ADD SWAP1 DUP2 MSTORE PUSH1 0x20 ADD PUSH0 KECCAK256 PUSH0 CALLER PUSH20 0xFFFFFFFFFFFFFFFFFFFFFFFFFFFFFFFFFFFFFFFF AND PUSH20 0xFFFFFFFFFFFFFFFFFFFFFFFFFFFFFFFFFFFFFFFF AND DUP2 MSTORE PUSH1 0x20 ADD SWAP1 DUP2 MSTORE PUSH1 0x20 ADD PUSH0 KECCAK256 PUSH0 DUP3 DUP3 SLOAD PUSH2 0x79D SWAP2 SWAP1 PUSH2 0x1355 JUMP JUMPDEST SWAP3 POP POP DUP2 SWAP1 SSTORE POP DUP3 PUSH20 0xFFFFFFFFFFFFFFFFFFFFFFFFFFFFFFFFFFFFFFFF AND DUP5 PUSH20 0xFFFFFFFFFFFFFFFFFFFFFFFFFFFFFFFFFFFFFFFF AND PUSH32 0xDDF252AD1BE2C89B69C2B068FC378DAA952BA7F163C4A11628F55A4DF523B3EF DUP5 PUSH1 0x40 MLOAD PUSH2 0x801 SWAP2 SWAP1 PUSH2 0x103A JUMP JUMPDEST PUSH1 0x40 MLOAD DUP1 SWAP2 SUB SWAP1 LOG3 PUSH1 0x1 SWAP1 POP SWAP4 SWAP3 POP POP POP JUMP JUMPDEST PUSH1 0x2 PUSH0 SWAP1 SLOAD SWAP1 PUSH2 0x100 EXP SWAP1 DIV PUSH1 0xFF AND DUP2 JUMP JUMPDEST PUSH2 0x2710 PUSH2 0x9C4 PUSH1 0x1 PUSH2 0x838 SWAP2 SWAP1 PUSH2 0x13BB JUMP JUMPDEST PUSH2 0x842 SWAP2 SWAP1 PUSH2 0x13BB JUMP JUMPDEST DUP2 JUMP JUMPDEST PUSH1 0x5 PUSH1 0x20 MSTORE DUP1 PUSH0 MSTORE PUSH1 0x40 PUSH0 KECCAK256 PUSH0 SWAP2 POP SWAP1 POP SLOAD DUP2 JUMP JUMPDEST PUSH1 0x4 PUSH0 SWAP1 SLOAD SWAP1 PUSH2 0x100 EXP SWAP1 DIV PUSH20 0xFFFFFFFFFFFFFFFFFFFFFFFFFFFFFFFFFFFFFFFF AND DUP2 JUMP JUMPDEST PUSH1 0x1 DUP1 SLOAD PUSH2 0x88C SWAP1 PUSH2 0x11C0 JUMP JUMPDEST DUP1 PUSH1 0x1F ADD PUSH1 0x20 DUP1 SWAP2 DIV MUL PUSH1 0x20 ADD PUSH1 0x40 MLOAD SWAP1 DUP2 ADD PUSH1 0x40 MSTORE DUP1 SWAP3 SWAP2 SWAP1 DUP2 DUP2 MSTORE PUSH1 0x20 ADD DUP3 DUP1 SLOAD PUSH2 0x8B8 SWAP1 PUSH2 0x11C0 JUMP JUMPDEST DUP1 ISZERO PUSH2 0x903 JUMPI DUP1 PUSH1 0x1F LT PUSH2 0x8DA JUMPI PUSH2 0x100 DUP1 DUP4 SLOAD DIV MUL DUP4 MSTORE SWAP2 PUSH1 0x20 ADD SWAP2 PUSH2 0x903 JUMP JUMPDEST DUP3 ADD SWAP2 SWAP1 PUSH0 MSTORE PUSH1 0x20 PUSH0 KECCAK256 SWAP1 JUMPDEST DUP2 SLOAD DUP2 MSTORE SWAP1 PUSH1 0x1 ADD SWAP1 PUSH1 0x20 ADD DUP1 DUP4 GT PUSH2 0x8E6 JUMPI DUP3 SWAP1 SUB PUSH1 0x1F AND DUP3 ADD SWAP2 JUMPDEST POP POP POP POP POP DUP2 JUMP JUMPDEST PUSH1 0x4 PUSH0 SWAP1 SLOAD SWAP1 PUSH2 0x100 EXP SWAP1 DIV PUSH20 0xFFFFFFFFFFFFFFFFFFFFFFFFFFFFFFFFFFFFFFFF AND PUSH20 0xFFFFFFFFFFFFFFFFFFFFFFFFFFFFFFFFFFFFFFFF AND CALLER PUSH20 0xFFFFFFFFFFFFFFFFFFFFFFFFFFFFFFFFFFFFFFFF AND EQ PUSH2 0x99A JUMPI PUSH1 0x40 MLOAD PUSH32 0x8C379A000000000000000000000000000000000000000000000000000000000 DUP2 MSTORE PUSH1 0x4 ADD PUSH2 0x991 SWAP1 PUSH2 0x146C JUMP JUMPDEST PUSH1 0x40 MLOAD DUP1 SWAP2 SUB SWAP1 REVERT JUMPDEST DUP1 PUSH1 0x3 PUSH0 DUP3 DUP3 SLOAD PUSH2 0x9AB SWAP2 SWAP1 PUSH2 0x1388 JUMP JUMPDEST SWAP3 POP POP DUP2 SWAP1 SSTORE POP DUP1 PUSH1 0x5 PUSH0 PUSH1 0x4 PUSH0 SWAP1 SLOAD SWAP1 PUSH2 0x100 EXP SWAP1 DIV PUSH20 0xFFFFFFFFFFFFFFFFFFFFFFFFFFFFFFFFFFFFFFFF AND PUSH20 0xFFFFFFFFFFFFFFFFFFFFFFFFFFFFFFFFFFFFFFFF AND PUSH20 0xFFFFFFFFFFFFFFFFFFFFFFFFFFFFFFFFFFFFFFFF AND DUP2 MSTORE PUSH1 0x20 ADD SWAP1 DUP2 MSTORE PUSH1 0x20 ADD PUSH0 KECCAK256 PUSH0 DUP3 DUP3 SLOAD PUSH2 0xA1F SWAP2 SWAP1 PUSH2 0x1388 JUMP JUMPDEST SWAP3 POP POP DUP2 SWAP1 SSTORE POP PUSH1 0x4 PUSH0 SWAP1 SLOAD SWAP1 PUSH2 0x100 EXP SWAP1 DIV PUSH20 0xFFFFFFFFFFFFFFFFFFFFFFFFFFFFFFFFFFFFFFFF AND PUSH20 0xFFFFFFFFFFFFFFFFFFFFFFFFFFFFFFFFFFFFFFFF AND PUSH0 PUSH20 0xFFFFFFFFFFFFFFFFFFFFFFFFFFFFFFFFFFFFFFFF AND PUSH32 0xDDF252AD1BE2C89B69C2B068FC378DAA952BA7F163C4A11628F55A4DF523B3EF DUP4 PUSH1 0x40 MLOAD PUSH2 0xAA4 SWAP2 SWAP1 PUSH2 0x103A JUMP JUMPDEST PUSH1 0x40 MLOAD DUP1 SWAP2 SUB SWAP1 LOG3 POP JUMP JUMPDEST PUSH0 DUP1 PUSH20 0xFFFFFFFFFFFFFFFFFFFFFFFFFFFFFFFFFFFFFFFF AND DUP4 PUSH20 0xFFFFFFFFFFFFFFFFFFFFFFFFFFFFFFFFFFFFFFFF AND SUB PUSH2 0xB1E JUMPI PUSH1 0x40 MLOAD PUSH32 0x8C379A000000000000000000000000000000000000000000000000000000000 DUP2 MSTORE PUSH1 0x4 ADD PUSH2 0xB15 SWAP1 PUSH2 0x123A JUMP JUMPDEST PUSH1 0x40 MLOAD DUP1 SWAP2 SUB SWAP1 REVERT JUMPDEST DUP2 PUSH1 0x5 PUSH0 CALLER PUSH20 0xFFFFFFFFFFFFFFFFFFFFFFFFFFFFFFFFFFFFFFFF AND PUSH20 0xFFFFFFFFFFFFFFFFFFFFFFFFFFFFFFFFFFFFFFFF AND DUP2 MSTORE PUSH1 0x20 ADD SWAP1 DUP2 MSTORE PUSH1 0x20 ADD PUSH0 KECCAK256 SLOAD LT ISZERO PUSH2 0xB9E JUMPI PUSH1 0x40 MLOAD PUSH32 0x8C379A000000000000000000000000000000000000000000000000000000000 DUP2 MSTORE PUSH1 0x4 ADD PUSH2 0xB95 SWAP1 PUSH2 0x12A2 JUMP JUMPDEST PUSH1 0x40 MLOAD DUP1 SWAP2 SUB SWAP1 REVERT JUMPDEST DUP2 PUSH1 0x5 PUSH0 CALLER PUSH20 0xFFFFFFFFFFFFFFFFFFFFFFFFFFFFFFFFFFFFFFFF AND PUSH20 0xFFFFFFFFFFFFFFFFFFFFFFFFFFFFFFFFFFFFFFFF AND DUP2 MSTORE PUSH1 0x20 ADD SWAP1 DUP2 MSTORE PUSH1 0x20 ADD PUSH0 KECCAK256 PUSH0 DUP3 DUP3 SLOAD PUSH2 0xBEA SWAP2 SWAP1 PUSH2 0x1355 JUMP JUMPDEST SWAP3 POP POP DUP2 SWAP1 SSTORE POP DUP2 PUSH1 0x5 PUSH0 DUP6 PUSH20 0xFFFFFFFFFFFFFFFFFFFFFFFFFFFFFFFFFFFFFFFF AND PUSH20 0xFFFFFFFFFFFFFFFFFFFFFFFFFFFFFFFFFFFFFFFF AND DUP2 MSTORE PUSH1 0x20 ADD SWAP1 DUP2 MSTORE PUSH1 0x20 ADD PUSH0 KECCAK256 PUSH0 DUP3 DUP3 SLOAD PUSH2 0xC3D SWAP2 SWAP1 PUSH2 0x1388 JUMP JUMPDEST SWAP3 POP POP DUP2 SWAP1 SSTORE POP DUP3 PUSH20 0xFFFFFFFFFFFFFFFFFFFFFFFFFFFFFFFFFFFFFFFF AND CALLER PUSH20 0xFFFFFFFFFFFFFFFFFFFFFFFFFFFFFFFFFFFFFFFF AND PUSH32 0xDDF252AD1BE2C89B69C2B068FC378DAA952BA7F163C4A11628F55A4DF523B3EF DUP5 PUSH1 0x40 MLOAD PUSH2 0xCA1 SWAP2 SWAP1 PUSH2 0x103A JUMP JUMPDEST PUSH1 0x40 MLOAD DUP1 SWAP2 SUB SWAP1 LOG3 PUSH1 0x1 SWAP1 POP SWAP3 SWAP2 POP POP JUMP JUMPDEST PUSH1 0x6 PUSH1 0x20 MSTORE DUP2 PUSH0 MSTORE PUSH1 0x40 PUSH0 KECCAK256 PUSH1 0x20 MSTORE DUP1 PUSH0 MSTORE PUSH1 0x40 PUSH0 KECCAK256 PUSH0 SWAP2 POP SWAP2 POP POP SLOAD DUP2 JUMP JUMPDEST PUSH2 0x9C4 DUP2 JUMP JUMPDEST PUSH1 0x4 PUSH0 SWAP1 SLOAD SWAP1 PUSH2 0x100 EXP SWAP1 DIV PUSH20 0xFFFFFFFFFFFFFFFFFFFFFFFFFFFFFFFFFFFFFFFF AND PUSH20 0xFFFFFFFFFFFFFFFFFFFFFFFFFFFFFFFFFFFFFFFF AND CALLER PUSH20 0xFFFFFFFFFFFFFFFFFFFFFFFFFFFFFFFFFFFFFFFF AND EQ PUSH2 0xD68 JUMPI PUSH1 0x40 MLOAD PUSH32 0x8C379A000000000000000000000000000000000000000000000000000000000 DUP2 MSTORE PUSH1 0x4 ADD PUSH2 0xD5F SWAP1 PUSH2 0x146C JUMP JUMPDEST PUSH1 0x40 MLOAD DUP1 SWAP2 SUB SWAP1 REVERT JUMPDEST PUSH0 PUSH20 0xFFFFFFFFFFFFFFFFFFFFFFFFFFFFFFFFFFFFFFFF AND DUP2 PUSH20 0xFFFFFFFFFFFFFFFFFFFFFFFFFFFFFFFFFFFFFFFF AND SUB PUSH2 0xDD6 JUMPI PUSH1 0x40 MLOAD PUSH32 0x8C379A000000000000000000000000000000000000000000000000000000000 DUP2 MSTORE PUSH1 0x4 ADD PUSH2 0xDCD SWAP1 PUSH2 0x14D4 JUMP JUMPDEST PUSH1 0x40 MLOAD DUP1 SWAP2 SUB SWAP1 REVERT JUMPDEST DUP1 PUSH20 0xFFFFFFFFFFFFFFFFFFFFFFFFFFFFFFFFFFFFFFFF AND PUSH1 0x4 PUSH0 SWAP1 SLOAD SWAP1 PUSH2 0x100 EXP SWAP1 DIV PUSH20 0xFFFFFFFFFFFFFFFFFFFFFFFFFFFFFFFFFFFFFFFF AND PUSH20 0xFFFFFFFFFFFFFFFFFFFFFFFFFFFFFFFFFFFFFFFF AND PUSH32 0x8BE0079C531659141344CD1FD0A4F28419497F9722A3DAAFE3B4186F6B6457E0 PUSH1 0x40 MLOAD PUSH1 0x40 MLOAD DUP1 SWAP2 SUB SWAP1 LOG3 DUP1 PUSH1 0x4 PUSH0 PUSH2 0x100 EXP DUP2 SLOAD DUP2 PUSH20 0xFFFFFFFFFFFFFFFFFFFFFFFFFFFFFFFFFFFFFFFF MUL NOT AND SWAP1 DUP4 PUSH20 0xFFFFFFFFFFFFFFFFFFFFFFFFFFFFFFFFFFFFFFFF AND MUL OR SWAP1 SSTORE POP POP JUMP JUMPDEST PUSH1 0x1 DUP2 JUMP JUMPDEST PUSH0 DUP2 MLOAD SWAP1 POP SWAP2 SWAP1 POP JUMP JUMPDEST PUSH0 DUP3 DUP3 MSTORE PUSH1 0x20 DUP3 ADD SWAP1 POP SWAP3 SWAP2 POP POP JUMP JUMPDEST DUP3 DUP2 DUP4 MCOPY PUSH0 DUP4 DUP4 ADD MSTORE POP POP POP JUMP JUMPDEST PUSH0 PUSH1 0x1F NOT PUSH1 0x1F DUP4 ADD AND SWAP1 POP SWAP2 SWAP1 POP JUMP JUMPDEST PUSH0 PUSH2 0xEDB DUP3 PUSH2 0xE99 JUMP JUMPDEST PUSH2 0xEE5 DUP2 DUP6 PUSH2 0xEA3 JUMP JUMPDEST SWAP4 POP PUSH2 0xEF5 DUP2 DUP6 PUSH1 0x20 DUP7 ADD PUSH2 0xEB3 JUMP JUMPDEST PUSH2 0xEFE DUP2 PUSH2 0xEC1 JUMP JUMPDEST DUP5 ADD SWAP2 POP POP SWAP3 SWAP2 POP POP JUMP JUMPDEST PUSH0 PUSH1 0x20 DUP3 ADD SWAP1 POP DUP2 DUP2 SUB PUSH0 DUP4 ADD MSTORE PUSH2 0xF21 DUP2 DUP5 PUSH2 0xED1 JUMP JUMPDEST SWAP1 POP SWAP3 SWAP2 POP POP JUMP JUMPDEST PUSH0 DUP1 REVERT JUMPDEST PUSH0 PUSH20 0xFFFFFFFFFFFFFFFFFFFFFFFFFFFFFFFFFFFFFFFF DUP3 AND SWAP1 POP SWAP2 SWAP1 POP JUMP JUMPDEST PUSH0 PUSH2 0xF56 DUP3 PUSH2 0xF2D JUMP JUMPDEST SWAP1 POP SWAP2 SWAP1 POP JUMP JUMPDEST PUSH2 0xF66 DUP2 PUSH2 0xF4C JUMP JUMPDEST DUP2 EQ PUSH2 0xF70 JUMPI PUSH0 DUP1 REVERT JUMPDEST POP JUMP JUMPDEST PUSH0 DUP2 CALLDATALOAD SWAP1 POP PUSH2 0xF81 DUP2 PUSH2 0xF5D JUMP JUMPDEST SWAP3 SWAP2 POP POP JUMP JUMPDEST PUSH0 DUP2 SWAP1 POP SWAP2 SWAP1 POP JUMP JUMPDEST PUSH2 0xF99 DUP2 PUSH2 0xF87 JUMP JUMPDEST DUP2 EQ PUSH2 0xFA3 JUMPI PUSH0 DUP1 REVERT JUMPDEST POP JUMP JUMPDEST PUSH0 DUP2 CALLDATALOAD SWAP1 POP PUSH2 0xFB4 DUP2 PUSH2 0xF90 JUMP JUMPDEST SWAP3 SWAP2 POP POP JUMP JUMPDEST PUSH0 DUP1 PUSH1 0x40 DUP4 DUP6 SUB SLT ISZERO PUSH2 0xFD0 JUMPI PUSH2 0xFCF PUSH2 0xF29 JUMP JUMPDEST JUMPDEST PUSH0 PUSH2 0xFDD DUP6 DUP3 DUP7 ADD PUSH2 0xF73 JUMP JUMPDEST SWAP3 POP POP PUSH1 0x20 PUSH2 0xFEE DUP6 DUP3 DUP7 ADD PUSH2 0xFA6 JUMP JUMPDEST SWAP2 POP POP SWAP3 POP SWAP3 SWAP1 POP JUMP JUMPDEST PUSH0 DUP2 ISZERO ISZERO SWAP1 POP SWAP2 SWAP1 POP JUMP JUMPDEST PUSH2 0x100C DUP2 PUSH2 0xFF8 JUMP JUMPDEST DUP3 MSTORE POP POP JUMP JUMPDEST PUSH0 PUSH1 0x20 DUP3 ADD SWAP1 POP PUSH2 0x1025 PUSH0 DUP4 ADD DUP5 PUSH2 0x1003 JUMP JUMPDEST SWAP3 SWAP2 POP POP JUMP JUMPDEST PUSH2 0x1034 DUP2 PUSH2 0xF87 JUMP JUMPDEST DUP3 MSTORE POP POP JUMP JUMPDEST PUSH0 PUSH1 0x20 DUP3 ADD SWAP1 POP PUSH2 0x104D PUSH0 DUP4 ADD DUP5 PUSH2 0x102B JUMP JUMPDEST SWAP3 SWAP2 POP POP JUMP JUMPDEST PUSH0 DUP1 PUSH0 PUSH1 0x60 DUP5 DUP7 SUB SLT ISZERO PUSH2 0x106A JUMPI PUSH2 0x1069 PUSH2 0xF29 JUMP JUMPDEST JUMPDEST PUSH0 PUSH2 0x1077 DUP7 DUP3 DUP8 ADD PUSH2 0xF73 JUMP JUMPDEST SWAP4 POP POP PUSH1 0x20 PUSH2 0x1088 DUP7 DUP3 DUP8 ADD PUSH2 0xF73 JUMP JUMPDEST SWAP3 POP POP PUSH1 0x40 PUSH2 0x1099 DUP7 DUP3 DUP8 ADD PUSH2 0xFA6 JUMP JUMPDEST SWAP2 POP POP SWAP3 POP SWAP3 POP SWAP3 JUMP JUMPDEST PUSH0 PUSH1 0xFF DUP3 AND SWAP1 POP SWAP2 SWAP1 POP JUMP JUMPDEST PUSH2 0x10B8 DUP2 PUSH2 0x10A3 JUMP JUMPDEST DUP3 MSTORE POP POP JUMP JUMPDEST PUSH0 PUSH1 0x20 DUP3 ADD SWAP1 POP PUSH2 0x10D1 PUSH0 DUP4 ADD DUP5 PUSH2 0x10AF JUMP JUMPDEST SWAP3 SWAP2 POP POP JUMP JUMPDEST PUSH0 PUSH1 0x20 DUP3 DUP5 SUB SLT ISZERO PUSH2 0x10EC JUMPI PUSH2 0x10EB PUSH2 0xF29 JUMP JUMPDEST JUMPDEST PUSH0 PUSH2 0x10F9 DUP5 DUP3 DUP6 ADD PUSH2 0xF73 JUMP JUMPDEST SWAP2 POP POP SWAP3 SWAP2 POP POP JUMP JUMPDEST PUSH2 0x110B DUP2 PUSH2 0xF4C JUMP JUMPDEST DUP3 MSTORE POP POP JUMP JUMPDEST PUSH0 PUSH1 0x20 DUP3 ADD SWAP1 POP PUSH2 0x1124 PUSH0 DUP4 ADD DUP5 PUSH2 0x1102 JUMP JUMPDEST SWAP3 SWAP2 POP POP JUMP JUMPDEST PUSH0 PUSH1 0x20 DUP3 DUP5 SUB SLT ISZERO PUSH2 0x113F JUMPI PUSH2 0x113E PUSH2 0xF29 JUMP JUMPDEST JUMPDEST PUSH0 PUSH2 0x114C DUP5 DUP3 DUP6 ADD PUSH2 0xFA6 JUMP JUMPDEST SWAP2 POP POP SWAP3 SWAP2 POP POP JUMP JUMPDEST PUSH0 DUP1 PUSH1 0x40 DUP4 DUP6 SUB SLT ISZERO PUSH2 0x116B JUMPI PUSH2 0x116A PUSH2 0xF29 JUMP JUMPDEST JUMPDEST PUSH0 PUSH2 0x1178 DUP6 DUP3 DUP7 ADD PUSH2 0xF73 JUMP JUMPDEST SWAP3 POP POP PUSH1 0x20 PUSH2 0x1189 DUP6 DUP3 DUP7 ADD PUSH2 0xF73 JUMP JUMPDEST SWAP2 POP POP SWAP3 POP SWAP3 SWAP1 POP JUMP JUMPDEST PUSH32 0x4E487B7100000000000000000000000000000000000000000000000000000000 PUSH0 MSTORE PUSH1 0x22 PUSH1 0x4 MSTORE PUSH1 0x24 PUSH0 REVERT JUMPDEST PUSH0 PUSH1 0x2 DUP3 DIV SWAP1 POP PUSH1 0x1 DUP3 AND DUP1 PUSH2 0x11D7 JUMPI PUSH1 0x7F DUP3 AND SWAP2 POP JUMPDEST PUSH1 0x20 DUP3 LT DUP2 SUB PUSH2 0x11EA JUMPI PUSH2 0x11E9 PUSH2 0x1193 JUMP JUMPDEST JUMPDEST POP SWAP2 SWAP1 POP JUMP JUMPDEST PUSH32 0x496E76616C696420616464726573730000000000000000000000000000000000 PUSH0 DUP3 ADD MSTORE POP JUMP JUMPDEST PUSH0 PUSH2 0x1224 PUSH1 0xF DUP4 PUSH2 0xEA3 JUMP JUMPDEST SWAP2 POP PUSH2 0x122F DUP3 PUSH2 0x11F0 JUMP JUMPDEST PUSH1 0x20 DUP3 ADD SWAP1 POP SWAP2 SWAP1 POP JUMP JUMPDEST PUSH0 PUSH1 0x20 DUP3 ADD SWAP1 POP DUP2 DUP2 SUB PUSH0 DUP4 ADD MSTORE PUSH2 0x1251 DUP2 PUSH2 0x1218 JUMP JUMPDEST SWAP1 POP SWAP2 SWAP1 POP JUMP JUMPDEST PUSH32 0x496E73756666696369656E742062616C616E6365000000000000000000000000 PUSH0 DUP3 ADD MSTORE POP JUMP JUMPDEST PUSH0 PUSH2 0x128C PUSH1 0x14 DUP4 PUSH2 0xEA3 JUMP JUMPDEST SWAP2 POP PUSH2 0x1297 DUP3 PUSH2 0x1258 JUMP JUMPDEST PUSH1 0x20 DUP3 ADD SWAP1 POP SWAP2 SWAP1 POP JUMP JUMPDEST PUSH0 PUSH1 0x20 DUP3 ADD SWAP1 POP DUP2 DUP2 SUB PUSH0 DUP4 ADD MSTORE PUSH2 0x12B9 DUP2 PUSH2 0x1280 JUMP JUMPDEST SWAP1 POP SWAP2 SWAP1 POP JUMP JUMPDEST PUSH32 0x416C6C6F77616E63652065786365656465640000000000000000000000000000 PUSH0 DUP3 ADD MSTORE POP JUMP JUMPDEST PUSH0 PUSH2 0x12F4 PUSH1 0x12 DUP4 PUSH2 0xEA3 JUMP JUMPDEST SWAP2 POP PUSH2 0x12FF DUP3 PUSH2 0x12C0 JUMP JUMPDEST PUSH1 0x20 DUP3 ADD SWAP1 POP SWAP2 SWAP1 POP JUMP JUMPDEST PUSH0 PUSH1 0x20 DUP3 ADD SWAP1 POP DUP2 DUP2 SUB PUSH0 DUP4 ADD MSTORE PUSH2 0x1321 DUP2 PUSH2 0x12E8 JUMP JUMPDEST SWAP1 POP SWAP2 SWAP1 POP JUMP JUMPDEST PUSH32 0x4E487B7100000000000000000000000000000000000000000000000000000000 PUSH0 MSTORE PUSH1 0x11 PUSH1 0x4 MSTORE PUSH1 0x24 PUSH0 REVERT JUMPDEST PUSH0 PUSH2 0x135F DUP3 PUSH2 0xF87 JUMP JUMPDEST SWAP2 POP PUSH2 0x136A DUP4 PUSH2 0xF87 JUMP JUMPDEST SWAP3 POP DUP3 DUP3 SUB SWAP1 POP DUP2 DUP2 GT ISZERO PUSH2 0x1382 JUMPI PUSH2 0x1381 PUSH2 0x1328 JUMP JUMPDEST JUMPDEST SWAP3 SWAP2 POP POP JUMP JUMPDEST PUSH0 PUSH2 0x1392 DUP3 PUSH2 0xF87 JUMP JUMPDEST SWAP2 POP PUSH2 0x139D DUP4 PUSH2 0xF87 JUMP JUMPDEST SWAP3 POP DUP3 DUP3 ADD SWAP1 POP DUP1 DUP3 GT ISZERO PUSH2 0x13B5 JUMPI PUSH2 0x13B4 PUSH2 0x1328 JUMP JUMPDEST JUMPDEST SWAP3 SWAP2 POP POP JUMP JUMPDEST PUSH0 PUSH2 0x13C5 DUP3 PUSH2 0xF87 JUMP JUMPDEST SWAP2 POP PUSH2 0x13D0 DUP4 PUSH2 0xF87 JUMP JUMPDEST SWAP3 POP DUP3 DUP3 MUL PUSH2 0x13DE DUP2 PUSH2 0xF87 JUMP JUMPDEST SWAP2 POP DUP3 DUP3 DIV DUP5 EQ DUP4 ISZERO OR PUSH2 0x13F5 JUMPI PUSH2 0x13F4 PUSH2 0x1328 JUMP JUMPDEST JUMPDEST POP SWAP3 SWAP2 POP POP JUMP JUMPDEST PUSH32 0x4F6E6C79206F776E65722063616E20706572666F726D20746869732061637469 PUSH0 DUP3 ADD MSTORE PUSH32 0x6F6E000000000000000000000000000000000000000000000000000000000000 PUSH1 0x20 DUP3 ADD MSTORE POP JUMP JUMPDEST PUSH0 PUSH2 0x1456 PUSH1 0x22 DUP4 PUSH2 0xEA3 JUMP JUMPDEST SWAP2 POP PUSH2 0x1461 DUP3 PUSH2 0x13FC JUMP JUMPDEST PUSH1 0x40 DUP3 ADD SWAP1 POP SWAP2 SWAP1 POP JUMP JUMPDEST PUSH0 PUSH1 0x20 DUP3 ADD SWAP1 POP DUP2 DUP2 SUB PUSH0 DUP4 ADD MSTORE PUSH2 0x1483 DUP2 PUSH2 0x144A JUMP JUMPDEST SWAP1 POP SWAP2 SWAP1 POP JUMP JUMPDEST PUSH32 0x4E6577206F776E657220697320746865207A65726F2061646472657373000000 PUSH0 DUP3 ADD MSTORE POP JUMP JUMPDEST PUSH0 PUSH2 0x14BE PUSH1 0x1D DUP4 PUSH2 0xEA3 JUMP JUMPDEST SWAP2 POP PUSH2 0x14C9 DUP3 PUSH2 0x148A JUMP JUMPDEST PUSH1 0x20 DUP3 ADD SWAP1 POP SWAP2 SWAP1 POP JUMP JUMPDEST PUSH0 PUSH1 0x20 DUP3 ADD SWAP1 POP DUP2 DUP2 SUB PUSH0 DUP4 ADD MSTORE PUSH2 0x14EB DUP2 PUSH2 0x14B2 JUMP JUMPDEST SWAP1 POP SWAP2 SWAP1 POP JUMP INVALID LOG2 PUSH5 0x6970667358 0x22 SLT KECCAK256 SHL AND STATICCALL 0xE3 0xC5 NUMBER 0xF9 DUP9 0xF9 BYTE 0x2E PUSH2 0x9B16 MUL 0x4F LOG4 0xBC COINBASE 0x2B JUMP 0xD0 GT 0xEC 0xE0 NOT SWAP7 SAR 0xED 0xB1 0xB0 0x2C PUSH5 0x736F6C6343 STOP ADDMOD BYTE STOP CALLER "
	},
	"abi": [
		{
			"inputs": [],
			"stateMutability": "nonpayable",
			"type": "constructor"
		},
		{
			"anonymous": false,
			"inputs": [
				{
					"indexed": true,
					"internalType": "address",
					"name": "owner",
					"type": "address"
				},
				{
					"indexed": true,
					"internalType": "address",
					"name": "spender",
					"type": "address"
				},
				{
					"indexed": false,
					"internalType": "uint256",
					"name": "value",
					"type": "uint256"
				}
			],
			"name": "Approval",
			"type": "event"
		},
		{
			"anonymous": false,
			"inputs": [
				{
					"indexed": true,
					"internalType": "address",
					"name": "previousOwner",
					"type": "address"
				},
				{
					"indexed": true,
					"internalType": "address",
					"name": "newOwner",
					"type": "address"
				}
			],
			"name": "OwnershipTransferred",
			"type": "event"
		},
		{
			"anonymous": false,
			"inputs": [
				{
					"indexed": true,
					"internalType": "address",
					"name": "from",
					"type": "address"
				},
				{
					"indexed": true,
					"internalType": "address",
					"name": "to",
					"type": "address"
				},
				{
					"indexed": false,
					"internalType": "uint256",
					"name": "value",
					"type": "uint256"
				}
			],
			"name": "Transfer",
			"type": "event"
		},
		{
			"inputs": [
				{
					"internalType": "address",
					"name": "",
					"type": "address"
				},
				{
					"internalType": "address",
					"name": "",
					"type": "address"
				}
			],
			"name": "allowance",
			"outputs": [
				{
					"internalType": "uint256",
					"name": "",
					"type": "uint256"
				}
			],
			"stateMutability": "view",
			"type": "function"
		},
		{
			"inputs": [
				{
					"internalType": "address",
					"name": "_spender",
					"type": "address"
				},
				{
					"internalType": "uint256",
					"name": "_value",
					"type": "uint256"
				}
			],
			"name": "approve",
			"outputs": [
				{
					"internalType": "bool",
					"name": "success",
					"type": "bool"
				}
			],
			"stateMutability": "nonpayable",
			"type": "function"
		},
		{
			"inputs": [
				{
					"internalType": "address",
					"name": "",
					"type": "address"
				}
			],
			"name": "balanceOf",
			"outputs": [
				{
					"internalType": "uint256",
					"name": "",
					"type": "uint256"
				}
			],
			"stateMutability": "view",
			"type": "function"
		},
		{
			"inputs": [],
			"name": "decimals",
			"outputs": [
				{
					"internalType": "uint8",
					"name": "",
					"type": "uint8"
				}
			],
			"stateMutability": "view",
			"type": "function"
		},
		{
			"inputs": [],
			"name": "hectares",
			"outputs": [
				{
					"internalType": "uint256",
					"name": "",
					"type": "uint256"
				}
			],
			"stateMutability": "view",
			"type": "function"
		},
		{
			"inputs": [],
			"name": "initialSupply",
			"outputs": [
				{
					"internalType": "uint256",
					"name": "",
					"type": "uint256"
				}
			],
			"stateMutability": "view",
			"type": "function"
		},
		{
			"inputs": [
				{
					"internalType": "uint256",
					"name": "_amount",
					"type": "uint256"
				}
			],
			"name": "mint",
			"outputs": [],
			"stateMutability": "nonpayable",
			"type": "function"
		},
		{
			"inputs": [],
			"name": "name",
			"outputs": [
				{
					"internalType": "string",
					"name": "",
					"type": "string"
				}
			],
			"stateMutability": "view",
			"type": "function"
		},
		{
			"inputs": [],
			"name": "owner",
			"outputs": [
				{
					"internalType": "address",
					"name": "",
					"type": "address"
				}
			],
			"stateMutability": "view",
			"type": "function"
		},
		{
			"inputs": [],
			"name": "squareMetersPerToken",
			"outputs": [
				{
					"internalType": "uint256",
					"name": "",
					"type": "uint256"
				}
			],
			"stateMutability": "view",
			"type": "function"
		},
		{
			"inputs": [],
			"name": "symbol",
			"outputs": [
				{
					"internalType": "string",
					"name": "",
					"type": "string"
				}
			],
			"stateMutability": "view",
			"type": "function"
		},
		{
			"inputs": [],
			"name": "totalSupply",
			"outputs": [
				{
					"internalType": "uint256",
					"name": "",
					"type": "uint256"
				}
			],
			"stateMutability": "view",
			"type": "function"
		},
		{
			"inputs": [
				{
					"internalType": "address",
					"name": "_to",
					"type": "address"
				},
				{
					"internalType": "uint256",
					"name": "_value",
					"type": "uint256"
				}
			],
			"name": "transfer",
			"outputs": [
				{
					"internalType": "bool",
					"name": "success",
					"type": "bool"
				}
			],
			"stateMutability": "nonpayable",
			"type": "function"
		},
		{
			"inputs": [
				{
					"internalType": "address",
					"name": "_from",
					"type": "address"
				},
				{
					"internalType": "address",
					"name": "_to",
					"type": "address"
				},
				{
					"internalType": "uint256",
					"name": "_value",
					"type": "uint256"
				}
			],
			"name": "transferFrom",
			"outputs": [
				{
					"internalType": "bool",
					"name": "success",
					"type": "bool"
				}
			],
			"stateMutability": "nonpayable",
			"type": "function"
		},
		{
			"inputs": [
				{
					"internalType": "address",
					"name": "newOwner",
					"type": "address"
				}
			],
			"name": "transferOwnership",
			"outputs": [],
			"stateMutability": "nonpayable",
			"type": "function"
		}
	],
	"storageLayout": {
		"storage": [
			{
				"astId": 4,
				"contract": "contracts/Criptomoedaterrareal.sol:TerraReal",
				"label": "name",
				"offset": 0,
				"slot": "0",
				"type": "t_string_storage"
			},
			{
				"astId": 7,
				"contract": "contracts/Criptomoedaterrareal.sol:TerraReal",
				"label": "symbol",
				"offset": 0,
				"slot": "1",
				"type": "t_string_storage"
			},
			{
				"astId": 10,
				"contract": "contracts/Criptomoedaterrareal.sol:TerraReal",
				"label": "decimals",
				"offset": 0,
				"slot": "2",
				"type": "t_uint8"
			},
			{
				"astId": 12,
				"contract": "contracts/Criptomoedaterrareal.sol:TerraReal",
				"label": "totalSupply",
				"offset": 0,
				"slot": "3",
				"type": "t_uint256"
			},
			{
				"astId": 27,
				"contract": "contracts/Criptomoedaterrareal.sol:TerraReal",
				"label": "owner",
				"offset": 0,
				"slot": "4",
				"type": "t_address"
			},
			{
				"astId": 31,
				"contract": "contracts/Criptomoedaterrareal.sol:TerraReal",
				"label": "balanceOf",
				"offset": 0,
				"slot": "5",
				"type": "t_mapping(t_address,t_uint256)"
			},
			{
				"astId": 37,
				"contract": "contracts/Criptomoedaterrareal.sol:TerraReal",
				"label": "allowance",
				"offset": 0,
				"slot": "6",
				"type": "t_mapping(t_address,t_mapping(t_address,t_uint256))"
			}
		],
		"types": {
			"t_address": {
				"encoding": "inplace",
				"label": "address",
				"numberOfBytes": "20"
			},
			"t_mapping(t_address,t_mapping(t_address,t_uint256))": {
				"encoding": "mapping",
				"key": "t_address",
				"label": "mapping(address => mapping(address => uint256))",
				"numberOfBytes": "32",
				"value": "t_mapping(t_address,t_uint256)"
			},
			"t_mapping(t_address,t_uint256)": {
				"encoding": "mapping",
				"key": "t_address",
				"label": "mapping(address => uint256)",
				"numberOfBytes": "32",
				"value": "t_uint256"
			},
			"t_string_storage": {
				"encoding": "bytes",
				"label": "string",
				"numberOfBytes": "32"
			},
			"t_uint256": {
				"encoding": "inplace",
				"label": "uint256",
				"numberOfBytes": "32"
			},
			"t_uint8": {
				"encoding": "inplace",
				"label": "uint8",
				"numberOfBytes": "1"
			}
		}
	},
	"web3Deploy": "var terrarealContract = new web3.eth.Contract([{\"inputs\":[],\"stateMutability\":\"nonpayable\",\"type\":\"constructor\"},{\"anonymous\":false,\"inputs\":[{\"indexed\":true,\"internalType\":\"address\",\"name\":\"owner\",\"type\":\"address\"},{\"indexed\":true,\"internalType\":\"address\",\"name\":\"spender\",\"type\":\"address\"},{\"indexed\":false,\"internalType\":\"uint256\",\"name\":\"value\",\"type\":\"uint256\"}],\"name\":\"Approval\",\"type\":\"event\"},{\"anonymous\":false,\"inputs\":[{\"indexed\":true,\"internalType\":\"address\",\"name\":\"previousOwner\",\"type\":\"address\"},{\"indexed\":true,\"internalType\":\"address\",\"name\":\"newOwner\",\"type\":\"address\"}],\"name\":\"OwnershipTransferred\",\"type\":\"event\"},{\"anonymous\":false,\"inputs\":[{\"indexed\":true,\"internalType\":\"address\",\"name\":\"from\",\"type\":\"address\"},{\"indexed\":true,\"internalType\":\"address\",\"name\":\"to\",\"type\":\"address\"},{\"indexed\":false,\"internalType\":\"uint256\",\"name\":\"value\",\"type\":\"uint256\"}],\"name\":\"Transfer\",\"type\":\"event\"},{\"inputs\":[{\"internalType\":\"address\",\"name\":\"\",\"type\":\"address\"},{\"internalType\":\"address\",\"name\":\"\",\"type\":\"address\"}],\"name\":\"allowance\",\"outputs\":[{\"internalType\":\"uint256\",\"name\":\"\",\"type\":\"uint256\"}],\"stateMutability\":\"view\",\"type\":\"function\"},{\"inputs\":[{\"internalType\":\"address\",\"name\":\"_spender\",\"type\":\"address\"},{\"internalType\":\"uint256\",\"name\":\"_value\",\"type\":\"uint256\"}],\"name\":\"approve\",\"outputs\":[{\"internalType\":\"bool\",\"name\":\"success\",\"type\":\"bool\"}],\"stateMutability\":\"nonpayable\",\"type\":\"function\"},{\"inputs\":[{\"internalType\":\"address\",\"name\":\"\",\"type\":\"address\"}],\"name\":\"balanceOf\",\"outputs\":[{\"internalType\":\"uint256\",\"name\":\"\",\"type\":\"uint256\"}],\"stateMutability\":\"view\",\"type\":\"function\"},{\"inputs\":[],\"name\":\"decimals\",\"outputs\":[{\"internalType\":\"uint8\",\"name\":\"\",\"type\":\"uint8\"}],\"stateMutability\":\"view\",\"type\":\"function\"},{\"inputs\":[],\"name\":\"hectares\",\"outputs\":[{\"internalType\":\"uint256\",\"name\":\"\",\"type\":\"uint256\"}],\"stateMutability\":\"view\",\"type\":\"function\"},{\"inputs\":[],\"name\":\"initialSupply\",\"outputs\":[{\"internalType\":\"uint256\",\"name\":\"\",\"type\":\"uint256\"}],\"stateMutability\":\"view\",\"type\":\"function\"},{\"inputs\":[{\"internalType\":\"uint256\",\"name\":\"_amount\",\"type\":\"uint256\"}],\"name\":\"mint\",\"outputs\":[],\"stateMutability\":\"nonpayable\",\"type\":\"function\"},{\"inputs\":[],\"name\":\"name\",\"outputs\":[{\"internalType\":\"string\",\"name\":\"\",\"type\":\"string\"}],\"stateMutability\":\"view\",\"type\":\"function\"},{\"inputs\":[],\"name\":\"owner\",\"outputs\":[{\"internalType\":\"address\",\"name\":\"\",\"type\":\"address\"}],\"stateMutability\":\"view\",\"type\":\"function\"},{\"inputs\":[],\"name\":\"squareMetersPerToken\",\"outputs\":[{\"internalType\":\"uint256\",\"name\":\"\",\"type\":\"uint256\"}],\"stateMutability\":\"view\",\"type\":\"function\"},{\"inputs\":[],\"name\":\"symbol\",\"outputs\":[{\"internalType\":\"string\",\"name\":\"\",\"type\":\"string\"}],\"stateMutability\":\"view\",\"type\":\"function\"},{\"inputs\":[],\"name\":\"totalSupply\",\"outputs\":[{\"internalType\":\"uint256\",\"name\":\"\",\"type\":\"uint256\"}],\"stateMutability\":\"view\",\"type\":\"function\"},{\"inputs\":[{\"internalType\":\"address\",\"name\":\"_to\",\"type\":\"address\"},{\"internalType\":\"uint256\",\"name\":\"_value\",\"type\":\"uint256\"}],\"name\":\"transfer\",\"outputs\":[{\"internalType\":\"bool\",\"name\":\"success\",\"type\":\"bool\"}],\"stateMutability\":\"nonpayable\",\"type\":\"function\"},{\"inputs\":[{\"internalType\":\"address\",\"name\":\"_from\",\"type\":\"address\"},{\"internalType\":\"address\",\"name\":\"_to\",\"type\":\"address\"},{\"internalType\":\"uint256\",\"name\":\"_value\",\"type\":\"uint256\"}],\"name\":\"transferFrom\",\"outputs\":[{\"internalType\":\"bool\",\"name\":\"success\",\"type\":\"bool\"}],\"stateMutability\":\"nonpayable\",\"type\":\"function\"},{\"inputs\":[{\"internalType\":\"address\",\"name\":\"newOwner\",\"type\":\"address\"}],\"name\":\"transferOwnership\",\"outputs\":[],\"stateMutability\":\"nonpayable\",\"type\":\"function\"}]);\nvar terrareal = terrarealContract.deploy({\n     data: '0x60806040526040518060400160405280600a81526020017f5465727261205265616c000000000000000000000000000000000000000000008152505f90816100479190610431565b506040518060400160405280600281526020017f54520000000000000000000000000000000000000000000000000000000000008152506001908161008c9190610431565b505f60025f6101000a81548160ff021916908360ff1602179055503480156100b2575f80fd5b506127106109c460016100c5919061052d565b6100cf919061052d565b6003819055506127106109c460016100e7919061052d565b6100f1919061052d565b60055f3373ffffffffffffffffffffffffffffffffffffffff1673ffffffffffffffffffffffffffffffffffffffff1681526020019081526020015f20819055503360045f6101000a81548173ffffffffffffffffffffffffffffffffffffffff021916908373ffffffffffffffffffffffffffffffffffffffff1602179055503373ffffffffffffffffffffffffffffffffffffffff165f73ffffffffffffffffffffffffffffffffffffffff167fddf252ad1be2c89b69c2b068fc378daa952ba7f163c4a11628f55a4df523b3ef6127106109c460016101d3919061052d565b6101dd919061052d565b6040516101ea919061057d565b60405180910390a3610596565b5f81519050919050565b7f4e487b71000000000000000000000000000000000000000000000000000000005f52604160045260245ffd5b7f4e487b71000000000000000000000000000000000000000000000000000000005f52602260045260245ffd5b5f600282049050600182168061027257607f821691505b6020821081036102855761028461022e565b5b50919050565b5f819050815f5260205f209050919050565b5f6020601f8301049050919050565b5f82821b905092915050565b5f600883026102e77fffffffffffffffffffffffffffffffffffffffffffffffffffffffffffffffff826102ac565b6102f186836102ac565b95508019841693508086168417925050509392505050565b5f819050919050565b5f819050919050565b5f61033561033061032b84610309565b610312565b610309565b9050919050565b5f819050919050565b61034e8361031b565b61036261035a8261033c565b8484546102b8565b825550505050565b5f90565b61037661036a565b610381818484610345565b505050565b5b818110156103a4576103995f8261036e565b600181019050610387565b5050565b601f8211156103e9576103ba8161028b565b6103c38461029d565b810160208510156103d2578190505b6103e66103de8561029d565b830182610386565b50505b505050565b5f82821c905092915050565b5f6104095f19846008026103ee565b1980831691505092915050565b5f61042183836103fa565b9150826002028217905092915050565b61043a826101f7565b67ffffffffffffffff81111561045357610452610201565b5b61045d825461025b565b6104688282856103a8565b5f60209050601f831160018114610499575f8415610487578287015190505b6104918582610416565b8655506104f8565b601f1984166104a78661028b565b5f5b828110156104ce578489015182556001820191506020850194506020810190506104a9565b868310156104eb57848901516104e7601f8916826103fa565b8355505b6001600288020188555050505b505050505050565b7f4e487b71000000000000000000000000000000000000000000000000000000005f52601160045260245ffd5b5f61053782610309565b915061054283610309565b925082820261055081610309565b9150828204841483151761056757610566610500565b5b5092915050565b61057781610309565b82525050565b5f6020820190506105905f83018461056e565b92915050565b611528806105a35f395ff3fe608060405234801561000f575f80fd5b50600436106100f3575f3560e01c80638da5cb5b11610095578063dd62ed3e11610064578063dd62ed3e14610287578063ee2bdd48146102b7578063f2fde38b146102d5578063f3e00728146102f1576100f3565b80638da5cb5b146101ff57806395d89b411461021d578063a0712d681461023b578063a9059cbb14610257576100f3565b806323b872dd116100d157806323b872dd14610163578063313ce56714610193578063378dc3dc146101b157806370a08231146101cf576100f3565b806306fdde03146100f7578063095ea7b31461011557806318160ddd14610145575b5f80fd5b6100ff61030f565b60405161010c9190610f09565b60405180910390f35b61012f600480360381019061012a9190610fba565b61039a565b60405161013c9190611012565b60405180910390f35b61014d610487565b60405161015a919061103a565b60405180910390f35b61017d60048036038101906101789190611053565b61048d565b60405161018a9190611012565b60405180910390f35b61019b610814565b6040516101a891906110be565b60405180910390f35b6101b9610826565b6040516101c6919061103a565b60405180910390f35b6101e960048036038101906101e491906110d7565b610845565b6040516101f6919061103a565b60405180910390f35b61020761085a565b6040516102149190611111565b60405180910390f35b61022561087f565b6040516102329190610f09565b60405180910390f35b6102556004803603810190610250919061112a565b61090b565b005b610271600480360381019061026c9190610fba565b610aaf565b60405161027e9190611012565b60405180910390f35b6102a1600480360381019061029c9190611155565b610cb3565b6040516102ae919061103a565b60405180910390f35b6102bf610cd3565b6040516102cc919061103a565b60405180910390f35b6102ef60048036038101906102ea91906110d7565b610cd9565b005b6102f9610e94565b604051610306919061103a565b60405180910390f35b5f805461031b906111c0565b80601f0160208091040260200160405190810160405280929190818152602001828054610347906111c0565b80156103925780601f1061036957610100808354040283529160200191610392565b820191905f5260205f20905b81548152906001019060200180831161037557829003601f168201915b505050505081565b5f8160065f3373ffffffffffffffffffffffffffffffffffffffff1673ffffffffffffffffffffffffffffffffffffffff1681526020019081526020015f205f8573ffffffffffffffffffffffffffffffffffffffff1673ffffffffffffffffffffffffffffffffffffffff1681526020019081526020015f20819055508273ffffffffffffffffffffffffffffffffffffffff163373ffffffffffffffffffffffffffffffffffffffff167f8c5be1e5ebec7d5bd14f71427d1e84f3dd0314c0f7b2291e5b200ac8c7c3b92584604051610475919061103a565b60405180910390a36001905092915050565b60035481565b5f8073ffffffffffffffffffffffffffffffffffffffff168473ffffffffffffffffffffffffffffffffffffffff16141580156104f657505f73ffffffffffffffffffffffffffffffffffffffff168373ffffffffffffffffffffffffffffffffffffffff1614155b610535576040517f08c379a000000000000000000000000000000000000000000000000000000000815260040161052c9061123a565b60405180910390fd5b8160055f8673ffffffffffffffffffffffffffffffffffffffff1673ffffffffffffffffffffffffffffffffffffffff1681526020019081526020015f205410156105b5576040517f08c379a00000000000000000000000000000000000000000000000000000000081526004016105ac906112a2565b60405180910390fd5b8160065f8673ffffffffffffffffffffffffffffffffffffffff1673ffffffffffffffffffffffffffffffffffffffff1681526020019081526020015f205f3373ffffffffffffffffffffffffffffffffffffffff1673ffffffffffffffffffffffffffffffffffffffff1681526020019081526020015f20541015610670576040517f08c379a00000000000000000000000000000000000000000000000000000000081526004016106679061130a565b60405180910390fd5b8160055f8673ffffffffffffffffffffffffffffffffffffffff1673ffffffffffffffffffffffffffffffffffffffff1681526020019081526020015f205f8282546106bc9190611355565b925050819055508160055f8573ffffffffffffffffffffffffffffffffffffffff1673ffffffffffffffffffffffffffffffffffffffff1681526020019081526020015f205f82825461070f9190611388565b925050819055508160065f8673ffffffffffffffffffffffffffffffffffffffff1673ffffffffffffffffffffffffffffffffffffffff1681526020019081526020015f205f3373ffffffffffffffffffffffffffffffffffffffff1673ffffffffffffffffffffffffffffffffffffffff1681526020019081526020015f205f82825461079d9190611355565b925050819055508273ffffffffffffffffffffffffffffffffffffffff168473ffffffffffffffffffffffffffffffffffffffff167fddf252ad1be2c89b69c2b068fc378daa952ba7f163c4a11628f55a4df523b3ef84604051610801919061103a565b60405180910390a3600190509392505050565b60025f9054906101000a900460ff1681565b6127106109c4600161083891906113bb565b61084291906113bb565b81565b6005602052805f5260405f205f915090505481565b60045f9054906101000a900473ffffffffffffffffffffffffffffffffffffffff1681565b6001805461088c906111c0565b80601f01602080910402602001604051908101604052809291908181526020018280546108b8906111c0565b80156109035780601f106108da57610100808354040283529160200191610903565b820191905f5260205f20905b8154815290600101906020018083116108e657829003601f168201915b505050505081565b60045f9054906101000a900473ffffffffffffffffffffffffffffffffffffffff1673ffffffffffffffffffffffffffffffffffffffff163373ffffffffffffffffffffffffffffffffffffffff161461099a576040517f08c379a00000000000000000000000000000000000000000000000000000000081526004016109919061146c565b60405180910390fd5b8060035f8282546109ab9190611388565b925050819055508060055f60045f9054906101000a900473ffffffffffffffffffffffffffffffffffffffff1673ffffffffffffffffffffffffffffffffffffffff1673ffffffffffffffffffffffffffffffffffffffff1681526020019081526020015f205f828254610a1f9190611388565b9250508190555060045f9054906101000a900473ffffffffffffffffffffffffffffffffffffffff1673ffffffffffffffffffffffffffffffffffffffff165f73ffffffffffffffffffffffffffffffffffffffff167fddf252ad1be2c89b69c2b068fc378daa952ba7f163c4a11628f55a4df523b3ef83604051610aa4919061103a565b60405180910390a350565b5f8073ffffffffffffffffffffffffffffffffffffffff168373ffffffffffffffffffffffffffffffffffffffff1603610b1e576040517f08c379a0000000000000000000000000000000000000000000000000000000008152600401610b159061123a565b60405180910390fd5b8160055f3373ffffffffffffffffffffffffffffffffffffffff1673ffffffffffffffffffffffffffffffffffffffff1681526020019081526020015f20541015610b9e576040517f08c379a0000000000000000000000000000000000000000000000000000000008152600401610b95906112a2565b60405180910390fd5b8160055f3373ffffffffffffffffffffffffffffffffffffffff1673ffffffffffffffffffffffffffffffffffffffff1681526020019081526020015f205f828254610bea9190611355565b925050819055508160055f8573ffffffffffffffffffffffffffffffffffffffff1673ffffffffffffffffffffffffffffffffffffffff1681526020019081526020015f205f828254610c3d9190611388565b925050819055508273ffffffffffffffffffffffffffffffffffffffff163373ffffffffffffffffffffffffffffffffffffffff167fddf252ad1be2c89b69c2b068fc378daa952ba7f163c4a11628f55a4df523b3ef84604051610ca1919061103a565b60405180910390a36001905092915050565b6006602052815f5260405f20602052805f5260405f205f91509150505481565b6109c481565b60045f9054906101000a900473ffffffffffffffffffffffffffffffffffffffff1673ffffffffffffffffffffffffffffffffffffffff163373ffffffffffffffffffffffffffffffffffffffff1614610d68576040517f08c379a0000000000000000000000000000000000000000000000000000000008152600401610d5f9061146c565b60405180910390fd5b5f73ffffffffffffffffffffffffffffffffffffffff168173ffffffffffffffffffffffffffffffffffffffff1603610dd6576040517f08c379a0000000000000000000000000000000000000000000000000000000008152600401610dcd906114d4565b60405180910390fd5b8073ffffffffffffffffffffffffffffffffffffffff1660045f9054906101000a900473ffffffffffffffffffffffffffffffffffffffff1673ffffffffffffffffffffffffffffffffffffffff167f8be0079c531659141344cd1fd0a4f28419497f9722a3daafe3b4186f6b6457e060405160405180910390a38060045f6101000a81548173ffffffffffffffffffffffffffffffffffffffff021916908373ffffffffffffffffffffffffffffffffffffffff16021790555050565b600181565b5f81519050919050565b5f82825260208201905092915050565b8281835e5f83830152505050565b5f601f19601f8301169050919050565b5f610edb82610e99565b610ee58185610ea3565b9350610ef5818560208601610eb3565b610efe81610ec1565b840191505092915050565b5f6020820190508181035f830152610f218184610ed1565b905092915050565b5f80fd5b5f73ffffffffffffffffffffffffffffffffffffffff82169050919050565b5f610f5682610f2d565b9050919050565b610f6681610f4c565b8114610f70575f80fd5b50565b5f81359050610f8181610f5d565b92915050565b5f819050919050565b610f9981610f87565b8114610fa3575f80fd5b50565b5f81359050610fb481610f90565b92915050565b5f8060408385031215610fd057610fcf610f29565b5b5f610fdd85828601610f73565b9250506020610fee85828601610fa6565b9150509250929050565b5f8115159050919050565b61100c81610ff8565b82525050565b5f6020820190506110255f830184611003565b92915050565b61103481610f87565b82525050565b5f60208201905061104d5f83018461102b565b92915050565b5f805f6060848603121561106a57611069610f29565b5b5f61107786828701610f73565b935050602061108886828701610f73565b925050604061109986828701610fa6565b9150509250925092565b5f60ff82169050919050565b6110b8816110a3565b82525050565b5f6020820190506110d15f8301846110af565b92915050565b5f602082840312156110ec576110eb610f29565b5b5f6110f984828501610f73565b91505092915050565b61110b81610f4c565b82525050565b5f6020820190506111245f830184611102565b92915050565b5f6020828403121561113f5761113e610f29565b5b5f61114c84828501610fa6565b91505092915050565b5f806040838503121561116b5761116a610f29565b5b5f61117885828601610f73565b925050602061118985828601610f73565b9150509250929050565b7f4e487b71000000000000000000000000000000000000000000000000000000005f52602260045260245ffd5b5f60028204905060018216806111d757607f821691505b6020821081036111ea576111e9611193565b5b50919050565b7f496e76616c6964206164647265737300000000000000000000000000000000005f82015250565b5f611224600f83610ea3565b915061122f826111f0565b602082019050919050565b5f6020820190508181035f83015261125181611218565b9050919050565b7f496e73756666696369656e742062616c616e63650000000000000000000000005f82015250565b5f61128c601483610ea3565b915061129782611258565b602082019050919050565b5f6020820190508181035f8301526112b981611280565b9050919050565b7f416c6c6f77616e636520657863656564656400000000000000000000000000005f82015250565b5f6112f4601283610ea3565b91506112ff826112c0565b602082019050919050565b5f6020820190508181035f830152611321816112e8565b9050919050565b7f4e487b71000000000000000000000000000000000000000000000000000000005f52601160045260245ffd5b5f61135f82610f87565b915061136a83610f87565b925082820390508181111561138257611381611328565b5b92915050565b5f61139282610f87565b915061139d83610f87565b92508282019050808211156113b5576113b4611328565b5b92915050565b5f6113c582610f87565b91506113d083610f87565b92508282026113de81610f87565b915082820484148315176113f5576113f4611328565b5b5092915050565b7f4f6e6c79206f776e65722063616e20706572666f726d207468697320616374695f8201527f6f6e000000000000000000000000000000000000000000000000000000000000602082015250565b5f611456602283610ea3565b9150611461826113fc565b604082019050919050565b5f6020820190508181035f8301526114838161144a565b9050919050565b7f4e6577206f776e657220697320746865207a65726f20616464726573730000005f82015250565b5f6114be601d83610ea3565b91506114c98261148a565b602082019050919050565b5f6020820190508181035f8301526114eb816114b2565b905091905056fea26469706673582212201b16fae3c543f988f91a2e619b16024fa4bc412b56d011ece019961dedb1b02c64736f6c634300081a0033', \n     arguments: [\n     ]\n}).send({\n     from: web3.eth.accounts[0], \n     gas: '4700000'\n   }, function (e, contract){\n    console.log(e, contract);\n    if (typeof contract.address !== 'undefined') {\n         console.log('Contract mined! address: ' + contract.address + ' transactionHash: ' + contract.transactionHash);\n    }\n })",
	"functionHashes": {
		"dd62ed3e": "allowance(address,address)",
		"095ea7b3": "approve(address,uint256)",
		"70a08231": "balanceOf(address)",
		"313ce567": "decimals()",
		"ee2bdd48": "hectares()",
		"378dc3dc": "initialSupply()",
		"a0712d68": "mint(uint256)",
		"06fdde03": "name()",
		"8da5cb5b": "owner()",
		"f3e00728": "squareMetersPerToken()",
		"95d89b41": "symbol()",
		"18160ddd": "totalSupply()",
		"a9059cbb": "transfer(address,uint256)",
		"23b872dd": "transferFrom(address,address,uint256)",
		"f2fde38b": "transferOwnership(address)"
	},
	"gasEstimates": {
		"Creation": {
			"codeDepositCost": "1083200",
			"executionCost": "infinite",
			"totalCost": "infinite"
		},
		"External": {
			"allowance(address,address)": "infinite",
			"approve(address,uint256)": "infinite",
			"balanceOf(address)": "2891",
			"decimals()": "2511",
			"hectares()": "369",
			"initialSupply()": "infinite",
			"mint(uint256)": "infinite",
			"name()": "infinite",
			"owner()": "2531",
			"squareMetersPerToken()": "413",
			"symbol()": "infinite",
			"totalSupply()": "2493",
			"transfer(address,uint256)": "infinite",
			"transferFrom(address,address,uint256)": "infinite",
			"transferOwnership(address)": "30664"
		}
	},
	"devdoc": {
		"kind": "dev",
		"methods": {},
		"version": 1
	},
	"userdoc": {
		"kind": "user",
		"methods": {},
		"version": 1
	},
	"Runtime Bytecode": {
		"immutableReferences": {},
		"linkReferences": {},
		"object": "608060405234801561000f575f80fd5b50600436106100f3575f3560e01c80638da5cb5b11610095578063dd62ed3e11610064578063dd62ed3e14610287578063ee2bdd48146102b7578063f2fde38b146102d5578063f3e00728146102f1576100f3565b80638da5cb5b146101ff57806395d89b411461021d578063a0712d681461023b578063a9059cbb14610257576100f3565b806323b872dd116100d157806323b872dd14610163578063313ce56714610193578063378dc3dc146101b157806370a08231146101cf576100f3565b806306fdde03146100f7578063095ea7b31461011557806318160ddd14610145575b5f80fd5b6100ff61030f565b60405161010c9190610f09565b60405180910390f35b61012f600480360381019061012a9190610fba565b61039a565b60405161013c9190611012565b60405180910390f35b61014d610487565b60405161015a919061103a565b60405180910390f35b61017d60048036038101906101789190611053565b61048d565b60405161018a9190611012565b60405180910390f35b61019b610814565b6040516101a891906110be565b60405180910390f35b6101b9610826565b6040516101c6919061103a565b60405180910390f35b6101e960048036038101906101e491906110d7565b610845565b6040516101f6919061103a565b60405180910390f35b61020761085a565b6040516102149190611111565b60405180910390f35b61022561087f565b6040516102329190610f09565b60405180910390f35b6102556004803603810190610250919061112a565b61090b565b005b610271600480360381019061026c9190610fba565b610aaf565b60405161027e9190611012565b60405180910390f35b6102a1600480360381019061029c9190611155565b610cb3565b6040516102ae919061103a565b60405180910390f35b6102bf610cd3565b6040516102cc919061103a565b60405180910390f35b6102ef60048036038101906102ea91906110d7565b610cd9565b005b6102f9610e94565b604051610306919061103a565b60405180910390f35b5f805461031b906111c0565b80601f0160208091040260200160405190810160405280929190818152602001828054610347906111c0565b80156103925780601f1061036957610100808354040283529160200191610392565b820191905f5260205f20905b81548152906001019060200180831161037557829003601f168201915b505050505081565b5f8160065f3373ffffffffffffffffffffffffffffffffffffffff1673ffffffffffffffffffffffffffffffffffffffff1681526020019081526020015f205f8573ffffffffffffffffffffffffffffffffffffffff1673ffffffffffffffffffffffffffffffffffffffff1681526020019081526020015f20819055508273ffffffffffffffffffffffffffffffffffffffff163373ffffffffffffffffffffffffffffffffffffffff167f8c5be1e5ebec7d5bd14f71427d1e84f3dd0314c0f7b2291e5b200ac8c7c3b92584604051610475919061103a565b60405180910390a36001905092915050565b60035481565b5f8073ffffffffffffffffffffffffffffffffffffffff168473ffffffffffffffffffffffffffffffffffffffff16141580156104f657505f73ffffffffffffffffffffffffffffffffffffffff168373ffffffffffffffffffffffffffffffffffffffff1614155b610535576040517f08c379a000000000000000000000000000000000000000000000000000000000815260040161052c9061123a565b60405180910390fd5b8160055f8673ffffffffffffffffffffffffffffffffffffffff1673ffffffffffffffffffffffffffffffffffffffff1681526020019081526020015f205410156105b5576040517f08c379a00000000000000000000000000000000000000000000000000000000081526004016105ac906112a2565b60405180910390fd5b8160065f8673ffffffffffffffffffffffffffffffffffffffff1673ffffffffffffffffffffffffffffffffffffffff1681526020019081526020015f205f3373ffffffffffffffffffffffffffffffffffffffff1673ffffffffffffffffffffffffffffffffffffffff1681526020019081526020015f20541015610670576040517f08c379a00000000000000000000000000000000000000000000000000000000081526004016106679061130a565b60405180910390fd5b8160055f8673ffffffffffffffffffffffffffffffffffffffff1673ffffffffffffffffffffffffffffffffffffffff1681526020019081526020015f205f8282546106bc9190611355565b925050819055508160055f8573ffffffffffffffffffffffffffffffffffffffff1673ffffffffffffffffffffffffffffffffffffffff1681526020019081526020015f205f82825461070f9190611388565b925050819055508160065f8673ffffffffffffffffffffffffffffffffffffffff1673ffffffffffffffffffffffffffffffffffffffff1681526020019081526020015f205f3373ffffffffffffffffffffffffffffffffffffffff1673ffffffffffffffffffffffffffffffffffffffff1681526020019081526020015f205f82825461079d9190611355565b925050819055508273ffffffffffffffffffffffffffffffffffffffff168473ffffffffffffffffffffffffffffffffffffffff167fddf252ad1be2c89b69c2b068fc378daa952ba7f163c4a11628f55a4df523b3ef84604051610801919061103a565b60405180910390a3600190509392505050565b60025f9054906101000a900460ff1681565b6127106109c4600161083891906113bb565b61084291906113bb565b81565b6005602052805f5260405f205f915090505481565b60045f9054906101000a900473ffffffffffffffffffffffffffffffffffffffff1681565b6001805461088c906111c0565b80601f01602080910402602001604051908101604052809291908181526020018280546108b8906111c0565b80156109035780601f106108da57610100808354040283529160200191610903565b820191905f5260205f20905b8154815290600101906020018083116108e657829003601f168201915b505050505081565b60045f9054906101000a900473ffffffffffffffffffffffffffffffffffffffff1673ffffffffffffffffffffffffffffffffffffffff163373ffffffffffffffffffffffffffffffffffffffff161461099a576040517f08c379a00000000000000000000000000000000000000000000000000000000081526004016109919061146c565b60405180910390fd5b8060035f8282546109ab9190611388565b925050819055508060055f60045f9054906101000a900473ffffffffffffffffffffffffffffffffffffffff1673ffffffffffffffffffffffffffffffffffffffff1673ffffffffffffffffffffffffffffffffffffffff1681526020019081526020015f205f828254610a1f9190611388565b9250508190555060045f9054906101000a900473ffffffffffffffffffffffffffffffffffffffff1673ffffffffffffffffffffffffffffffffffffffff165f73ffffffffffffffffffffffffffffffffffffffff167fddf252ad1be2c89b69c2b068fc378daa952ba7f163c4a11628f55a4df523b3ef83604051610aa4919061103a565b60405180910390a350565b5f8073ffffffffffffffffffffffffffffffffffffffff168373ffffffffffffffffffffffffffffffffffffffff1603610b1e576040517f08c379a0000000000000000000000000000000000000000000000000000000008152600401610b159061123a565b60405180910390fd5b8160055f3373ffffffffffffffffffffffffffffffffffffffff1673ffffffffffffffffffffffffffffffffffffffff1681526020019081526020015f20541015610b9e576040517f08c379a0000000000000000000000000000000000000000000000000000000008152600401610b95906112a2565b60405180910390fd5b8160055f3373ffffffffffffffffffffffffffffffffffffffff1673ffffffffffffffffffffffffffffffffffffffff1681526020019081526020015f205f828254610bea9190611355565b925050819055508160055f8573ffffffffffffffffffffffffffffffffffffffff1673ffffffffffffffffffffffffffffffffffffffff1681526020019081526020015f205f828254610c3d9190611388565b925050819055508273ffffffffffffffffffffffffffffffffffffffff163373ffffffffffffffffffffffffffffffffffffffff167fddf252ad1be2c89b69c2b068fc378daa952ba7f163c4a11628f55a4df523b3ef84604051610ca1919061103a565b60405180910390a36001905092915050565b6006602052815f5260405f20602052805f5260405f205f91509150505481565b6109c481565b60045f9054906101000a900473ffffffffffffffffffffffffffffffffffffffff1673ffffffffffffffffffffffffffffffffffffffff163373ffffffffffffffffffffffffffffffffffffffff1614610d68576040517f08c379a0000000000000000000000000000000000000000000000000000000008152600401610d5f9061146c565b60405180910390fd5b5f73ffffffffffffffffffffffffffffffffffffffff168173ffffffffffffffffffffffffffffffffffffffff1603610dd6576040517f08c379a0000000000000000000000000000000000000000000000000000000008152600401610dcd906114d4565b60405180910390fd5b8073ffffffffffffffffffffffffffffffffffffffff1660045f9054906101000a900473ffffffffffffffffffffffffffffffffffffffff1673ffffffffffffffffffffffffffffffffffffffff167f8be0079c531659141344cd1fd0a4f28419497f9722a3daafe3b4186f6b6457e060405160405180910390a38060045f6101000a81548173ffffffffffffffffffffffffffffffffffffffff021916908373ffffffffffffffffffffffffffffffffffffffff16021790555050565b600181565b5f81519050919050565b5f82825260208201905092915050565b8281835e5f83830152505050565b5f601f19601f8301169050919050565b5f610edb82610e99565b610ee58185610ea3565b9350610ef5818560208601610eb3565b610efe81610ec1565b840191505092915050565b5f6020820190508181035f830152610f218184610ed1565b905092915050565b5f80fd5b5f73ffffffffffffffffffffffffffffffffffffffff82169050919050565b5f610f5682610f2d565b9050919050565b610f6681610f4c565b8114610f70575f80fd5b50565b5f81359050610f8181610f5d565b92915050565b5f819050919050565b610f9981610f87565b8114610fa3575f80fd5b50565b5f81359050610fb481610f90565b92915050565b5f8060408385031215610fd057610fcf610f29565b5b5f610fdd85828601610f73565b9250506020610fee85828601610fa6565b9150509250929050565b5f8115159050919050565b61100c81610ff8565b82525050565b5f6020820190506110255f830184611003565b92915050565b61103481610f87565b82525050565b5f60208201905061104d5f83018461102b565b92915050565b5f805f6060848603121561106a57611069610f29565b5b5f61107786828701610f73565b935050602061108886828701610f73565b925050604061109986828701610fa6565b9150509250925092565b5f60ff82169050919050565b6110b8816110a3565b82525050565b5f6020820190506110d15f8301846110af565b92915050565b5f602082840312156110ec576110eb610f29565b5b5f6110f984828501610f73565b91505092915050565b61110b81610f4c565b82525050565b5f6020820190506111245f830184611102565b92915050565b5f6020828403121561113f5761113e610f29565b5b5f61114c84828501610fa6565b91505092915050565b5f806040838503121561116b5761116a610f29565b5b5f61117885828601610f73565b925050602061118985828601610f73565b9150509250929050565b7f4e487b71000000000000000000000000000000000000000000000000000000005f52602260045260245ffd5b5f60028204905060018216806111d757607f821691505b6020821081036111ea576111e9611193565b5b50919050565b7f496e76616c6964206164647265737300000000000000000000000000000000005f82015250565b5f611224600f83610ea3565b915061122f826111f0565b602082019050919050565b5f6020820190508181035f83015261125181611218565b9050919050565b7f496e73756666696369656e742062616c616e63650000000000000000000000005f82015250565b5f61128c601483610ea3565b915061129782611258565b602082019050919050565b5f6020820190508181035f8301526112b981611280565b9050919050565b7f416c6c6f77616e636520657863656564656400000000000000000000000000005f82015250565b5f6112f4601283610ea3565b91506112ff826112c0565b602082019050919050565b5f6020820190508181035f830152611321816112e8565b9050919050565b7f4e487b71000000000000000000000000000000000000000000000000000000005f52601160045260245ffd5b5f61135f82610f87565b915061136a83610f87565b925082820390508181111561138257611381611328565b5b92915050565b5f61139282610f87565b915061139d83610f87565b92508282019050808211156113b5576113b4611328565b5b92915050565b5f6113c582610f87565b91506113d083610f87565b92508282026113de81610f87565b915082820484148315176113f5576113f4611328565b5b5092915050565b7f4f6e6c79206f776e65722063616e20706572666f726d207468697320616374695f8201527f6f6e000000000000000000000000000000000000000000000000000000000000602082015250565b5f611456602283610ea3565b9150611461826113fc565b604082019050919050565b5f6020820190508181035f8301526114838161144a565b9050919050565b7f4e6577206f776e657220697320746865207a65726f20616464726573730000005f82015250565b5f6114be601d83610ea3565b91506114c98261148a565b602082019050919050565b5f6020820190508181035f8301526114eb816114b2565b905091905056fea26469706673582212201b16fae3c543f988f91a2e619b16024fa4bc412b56d011ece019961dedb1b02c64736f6c634300081a0033",
		"opcodes": "PUSH1 0x80 PUSH1 0x40 MSTORE CALLVALUE DUP1 ISZERO PUSH2 0xF JUMPI PUSH0 DUP1 REVERT JUMPDEST POP PUSH1 0x4 CALLDATASIZE LT PUSH2 0xF3 JUMPI PUSH0 CALLDATALOAD PUSH1 0xE0 SHR DUP1 PUSH4 0x8DA5CB5B GT PUSH2 0x95 JUMPI DUP1 PUSH4 0xDD62ED3E GT PUSH2 0x64 JUMPI DUP1 PUSH4 0xDD62ED3E EQ PUSH2 0x287 JUMPI DUP1 PUSH4 0xEE2BDD48 EQ PUSH2 0x2B7 JUMPI DUP1 PUSH4 0xF2FDE38B EQ PUSH2 0x2D5 JUMPI DUP1 PUSH4 0xF3E00728 EQ PUSH2 0x2F1 JUMPI PUSH2 0xF3 JUMP JUMPDEST DUP1 PUSH4 0x8DA5CB5B EQ PUSH2 0x1FF JUMPI DUP1 PUSH4 0x95D89B41 EQ PUSH2 0x21D JUMPI DUP1 PUSH4 0xA0712D68 EQ PUSH2 0x23B JUMPI DUP1 PUSH4 0xA9059CBB EQ PUSH2 0x257 JUMPI PUSH2 0xF3 JUMP JUMPDEST DUP1 PUSH4 0x23B872DD GT PUSH2 0xD1 JUMPI DUP1 PUSH4 0x23B872DD EQ PUSH2 0x163 JUMPI DUP1 PUSH4 0x313CE567 EQ PUSH2 0x193 JUMPI DUP1 PUSH4 0x378DC3DC EQ PUSH2 0x1B1 JUMPI DUP1 PUSH4 0x70A08231 EQ PUSH2 0x1CF JUMPI PUSH2 0xF3 JUMP JUMPDEST DUP1 PUSH4 0x6FDDE03 EQ PUSH2 0xF7 JUMPI DUP1 PUSH4 0x95EA7B3 EQ PUSH2 0x115 JUMPI DUP1 PUSH4 0x18160DDD EQ PUSH2 0x145 JUMPI JUMPDEST PUSH0 DUP1 REVERT JUMPDEST PUSH2 0xFF PUSH2 0x30F JUMP JUMPDEST PUSH1 0x40 MLOAD PUSH2 0x10C SWAP2 SWAP1 PUSH2 0xF09 JUMP JUMPDEST PUSH1 0x40 MLOAD DUP1 SWAP2 SUB SWAP1 RETURN JUMPDEST PUSH2 0x12F PUSH1 0x4 DUP1 CALLDATASIZE SUB DUP2 ADD SWAP1 PUSH2 0x12A SWAP2 SWAP1 PUSH2 0xFBA JUMP JUMPDEST PUSH2 0x39A JUMP JUMPDEST PUSH1 0x40 MLOAD PUSH2 0x13C SWAP2 SWAP1 PUSH2 0x1012 JUMP JUMPDEST PUSH1 0x40 MLOAD DUP1 SWAP2 SUB SWAP1 RETURN JUMPDEST PUSH2 0x14D PUSH2 0x487 JUMP JUMPDEST PUSH1 0x40 MLOAD PUSH2 0x15A SWAP2 SWAP1 PUSH2 0x103A JUMP JUMPDEST PUSH1 0x40 MLOAD DUP1 SWAP2 SUB SWAP1 RETURN JUMPDEST PUSH2 0x17D PUSH1 0x4 DUP1 CALLDATASIZE SUB DUP2 ADD SWAP1 PUSH2 0x178 SWAP2 SWAP1 PUSH2 0x1053 JUMP JUMPDEST PUSH2 0x48D JUMP JUMPDEST PUSH1 0x40 MLOAD PUSH2 0x18A SWAP2 SWAP1 PUSH2 0x1012 JUMP JUMPDEST PUSH1 0x40 MLOAD DUP1 SWAP2 SUB SWAP1 RETURN JUMPDEST PUSH2 0x19B PUSH2 0x814 JUMP JUMPDEST PUSH1 0x40 MLOAD PUSH2 0x1A8 SWAP2 SWAP1 PUSH2 0x10BE JUMP JUMPDEST PUSH1 0x40 MLOAD DUP1 SWAP2 SUB SWAP1 RETURN JUMPDEST PUSH2 0x1B9 PUSH2 0x826 JUMP JUMPDEST PUSH1 0x40 MLOAD PUSH2 0x1C6 SWAP2 SWAP1 PUSH2 0x103A JUMP JUMPDEST PUSH1 0x40 MLOAD DUP1 SWAP2 SUB SWAP1 RETURN JUMPDEST PUSH2 0x1E9 PUSH1 0x4 DUP1 CALLDATASIZE SUB DUP2 ADD SWAP1 PUSH2 0x1E4 SWAP2 SWAP1 PUSH2 0x10D7 JUMP JUMPDEST PUSH2 0x845 JUMP JUMPDEST PUSH1 0x40 MLOAD PUSH2 0x1F6 SWAP2 SWAP1 PUSH2 0x103A JUMP JUMPDEST PUSH1 0x40 MLOAD DUP1 SWAP2 SUB SWAP1 RETURN JUMPDEST PUSH2 0x207 PUSH2 0x85A JUMP JUMPDEST PUSH1 0x40 MLOAD PUSH2 0x214 SWAP2 SWAP1 PUSH2 0x1111 JUMP JUMPDEST PUSH1 0x40 MLOAD DUP1 SWAP2 SUB SWAP1 RETURN JUMPDEST PUSH2 0x225 PUSH2 0x87F JUMP JUMPDEST PUSH1 0x40 MLOAD PUSH2 0x232 SWAP2 SWAP1 PUSH2 0xF09 JUMP JUMPDEST PUSH1 0x40 MLOAD DUP1 SWAP2 SUB SWAP1 RETURN JUMPDEST PUSH2 0x255 PUSH1 0x4 DUP1 CALLDATASIZE SUB DUP2 ADD SWAP1 PUSH2 0x250 SWAP2 SWAP1 PUSH2 0x112A JUMP JUMPDEST PUSH2 0x90B JUMP JUMPDEST STOP JUMPDEST PUSH2 0x271 PUSH1 0x4 DUP1 CALLDATASIZE SUB DUP2 ADD SWAP1 PUSH2 0x26C SWAP2 SWAP1 PUSH2 0xFBA JUMP JUMPDEST PUSH2 0xAAF JUMP JUMPDEST PUSH1 0x40 MLOAD PUSH2 0x27E SWAP2 SWAP1 PUSH2 0x1012 JUMP JUMPDEST PUSH1 0x40 MLOAD DUP1 SWAP2 SUB SWAP1 RETURN JUMPDEST PUSH2 0x2A1 PUSH1 0x4 DUP1 CALLDATASIZE SUB DUP2 ADD SWAP1 PUSH2 0x29C SWAP2 SWAP1 PUSH2 0x1155 JUMP JUMPDEST PUSH2 0xCB3 JUMP JUMPDEST PUSH1 0x40 MLOAD PUSH2 0x2AE SWAP2 SWAP1 PUSH2 0x103A JUMP JUMPDEST PUSH1 0x40 MLOAD DUP1 SWAP2 SUB SWAP1 RETURN JUMPDEST PUSH2 0x2BF PUSH2 0xCD3 JUMP JUMPDEST PUSH1 0x40 MLOAD PUSH2 0x2CC SWAP2 SWAP1 PUSH2 0x103A JUMP JUMPDEST PUSH1 0x40 MLOAD DUP1 SWAP2 SUB SWAP1 RETURN JUMPDEST PUSH2 0x2EF PUSH1 0x4 DUP1 CALLDATASIZE SUB DUP2 ADD SWAP1 PUSH2 0x2EA SWAP2 SWAP1 PUSH2 0x10D7 JUMP JUMPDEST PUSH2 0xCD9 JUMP JUMPDEST STOP JUMPDEST PUSH2 0x2F9 PUSH2 0xE94 JUMP JUMPDEST PUSH1 0x40 MLOAD PUSH2 0x306 SWAP2 SWAP1 PUSH2 0x103A JUMP JUMPDEST PUSH1 0x40 MLOAD DUP1 SWAP2 SUB SWAP1 RETURN JUMPDEST PUSH0 DUP1 SLOAD PUSH2 0x31B SWAP1 PUSH2 0x11C0 JUMP JUMPDEST DUP1 PUSH1 0x1F ADD PUSH1 0x20 DUP1 SWAP2 DIV MUL PUSH1 0x20 ADD PUSH1 0x40 MLOAD SWAP1 DUP2 ADD PUSH1 0x40 MSTORE DUP1 SWAP3 SWAP2 SWAP1 DUP2 DUP2 MSTORE PUSH1 0x20 ADD DUP3 DUP1 SLOAD PUSH2 0x347 SWAP1 PUSH2 0x11C0 JUMP JUMPDEST DUP1 ISZERO PUSH2 0x392 JUMPI DUP1 PUSH1 0x1F LT PUSH2 0x369 JUMPI PUSH2 0x100 DUP1 DUP4 SLOAD DIV MUL DUP4 MSTORE SWAP2 PUSH1 0x20 ADD SWAP2 PUSH2 0x392 JUMP JUMPDEST DUP3 ADD SWAP2 SWAP1 PUSH0 MSTORE PUSH1 0x20 PUSH0 KECCAK256 SWAP1 JUMPDEST DUP2 SLOAD DUP2 MSTORE SWAP1 PUSH1 0x1 ADD SWAP1 PUSH1 0x20 ADD DUP1 DUP4 GT PUSH2 0x375 JUMPI DUP3 SWAP1 SUB PUSH1 0x1F AND DUP3 ADD SWAP2 JUMPDEST POP POP POP POP POP DUP2 JUMP JUMPDEST PUSH0 DUP2 PUSH1 0x6 PUSH0 CALLER PUSH20 0xFFFFFFFFFFFFFFFFFFFFFFFFFFFFFFFFFFFFFFFF AND PUSH20 0xFFFFFFFFFFFFFFFFFFFFFFFFFFFFFFFFFFFFFFFF AND DUP2 MSTORE PUSH1 0x20 ADD SWAP1 DUP2 MSTORE PUSH1 0x20 ADD PUSH0 KECCAK256 PUSH0 DUP6 PUSH20 0xFFFFFFFFFFFFFFFFFFFFFFFFFFFFFFFFFFFFFFFF AND PUSH20 0xFFFFFFFFFFFFFFFFFFFFFFFFFFFFFFFFFFFFFFFF AND DUP2 MSTORE PUSH1 0x20 ADD SWAP1 DUP2 MSTORE PUSH1 0x20 ADD PUSH0 KECCAK256 DUP2 SWAP1 SSTORE POP DUP3 PUSH20 0xFFFFFFFFFFFFFFFFFFFFFFFFFFFFFFFFFFFFFFFF AND CALLER PUSH20 0xFFFFFFFFFFFFFFFFFFFFFFFFFFFFFFFFFFFFFFFF AND PUSH32 0x8C5BE1E5EBEC7D5BD14F71427D1E84F3DD0314C0F7B2291E5B200AC8C7C3B925 DUP5 PUSH1 0x40 MLOAD PUSH2 0x475 SWAP2 SWAP1 PUSH2 0x103A JUMP JUMPDEST PUSH1 0x40 MLOAD DUP1 SWAP2 SUB SWAP1 LOG3 PUSH1 0x1 SWAP1 POP SWAP3 SWAP2 POP POP JUMP JUMPDEST PUSH1 0x3 SLOAD DUP2 JUMP JUMPDEST PUSH0 DUP1 PUSH20 0xFFFFFFFFFFFFFFFFFFFFFFFFFFFFFFFFFFFFFFFF AND DUP5 PUSH20 0xFFFFFFFFFFFFFFFFFFFFFFFFFFFFFFFFFFFFFFFF AND EQ ISZERO DUP1 ISZERO PUSH2 0x4F6 JUMPI POP PUSH0 PUSH20 0xFFFFFFFFFFFFFFFFFFFFFFFFFFFFFFFFFFFFFFFF AND DUP4 PUSH20 0xFFFFFFFFFFFFFFFFFFFFFFFFFFFFFFFFFFFFFFFF AND EQ ISZERO JUMPDEST PUSH2 0x535 JUMPI PUSH1 0x40 MLOAD PUSH32 0x8C379A000000000000000000000000000000000000000000000000000000000 DUP2 MSTORE PUSH1 0x4 ADD PUSH2 0x52C SWAP1 PUSH2 0x123A JUMP JUMPDEST PUSH1 0x40 MLOAD DUP1 SWAP2 SUB SWAP1 REVERT JUMPDEST DUP2 PUSH1 0x5 PUSH0 DUP7 PUSH20 0xFFFFFFFFFFFFFFFFFFFFFFFFFFFFFFFFFFFFFFFF AND PUSH20 0xFFFFFFFFFFFFFFFFFFFFFFFFFFFFFFFFFFFFFFFF AND DUP2 MSTORE PUSH1 0x20 ADD SWAP1 DUP2 MSTORE PUSH1 0x20 ADD PUSH0 KECCAK256 SLOAD LT ISZERO PUSH2 0x5B5 JUMPI PUSH1 0x40 MLOAD PUSH32 0x8C379A000000000000000000000000000000000000000000000000000000000 DUP2 MSTORE PUSH1 0x4 ADD PUSH2 0x5AC SWAP1 PUSH2 0x12A2 JUMP JUMPDEST PUSH1 0x40 MLOAD DUP1 SWAP2 SUB SWAP1 REVERT JUMPDEST DUP2 PUSH1 0x6 PUSH0 DUP7 PUSH20 0xFFFFFFFFFFFFFFFFFFFFFFFFFFFFFFFFFFFFFFFF AND PUSH20 0xFFFFFFFFFFFFFFFFFFFFFFFFFFFFFFFFFFFFFFFF AND DUP2 MSTORE PUSH1 0x20 ADD SWAP1 DUP2 MSTORE PUSH1 0x20 ADD PUSH0 KECCAK256 PUSH0 CALLER PUSH20 0xFFFFFFFFFFFFFFFFFFFFFFFFFFFFFFFFFFFFFFFF AND PUSH20 0xFFFFFFFFFFFFFFFFFFFFFFFFFFFFFFFFFFFFFFFF AND DUP2 MSTORE PUSH1 0x20 ADD SWAP1 DUP2 MSTORE PUSH1 0x20 ADD PUSH0 KECCAK256 SLOAD LT ISZERO PUSH2 0x670 JUMPI PUSH1 0x40 MLOAD PUSH32 0x8C379A000000000000000000000000000000000000000000000000000000000 DUP2 MSTORE PUSH1 0x4 ADD PUSH2 0x667 SWAP1 PUSH2 0x130A JUMP JUMPDEST PUSH1 0x40 MLOAD DUP1 SWAP2 SUB SWAP1 REVERT JUMPDEST DUP2 PUSH1 0x5 PUSH0 DUP7 PUSH20 0xFFFFFFFFFFFFFFFFFFFFFFFFFFFFFFFFFFFFFFFF AND PUSH20 0xFFFFFFFFFFFFFFFFFFFFFFFFFFFFFFFFFFFFFFFF AND DUP2 MSTORE PUSH1 0x20 ADD SWAP1 DUP2 MSTORE PUSH1 0x20 ADD PUSH0 KECCAK256 PUSH0 DUP3 DUP3 SLOAD PUSH2 0x6BC SWAP2 SWAP1 PUSH2 0x1355 JUMP JUMPDEST SWAP3 POP POP DUP2 SWAP1 SSTORE POP DUP2 PUSH1 0x5 PUSH0 DUP6 PUSH20 0xFFFFFFFFFFFFFFFFFFFFFFFFFFFFFFFFFFFFFFFF AND PUSH20 0xFFFFFFFFFFFFFFFFFFFFFFFFFFFFFFFFFFFFFFFF AND DUP2 MSTORE PUSH1 0x20 ADD SWAP1 DUP2 MSTORE PUSH1 0x20 ADD PUSH0 KECCAK256 PUSH0 DUP3 DUP3 SLOAD PUSH2 0x70F SWAP2 SWAP1 PUSH2 0x1388 JUMP JUMPDEST SWAP3 POP POP DUP2 SWAP1 SSTORE POP DUP2 PUSH1 0x6 PUSH0 DUP7 PUSH20 0xFFFFFFFFFFFFFFFFFFFFFFFFFFFFFFFFFFFFFFFF AND PUSH20 0xFFFFFFFFFFFFFFFFFFFFFFFFFFFFFFFFFFFFFFFF AND DUP2 MSTORE PUSH1 0x20 ADD SWAP1 DUP2 MSTORE PUSH1 0x20 ADD PUSH0 KECCAK256 PUSH0 CALLER PUSH20 0xFFFFFFFFFFFFFFFFFFFFFFFFFFFFFFFFFFFFFFFF AND PUSH20 0xFFFFFFFFFFFFFFFFFFFFFFFFFFFFFFFFFFFFFFFF AND DUP2 MSTORE PUSH1 0x20 ADD SWAP1 DUP2 MSTORE PUSH1 0x20 ADD PUSH0 KECCAK256 PUSH0 DUP3 DUP3 SLOAD PUSH2 0x79D SWAP2 SWAP1 PUSH2 0x1355 JUMP JUMPDEST SWAP3 POP POP DUP2 SWAP1 SSTORE POP DUP3 PUSH20 0xFFFFFFFFFFFFFFFFFFFFFFFFFFFFFFFFFFFFFFFF AND DUP5 PUSH20 0xFFFFFFFFFFFFFFFFFFFFFFFFFFFFFFFFFFFFFFFF AND PUSH32 0xDDF252AD1BE2C89B69C2B068FC378DAA952BA7F163C4A11628F55A4DF523B3EF DUP5 PUSH1 0x40 MLOAD PUSH2 0x801 SWAP2 SWAP1 PUSH2 0x103A JUMP JUMPDEST PUSH1 0x40 MLOAD DUP1 SWAP2 SUB SWAP1 LOG3 PUSH1 0x1 SWAP1 POP SWAP4 SWAP3 POP POP POP JUMP JUMPDEST PUSH1 0x2 PUSH0 SWAP1 SLOAD SWAP1 PUSH2 0x100 EXP SWAP1 DIV PUSH1 0xFF AND DUP2 JUMP JUMPDEST PUSH2 0x2710 PUSH2 0x9C4 PUSH1 0x1 PUSH2 0x838 SWAP2 SWAP1 PUSH2 0x13BB JUMP JUMPDEST PUSH2 0x842 SWAP2 SWAP1 PUSH2 0x13BB JUMP JUMPDEST DUP2 JUMP JUMPDEST PUSH1 0x5 PUSH1 0x20 MSTORE DUP1 PUSH0 MSTORE PUSH1 0x40 PUSH0 KECCAK256 PUSH0 SWAP2 POP SWAP1 POP SLOAD DUP2 JUMP JUMPDEST PUSH1 0x4 PUSH0 SWAP1 SLOAD SWAP1 PUSH2 0x100 EXP SWAP1 DIV PUSH20 0xFFFFFFFFFFFFFFFFFFFFFFFFFFFFFFFFFFFFFFFF AND DUP2 JUMP JUMPDEST PUSH1 0x1 DUP1 SLOAD PUSH2 0x88C SWAP1 PUSH2 0x11C0 JUMP JUMPDEST DUP1 PUSH1 0x1F ADD PUSH1 0x20 DUP1 SWAP2 DIV MUL PUSH1 0x20 ADD PUSH1 0x40 MLOAD SWAP1 DUP2 ADD PUSH1 0x40 MSTORE DUP1 SWAP3 SWAP2 SWAP1 DUP2 DUP2 MSTORE PUSH1 0x20 ADD DUP3 DUP1 SLOAD PUSH2 0x8B8 SWAP1 PUSH2 0x11C0 JUMP JUMPDEST DUP1 ISZERO PUSH2 0x903 JUMPI DUP1 PUSH1 0x1F LT PUSH2 0x8DA JUMPI PUSH2 0x100 DUP1 DUP4 SLOAD DIV MUL DUP4 MSTORE SWAP2 PUSH1 0x20 ADD SWAP2 PUSH2 0x903 JUMP JUMPDEST DUP3 ADD SWAP2 SWAP1 PUSH0 MSTORE PUSH1 0x20 PUSH0 KECCAK256 SWAP1 JUMPDEST DUP2 SLOAD DUP2 MSTORE SWAP1 PUSH1 0x1 ADD SWAP1 PUSH1 0x20 ADD DUP1 DUP4 GT PUSH2 0x8E6 JUMPI DUP3 SWAP1 SUB PUSH1 0x1F AND DUP3 ADD SWAP2 JUMPDEST POP POP POP POP POP DUP2 JUMP JUMPDEST PUSH1 0x4 PUSH0 SWAP1 SLOAD SWAP1 PUSH2 0x100 EXP SWAP1 DIV PUSH20 0xFFFFFFFFFFFFFFFFFFFFFFFFFFFFFFFFFFFFFFFF AND PUSH20 0xFFFFFFFFFFFFFFFFFFFFFFFFFFFFFFFFFFFFFFFF AND CALLER PUSH20 0xFFFFFFFFFFFFFFFFFFFFFFFFFFFFFFFFFFFFFFFF AND EQ PUSH2 0x99A JUMPI PUSH1 0x40 MLOAD PUSH32 0x8C379A000000000000000000000000000000000000000000000000000000000 DUP2 MSTORE PUSH1 0x4 ADD PUSH2 0x991 SWAP1 PUSH2 0x146C JUMP JUMPDEST PUSH1 0x40 MLOAD DUP1 SWAP2 SUB SWAP1 REVERT JUMPDEST DUP1 PUSH1 0x3 PUSH0 DUP3 DUP3 SLOAD PUSH2 0x9AB SWAP2 SWAP1 PUSH2 0x1388 JUMP JUMPDEST SWAP3 POP POP DUP2 SWAP1 SSTORE POP DUP1 PUSH1 0x5 PUSH0 PUSH1 0x4 PUSH0 SWAP1 SLOAD SWAP1 PUSH2 0x100 EXP SWAP1 DIV PUSH20 0xFFFFFFFFFFFFFFFFFFFFFFFFFFFFFFFFFFFFFFFF AND PUSH20 0xFFFFFFFFFFFFFFFFFFFFFFFFFFFFFFFFFFFFFFFF AND PUSH20 0xFFFFFFFFFFFFFFFFFFFFFFFFFFFFFFFFFFFFFFFF AND DUP2 MSTORE PUSH1 0x20 ADD SWAP1 DUP2 MSTORE PUSH1 0x20 ADD PUSH0 KECCAK256 PUSH0 DUP3 DUP3 SLOAD PUSH2 0xA1F SWAP2 SWAP1 PUSH2 0x1388 JUMP JUMPDEST SWAP3 POP POP DUP2 SWAP1 SSTORE POP PUSH1 0x4 PUSH0 SWAP1 SLOAD SWAP1 PUSH2 0x100 EXP SWAP1 DIV PUSH20 0xFFFFFFFFFFFFFFFFFFFFFFFFFFFFFFFFFFFFFFFF AND PUSH20 0xFFFFFFFFFFFFFFFFFFFFFFFFFFFFFFFFFFFFFFFF AND PUSH0 PUSH20 0xFFFFFFFFFFFFFFFFFFFFFFFFFFFFFFFFFFFFFFFF AND PUSH32 0xDDF252AD1BE2C89B69C2B068FC378DAA952BA7F163C4A11628F55A4DF523B3EF DUP4 PUSH1 0x40 MLOAD PUSH2 0xAA4 SWAP2 SWAP1 PUSH2 0x103A JUMP JUMPDEST PUSH1 0x40 MLOAD DUP1 SWAP2 SUB SWAP1 LOG3 POP JUMP JUMPDEST PUSH0 DUP1 PUSH20 0xFFFFFFFFFFFFFFFFFFFFFFFFFFFFFFFFFFFFFFFF AND DUP4 PUSH20 0xFFFFFFFFFFFFFFFFFFFFFFFFFFFFFFFFFFFFFFFF AND SUB PUSH2 0xB1E JUMPI PUSH1 0x40 MLOAD PUSH32 0x8C379A000000000000000000000000000000000000000000000000000000000 DUP2 MSTORE PUSH1 0x4 ADD PUSH2 0xB15 SWAP1 PUSH2 0x123A JUMP JUMPDEST PUSH1 0x40 MLOAD DUP1 SWAP2 SUB SWAP1 REVERT JUMPDEST DUP2 PUSH1 0x5 PUSH0 CALLER PUSH20 0xFFFFFFFFFFFFFFFFFFFFFFFFFFFFFFFFFFFFFFFF AND PUSH20 0xFFFFFFFFFFFFFFFFFFFFFFFFFFFFFFFFFFFFFFFF AND DUP2 MSTORE PUSH1 0x20 ADD SWAP1 DUP2 MSTORE PUSH1 0x20 ADD PUSH0 KECCAK256 SLOAD LT ISZERO PUSH2 0xB9E JUMPI PUSH1 0x40 MLOAD PUSH32 0x8C379A000000000000000000000000000000000000000000000000000000000 DUP2 MSTORE PUSH1 0x4 ADD PUSH2 0xB95 SWAP1 PUSH2 0x12A2 JUMP JUMPDEST PUSH1 0x40 MLOAD DUP1 SWAP2 SUB SWAP1 REVERT JUMPDEST DUP2 PUSH1 0x5 PUSH0 CALLER PUSH20 0xFFFFFFFFFFFFFFFFFFFFFFFFFFFFFFFFFFFFFFFF AND PUSH20 0xFFFFFFFFFFFFFFFFFFFFFFFFFFFFFFFFFFFFFFFF AND DUP2 MSTORE PUSH1 0x20 ADD SWAP1 DUP2 MSTORE PUSH1 0x20 ADD PUSH0 KECCAK256 PUSH0 DUP3 DUP3 SLOAD PUSH2 0xBEA SWAP2 SWAP1 PUSH2 0x1355 JUMP JUMPDEST SWAP3 POP POP DUP2 SWAP1 SSTORE POP DUP2 PUSH1 0x5 PUSH0 DUP6 PUSH20 0xFFFFFFFFFFFFFFFFFFFFFFFFFFFFFFFFFFFFFFFF AND PUSH20 0xFFFFFFFFFFFFFFFFFFFFFFFFFFFFFFFFFFFFFFFF AND DUP2 MSTORE PUSH1 0x20 ADD SWAP1 DUP2 MSTORE PUSH1 0x20 ADD PUSH0 KECCAK256 PUSH0 DUP3 DUP3 SLOAD PUSH2 0xC3D SWAP2 SWAP1 PUSH2 0x1388 JUMP JUMPDEST SWAP3 POP POP DUP2 SWAP1 SSTORE POP DUP3 PUSH20 0xFFFFFFFFFFFFFFFFFFFFFFFFFFFFFFFFFFFFFFFF AND CALLER PUSH20 0xFFFFFFFFFFFFFFFFFFFFFFFFFFFFFFFFFFFFFFFF AND PUSH32 0xDDF252AD1BE2C89B69C2B068FC378DAA952BA7F163C4A11628F55A4DF523B3EF DUP5 PUSH1 0x40 MLOAD PUSH2 0xCA1 SWAP2 SWAP1 PUSH2 0x103A JUMP JUMPDEST PUSH1 0x40 MLOAD DUP1 SWAP2 SUB SWAP1 LOG3 PUSH1 0x1 SWAP1 POP SWAP3 SWAP2 POP POP JUMP JUMPDEST PUSH1 0x6 PUSH1 0x20 MSTORE DUP2 PUSH0 MSTORE PUSH1 0x40 PUSH0 KECCAK256 PUSH1 0x20 MSTORE DUP1 PUSH0 MSTORE PUSH1 0x40 PUSH0 KECCAK256 PUSH0 SWAP2 POP SWAP2 POP POP SLOAD DUP2 JUMP JUMPDEST PUSH2 0x9C4 DUP2 JUMP JUMPDEST PUSH1 0x4 PUSH0 SWAP1 SLOAD SWAP1 PUSH2 0x100 EXP SWAP1 DIV PUSH20 0xFFFFFFFFFFFFFFFFFFFFFFFFFFFFFFFFFFFFFFFF AND PUSH20 0xFFFFFFFFFFFFFFFFFFFFFFFFFFFFFFFFFFFFFFFF AND CALLER PUSH20 0xFFFFFFFFFFFFFFFFFFFFFFFFFFFFFFFFFFFFFFFF AND EQ PUSH2 0xD68 JUMPI PUSH1 0x40 MLOAD PUSH32 0x8C379A000000000000000000000000000000000000000000000000000000000 DUP2 MSTORE PUSH1 0x4 ADD PUSH2 0xD5F SWAP1 PUSH2 0x146C JUMP JUMPDEST PUSH1 0x40 MLOAD DUP1 SWAP2 SUB SWAP1 REVERT JUMPDEST PUSH0 PUSH20 0xFFFFFFFFFFFFFFFFFFFFFFFFFFFFFFFFFFFFFFFF AND DUP2 PUSH20 0xFFFFFFFFFFFFFFFFFFFFFFFFFFFFFFFFFFFFFFFF AND SUB PUSH2 0xDD6 JUMPI PUSH1 0x40 MLOAD PUSH32 0x8C379A000000000000000000000000000000000000000000000000000000000 DUP2 MSTORE PUSH1 0x4 ADD PUSH2 0xDCD SWAP1 PUSH2 0x14D4 JUMP JUMPDEST PUSH1 0x40 MLOAD DUP1 SWAP2 SUB SWAP1 REVERT JUMPDEST DUP1 PUSH20 0xFFFFFFFFFFFFFFFFFFFFFFFFFFFFFFFFFFFFFFFF AND PUSH1 0x4 PUSH0 SWAP1 SLOAD SWAP1 PUSH2 0x100 EXP SWAP1 DIV PUSH20 0xFFFFFFFFFFFFFFFFFFFFFFFFFFFFFFFFFFFFFFFF AND PUSH20 0xFFFFFFFFFFFFFFFFFFFFFFFFFFFFFFFFFFFFFFFF AND PUSH32 0x8BE0079C531659141344CD1FD0A4F28419497F9722A3DAAFE3B4186F6B6457E0 PUSH1 0x40 MLOAD PUSH1 0x40 MLOAD DUP1 SWAP2 SUB SWAP1 LOG3 DUP1 PUSH1 0x4 PUSH0 PUSH2 0x100 EXP DUP2 SLOAD DUP2 PUSH20 0xFFFFFFFFFFFFFFFFFFFFFFFFFFFFFFFFFFFFFFFF MUL NOT AND SWAP1 DUP4 PUSH20 0xFFFFFFFFFFFFFFFFFFFFFFFFFFFFFFFFFFFFFFFF AND MUL OR SWAP1 SSTORE POP POP JUMP JUMPDEST PUSH1 0x1 DUP2 JUMP JUMPDEST PUSH0 DUP2 MLOAD SWAP1 POP SWAP2 SWAP1 POP JUMP JUMPDEST PUSH0 DUP3 DUP3 MSTORE PUSH1 0x20 DUP3 ADD SWAP1 POP SWAP3 SWAP2 POP POP JUMP JUMPDEST DUP3 DUP2 DUP4 MCOPY PUSH0 DUP4 DUP4 ADD MSTORE POP POP POP JUMP JUMPDEST PUSH0 PUSH1 0x1F NOT PUSH1 0x1F DUP4 ADD AND SWAP1 POP SWAP2 SWAP1 POP JUMP JUMPDEST PUSH0 PUSH2 0xEDB DUP3 PUSH2 0xE99 JUMP JUMPDEST PUSH2 0xEE5 DUP2 DUP6 PUSH2 0xEA3 JUMP JUMPDEST SWAP4 POP PUSH2 0xEF5 DUP2 DUP6 PUSH1 0x20 DUP7 ADD PUSH2 0xEB3 JUMP JUMPDEST PUSH2 0xEFE DUP2 PUSH2 0xEC1 JUMP JUMPDEST DUP5 ADD SWAP2 POP POP SWAP3 SWAP2 POP POP JUMP JUMPDEST PUSH0 PUSH1 0x20 DUP3 ADD SWAP1 POP DUP2 DUP2 SUB PUSH0 DUP4 ADD MSTORE PUSH2 0xF21 DUP2 DUP5 PUSH2 0xED1 JUMP JUMPDEST SWAP1 POP SWAP3 SWAP2 POP POP JUMP JUMPDEST PUSH0 DUP1 REVERT JUMPDEST PUSH0 PUSH20 0xFFFFFFFFFFFFFFFFFFFFFFFFFFFFFFFFFFFFFFFF DUP3 AND SWAP1 POP SWAP2 SWAP1 POP JUMP JUMPDEST PUSH0 PUSH2 0xF56 DUP3 PUSH2 0xF2D JUMP JUMPDEST SWAP1 POP SWAP2 SWAP1 POP JUMP JUMPDEST PUSH2 0xF66 DUP2 PUSH2 0xF4C JUMP JUMPDEST DUP2 EQ PUSH2 0xF70 JUMPI PUSH0 DUP1 REVERT JUMPDEST POP JUMP JUMPDEST PUSH0 DUP2 CALLDATALOAD SWAP1 POP PUSH2 0xF81 DUP2 PUSH2 0xF5D JUMP JUMPDEST SWAP3 SWAP2 POP POP JUMP JUMPDEST PUSH0 DUP2 SWAP1 POP SWAP2 SWAP1 POP JUMP JUMPDEST PUSH2 0xF99 DUP2 PUSH2 0xF87 JUMP JUMPDEST DUP2 EQ PUSH2 0xFA3 JUMPI PUSH0 DUP1 REVERT JUMPDEST POP JUMP JUMPDEST PUSH0 DUP2 CALLDATALOAD SWAP1 POP PUSH2 0xFB4 DUP2 PUSH2 0xF90 JUMP JUMPDEST SWAP3 SWAP2 POP POP JUMP JUMPDEST PUSH0 DUP1 PUSH1 0x40 DUP4 DUP6 SUB SLT ISZERO PUSH2 0xFD0 JUMPI PUSH2 0xFCF PUSH2 0xF29 JUMP JUMPDEST JUMPDEST PUSH0 PUSH2 0xFDD DUP6 DUP3 DUP7 ADD PUSH2 0xF73 JUMP JUMPDEST SWAP3 POP POP PUSH1 0x20 PUSH2 0xFEE DUP6 DUP3 DUP7 ADD PUSH2 0xFA6 JUMP JUMPDEST SWAP2 POP POP SWAP3 POP SWAP3 SWAP1 POP JUMP JUMPDEST PUSH0 DUP2 ISZERO ISZERO SWAP1 POP SWAP2 SWAP1 POP JUMP JUMPDEST PUSH2 0x100C DUP2 PUSH2 0xFF8 JUMP JUMPDEST DUP3 MSTORE POP POP JUMP JUMPDEST PUSH0 PUSH1 0x20 DUP3 ADD SWAP1 POP PUSH2 0x1025 PUSH0 DUP4 ADD DUP5 PUSH2 0x1003 JUMP JUMPDEST SWAP3 SWAP2 POP POP JUMP JUMPDEST PUSH2 0x1034 DUP2 PUSH2 0xF87 JUMP JUMPDEST DUP3 MSTORE POP POP JUMP JUMPDEST PUSH0 PUSH1 0x20 DUP3 ADD SWAP1 POP PUSH2 0x104D PUSH0 DUP4 ADD DUP5 PUSH2 0x102B JUMP JUMPDEST SWAP3 SWAP2 POP POP JUMP JUMPDEST PUSH0 DUP1 PUSH0 PUSH1 0x60 DUP5 DUP7 SUB SLT ISZERO PUSH2 0x106A JUMPI PUSH2 0x1069 PUSH2 0xF29 JUMP JUMPDEST JUMPDEST PUSH0 PUSH2 0x1077 DUP7 DUP3 DUP8 ADD PUSH2 0xF73 JUMP JUMPDEST SWAP4 POP POP PUSH1 0x20 PUSH2 0x1088 DUP7 DUP3 DUP8 ADD PUSH2 0xF73 JUMP JUMPDEST SWAP3 POP POP PUSH1 0x40 PUSH2 0x1099 DUP7 DUP3 DUP8 ADD PUSH2 0xFA6 JUMP JUMPDEST SWAP2 POP POP SWAP3 POP SWAP3 POP SWAP3 JUMP JUMPDEST PUSH0 PUSH1 0xFF DUP3 AND SWAP1 POP SWAP2 SWAP1 POP JUMP JUMPDEST PUSH2 0x10B8 DUP2 PUSH2 0x10A3 JUMP JUMPDEST DUP3 MSTORE POP POP JUMP JUMPDEST PUSH0 PUSH1 0x20 DUP3 ADD SWAP1 POP PUSH2 0x10D1 PUSH0 DUP4 ADD DUP5 PUSH2 0x10AF JUMP JUMPDEST SWAP3 SWAP2 POP POP JUMP JUMPDEST PUSH0 PUSH1 0x20 DUP3 DUP5 SUB SLT ISZERO PUSH2 0x10EC JUMPI PUSH2 0x10EB PUSH2 0xF29 JUMP JUMPDEST JUMPDEST PUSH0 PUSH2 0x10F9 DUP5 DUP3 DUP6 ADD PUSH2 0xF73 JUMP JUMPDEST SWAP2 POP POP SWAP3 SWAP2 POP POP JUMP JUMPDEST PUSH2 0x110B DUP2 PUSH2 0xF4C JUMP JUMPDEST DUP3 MSTORE POP POP JUMP JUMPDEST PUSH0 PUSH1 0x20 DUP3 ADD SWAP1 POP PUSH2 0x1124 PUSH0 DUP4 ADD DUP5 PUSH2 0x1102 JUMP JUMPDEST SWAP3 SWAP2 POP POP JUMP JUMPDEST PUSH0 PUSH1 0x20 DUP3 DUP5 SUB SLT ISZERO PUSH2 0x113F JUMPI PUSH2 0x113E PUSH2 0xF29 JUMP JUMPDEST JUMPDEST PUSH0 PUSH2 0x114C DUP5 DUP3 DUP6 ADD PUSH2 0xFA6 JUMP JUMPDEST SWAP2 POP POP SWAP3 SWAP2 POP POP JUMP JUMPDEST PUSH0 DUP1 PUSH1 0x40 DUP4 DUP6 SUB SLT ISZERO PUSH2 0x116B JUMPI PUSH2 0x116A PUSH2 0xF29 JUMP JUMPDEST JUMPDEST PUSH0 PUSH2 0x1178 DUP6 DUP3 DUP7 ADD PUSH2 0xF73 JUMP JUMPDEST SWAP3 POP POP PUSH1 0x20 PUSH2 0x1189 DUP6 DUP3 DUP7 ADD PUSH2 0xF73 JUMP JUMPDEST SWAP2 POP POP SWAP3 POP SWAP3 SWAP1 POP JUMP JUMPDEST PUSH32 0x4E487B7100000000000000000000000000000000000000000000000000000000 PUSH0 MSTORE PUSH1 0x22 PUSH1 0x4 MSTORE PUSH1 0x24 PUSH0 REVERT JUMPDEST PUSH0 PUSH1 0x2 DUP3 DIV SWAP1 POP PUSH1 0x1 DUP3 AND DUP1 PUSH2 0x11D7 JUMPI PUSH1 0x7F DUP3 AND SWAP2 POP JUMPDEST PUSH1 0x20 DUP3 LT DUP2 SUB PUSH2 0x11EA JUMPI PUSH2 0x11E9 PUSH2 0x1193 JUMP JUMPDEST JUMPDEST POP SWAP2 SWAP1 POP JUMP JUMPDEST PUSH32 0x496E76616C696420616464726573730000000000000000000000000000000000 PUSH0 DUP3 ADD MSTORE POP JUMP JUMPDEST PUSH0 PUSH2 0x1224 PUSH1 0xF DUP4 PUSH2 0xEA3 JUMP JUMPDEST SWAP2 POP PUSH2 0x122F DUP3 PUSH2 0x11F0 JUMP JUMPDEST PUSH1 0x20 DUP3 ADD SWAP1 POP SWAP2 SWAP1 POP JUMP JUMPDEST PUSH0 PUSH1 0x20 DUP3 ADD SWAP1 POP DUP2 DUP2 SUB PUSH0 DUP4 ADD MSTORE PUSH2 0x1251 DUP2 PUSH2 0x1218 JUMP JUMPDEST SWAP1 POP SWAP2 SWAP1 POP JUMP JUMPDEST PUSH32 0x496E73756666696369656E742062616C616E6365000000000000000000000000 PUSH0 DUP3 ADD MSTORE POP JUMP JUMPDEST PUSH0 PUSH2 0x128C PUSH1 0x14 DUP4 PUSH2 0xEA3 JUMP JUMPDEST SWAP2 POP PUSH2 0x1297 DUP3 PUSH2 0x1258 JUMP JUMPDEST PUSH1 0x20 DUP3 ADD SWAP1 POP SWAP2 SWAP1 POP JUMP JUMPDEST PUSH0 PUSH1 0x20 DUP3 ADD SWAP1 POP DUP2 DUP2 SUB PUSH0 DUP4 ADD MSTORE PUSH2 0x12B9 DUP2 PUSH2 0x1280 JUMP JUMPDEST SWAP1 POP SWAP2 SWAP1 POP JUMP JUMPDEST PUSH32 0x416C6C6F77616E63652065786365656465640000000000000000000000000000 PUSH0 DUP3 ADD MSTORE POP JUMP JUMPDEST PUSH0 PUSH2 0x12F4 PUSH1 0x12 DUP4 PUSH2 0xEA3 JUMP JUMPDEST SWAP2 POP PUSH2 0x12FF DUP3 PUSH2 0x12C0 JUMP JUMPDEST PUSH1 0x20 DUP3 ADD SWAP1 POP SWAP2 SWAP1 POP JUMP JUMPDEST PUSH0 PUSH1 0x20 DUP3 ADD SWAP1 POP DUP2 DUP2 SUB PUSH0 DUP4 ADD MSTORE PUSH2 0x1321 DUP2 PUSH2 0x12E8 JUMP JUMPDEST SWAP1 POP SWAP2 SWAP1 POP JUMP JUMPDEST PUSH32 0x4E487B7100000000000000000000000000000000000000000000000000000000 PUSH0 MSTORE PUSH1 0x11 PUSH1 0x4 MSTORE PUSH1 0x24 PUSH0 REVERT JUMPDEST PUSH0 PUSH2 0x135F DUP3 PUSH2 0xF87 JUMP JUMPDEST SWAP2 POP PUSH2 0x136A DUP4 PUSH2 0xF87 JUMP JUMPDEST SWAP3 POP DUP3 DUP3 SUB SWAP1 POP DUP2 DUP2 GT ISZERO PUSH2 0x1382 JUMPI PUSH2 0x1381 PUSH2 0x1328 JUMP JUMPDEST JUMPDEST SWAP3 SWAP2 POP POP JUMP JUMPDEST PUSH0 PUSH2 0x1392 DUP3 PUSH2 0xF87 JUMP JUMPDEST SWAP2 POP PUSH2 0x139D DUP4 PUSH2 0xF87 JUMP JUMPDEST SWAP3 POP DUP3 DUP3 ADD SWAP1 POP DUP1 DUP3 GT ISZERO PUSH2 0x13B5 JUMPI PUSH2 0x13B4 PUSH2 0x1328 JUMP JUMPDEST JUMPDEST SWAP3 SWAP2 POP POP JUMP JUMPDEST PUSH0 PUSH2 0x13C5 DUP3 PUSH2 0xF87 JUMP JUMPDEST SWAP2 POP PUSH2 0x13D0 DUP4 PUSH2 0xF87 JUMP JUMPDEST SWAP3 POP DUP3 DUP3 MUL PUSH2 0x13DE DUP2 PUSH2 0xF87 JUMP JUMPDEST SWAP2 POP DUP3 DUP3 DIV DUP5 EQ DUP4 ISZERO OR PUSH2 0x13F5 JUMPI PUSH2 0x13F4 PUSH2 0x1328 JUMP JUMPDEST JUMPDEST POP SWAP3 SWAP2 POP POP JUMP JUMPDEST PUSH32 0x4F6E6C79206F776E65722063616E20706572666F726D20746869732061637469 PUSH0 DUP3 ADD MSTORE PUSH32 0x6F6E000000000000000000000000000000000000000000000000000000000000 PUSH1 0x20 DUP3 ADD MSTORE POP JUMP JUMPDEST PUSH0 PUSH2 0x1456 PUSH1 0x22 DUP4 PUSH2 0xEA3 JUMP JUMPDEST SWAP2 POP PUSH2 0x1461 DUP3 PUSH2 0x13FC JUMP JUMPDEST PUSH1 0x40 DUP3 ADD SWAP1 POP SWAP2 SWAP1 POP JUMP JUMPDEST PUSH0 PUSH1 0x20 DUP3 ADD SWAP1 POP DUP2 DUP2 SUB PUSH0 DUP4 ADD MSTORE PUSH2 0x1483 DUP2 PUSH2 0x144A JUMP JUMPDEST SWAP1 POP SWAP2 SWAP1 POP JUMP JUMPDEST PUSH32 0x4E6577206F776E657220697320746865207A65726F2061646472657373000000 PUSH0 DUP3 ADD MSTORE POP JUMP JUMPDEST PUSH0 PUSH2 0x14BE PUSH1 0x1D DUP4 PUSH2 0xEA3 JUMP JUMPDEST SWAP2 POP PUSH2 0x14C9 DUP3 PUSH2 0x148A JUMP JUMPDEST PUSH1 0x20 DUP3 ADD SWAP1 POP SWAP2 SWAP1 POP JUMP JUMPDEST PUSH0 PUSH1 0x20 DUP3 ADD SWAP1 POP DUP2 DUP2 SUB PUSH0 DUP4 ADD MSTORE PUSH2 0x14EB DUP2 PUSH2 0x14B2 JUMP JUMPDEST SWAP1 POP SWAP2 SWAP1 POP JUMP INVALID LOG2 PUSH5 0x6970667358 0x22 SLT KECCAK256 SHL AND STATICCALL 0xE3 0xC5 NUMBER 0xF9 DUP9 0xF9 BYTE 0x2E PUSH2 0x9B16 MUL 0x4F LOG4 0xBC COINBASE 0x2B JUMP 0xD0 GT 0xEC 0xE0 NOT SWAP7 SAR 0xED 0xB1 0xB0 0x2C PUSH5 0x736F6C6343 STOP ADDMOD BYTE STOP CALLER "
	},
	"Assembly": ".code\n  PUSH 80\t\t\tcontract TerraReal {\\n    // P...\n  PUSH 40\t\t\tcontract TerraReal {\\n    // P...\n  MSTORE \t\t\tcontract TerraReal {\\n    // P...\n  PUSH 40\t\t\tstring public name = \"Terra Re...\n  MLOAD \t\t\tstring public name = \"Terra Re...\n  DUP1 \t\t\tstring public name = \"Terra Re...\n  PUSH 40\t\t\tstring public name = \"Terra Re...\n  ADD \t\t\tstring public name = \"Terra Re...\n  PUSH 40\t\t\tstring public name = \"Terra Re...\n  MSTORE \t\t\tstring public name = \"Terra Re...\n  DUP1 \t\t\tstring public name = \"Terra Re...\n  PUSH A\t\t\tstring public name = \"Terra Re...\n  DUP2 \t\t\tstring public name = \"Terra Re...\n  MSTORE \t\t\tstring public name = \"Terra Re...\n  PUSH 20\t\t\tstring public name = \"Terra Re...\n  ADD \t\t\tstring public name = \"Terra Re...\n  PUSH 5465727261205265616C00000000000000000000000000000000000000000000\t\t\tstring public name = \"Terra Re...\n  DUP2 \t\t\tstring public name = \"Terra Re...\n  MSTORE \t\t\tstring public name = \"Terra Re...\n  POP \t\t\tstring public name = \"Terra Re...\n  PUSH 0\t\t\tstring public name = \"Terra Re...\n  SWAP1 \t\t\tstring public name = \"Terra Re...\n  DUP2 \t\t\tstring public name = \"Terra Re...\n  PUSH [tag] 1\t\t\tstring public name = \"Terra Re...\n  SWAP2 \t\t\tstring public name = \"Terra Re...\n  SWAP1 \t\t\tstring public name = \"Terra Re...\n  PUSH [tag] 2\t\t\tstring public name = \"Terra Re...\n  JUMP \t\t\tstring public name = \"Terra Re...\ntag 1\t\t\tstring public name = \"Terra Re...\n  JUMPDEST \t\t\tstring public name = \"Terra Re...\n  POP \t\t\tstring public name = \"Terra Re...\n  PUSH 40\t\t\tstring public symbol = \"TR\"\n  MLOAD \t\t\tstring public symbol = \"TR\"\n  DUP1 \t\t\tstring public symbol = \"TR\"\n  PUSH 40\t\t\tstring public symbol = \"TR\"\n  ADD \t\t\tstring public symbol = \"TR\"\n  PUSH 40\t\t\tstring public symbol = \"TR\"\n  MSTORE \t\t\tstring public symbol = \"TR\"\n  DUP1 \t\t\tstring public symbol = \"TR\"\n  PUSH 2\t\t\tstring public symbol = \"TR\"\n  DUP2 \t\t\tstring public symbol = \"TR\"\n  MSTORE \t\t\tstring public symbol = \"TR\"\n  PUSH 20\t\t\tstring public symbol = \"TR\"\n  ADD \t\t\tstring public symbol = \"TR\"\n  PUSH 5452000000000000000000000000000000000000000000000000000000000000\t\t\tstring public symbol = \"TR\"\n  DUP2 \t\t\tstring public symbol = \"TR\"\n  MSTORE \t\t\tstring public symbol = \"TR\"\n  POP \t\t\tstring public symbol = \"TR\"\n  PUSH 1\t\t\tstring public symbol = \"TR\"\n  SWAP1 \t\t\tstring public symbol = \"TR\"\n  DUP2 \t\t\tstring public symbol = \"TR\"\n  PUSH [tag] 3\t\t\tstring public symbol = \"TR\"\n  SWAP2 \t\t\tstring public symbol = \"TR\"\n  SWAP1 \t\t\tstring public symbol = \"TR\"\n  PUSH [tag] 2\t\t\tstring public symbol = \"TR\"\n  JUMP \t\t\tstring public symbol = \"TR\"\ntag 3\t\t\tstring public symbol = \"TR\"\n  JUMPDEST \t\t\tstring public symbol = \"TR\"\n  POP \t\t\tstring public symbol = \"TR\"\n  PUSH 0\t\t\t0\n  PUSH 2\t\t\tuint8 public decimals = 0\n  PUSH 0\t\t\tuint8 public decimals = 0\n  PUSH 100\t\t\tuint8 public decimals = 0\n  EXP \t\t\tuint8 public decimals = 0\n  DUP2 \t\t\tuint8 public decimals = 0\n  SLOAD \t\t\tuint8 public decimals = 0\n  DUP2 \t\t\tuint8 public decimals = 0\n  PUSH FF\t\t\tuint8 public decimals = 0\n  MUL \t\t\tuint8 public decimals = 0\n  NOT \t\t\tuint8 public decimals = 0\n  AND \t\t\tuint8 public decimals = 0\n  SWAP1 \t\t\tuint8 public decimals = 0\n  DUP4 \t\t\tuint8 public decimals = 0\n  PUSH FF\t\t\tuint8 public decimals = 0\n  AND \t\t\tuint8 public decimals = 0\n  MUL \t\t\tuint8 public decimals = 0\n  OR \t\t\tuint8 public decimals = 0\n  SWAP1 \t\t\tuint8 public decimals = 0\n  SSTORE \t\t\tuint8 public decimals = 0\n  POP \t\t\tuint8 public decimals = 0\n  CALLVALUE \t\t\tconstructor() {\\n        total...\n  DUP1 \t\t\tconstructor() {\\n        total...\n  ISZERO \t\t\tconstructor() {\\n        total...\n  PUSH [tag] 4\t\t\tconstructor() {\\n        total...\n  JUMPI \t\t\tconstructor() {\\n        total...\n  PUSH 0\t\t\tconstructor() {\\n        total...\n  DUP1 \t\t\tconstructor() {\\n        total...\n  REVERT \t\t\tconstructor() {\\n        total...\ntag 4\t\t\tconstructor() {\\n        total...\n  JUMPDEST \t\t\tconstructor() {\\n        total...\n  POP \t\t\tconstructor() {\\n        total...\n  PUSH 2710\t\t\t10000\n  PUSH 9C4\t\t\t2500\n  PUSH 1\t\t\t1\n  PUSH [tag] 7\t\t\tsquareMetersPerToken * hectare...\n  SWAP2 \t\t\tsquareMetersPerToken * hectare...\n  SWAP1 \t\t\tsquareMetersPerToken * hectare...\n  PUSH [tag] 8\t\t\tsquareMetersPerToken * hectare...\n  JUMP \t\t\tsquareMetersPerToken * hectare...\ntag 7\t\t\tsquareMetersPerToken * hectare...\n  JUMPDEST \t\t\tsquareMetersPerToken * hectare...\n  PUSH [tag] 9\t\t\tsquareMetersPerToken * hectare...\n  SWAP2 \t\t\tsquareMetersPerToken * hectare...\n  SWAP1 \t\t\tsquareMetersPerToken * hectare...\n  PUSH [tag] 8\t\t\tsquareMetersPerToken * hectare...\n  JUMP \t\t\tsquareMetersPerToken * hectare...\ntag 9\t\t\tsquareMetersPerToken * hectare...\n  JUMPDEST \t\t\tsquareMetersPerToken * hectare...\n  PUSH 3\t\t\ttotalSupply\n  DUP2 \t\t\ttotalSupply = initialSupply\n  SWAP1 \t\t\ttotalSupply = initialSupply\n  SSTORE \t\t\ttotalSupply = initialSupply\n  POP \t\t\ttotalSupply = initialSupply\n  PUSH 2710\t\t\t10000\n  PUSH 9C4\t\t\t2500\n  PUSH 1\t\t\t1\n  PUSH [tag] 10\t\t\tsquareMetersPerToken * hectare...\n  SWAP2 \t\t\tsquareMetersPerToken * hectare...\n  SWAP1 \t\t\tsquareMetersPerToken * hectare...\n  PUSH [tag] 8\t\t\tsquareMetersPerToken * hectare...\n  JUMP \t\t\tsquareMetersPerToken * hectare...\ntag 10\t\t\tsquareMetersPerToken * hectare...\n  JUMPDEST \t\t\tsquareMetersPerToken * hectare...\n  PUSH [tag] 11\t\t\tsquareMetersPerToken * hectare...\n  SWAP2 \t\t\tsquareMetersPerToken * hectare...\n  SWAP1 \t\t\tsquareMetersPerToken * hectare...\n  PUSH [tag] 8\t\t\tsquareMetersPerToken * hectare...\n  JUMP \t\t\tsquareMetersPerToken * hectare...\ntag 11\t\t\tsquareMetersPerToken * hectare...\n  JUMPDEST \t\t\tsquareMetersPerToken * hectare...\n  PUSH 5\t\t\tbalanceOf\n  PUSH 0\t\t\tbalanceOf[msg.sender]\n  CALLER \t\t\tmsg.sender\n  PUSH FFFFFFFFFFFFFFFFFFFFFFFFFFFFFFFFFFFFFFFF\t\t\tbalanceOf[msg.sender]\n  AND \t\t\tbalanceOf[msg.sender]\n  PUSH FFFFFFFFFFFFFFFFFFFFFFFFFFFFFFFFFFFFFFFF\t\t\tbalanceOf[msg.sender]\n  AND \t\t\tbalanceOf[msg.sender]\n  DUP2 \t\t\tbalanceOf[msg.sender]\n  MSTORE \t\t\tbalanceOf[msg.sender]\n  PUSH 20\t\t\tbalanceOf[msg.sender]\n  ADD \t\t\tbalanceOf[msg.sender]\n  SWAP1 \t\t\tbalanceOf[msg.sender]\n  DUP2 \t\t\tbalanceOf[msg.sender]\n  MSTORE \t\t\tbalanceOf[msg.sender]\n  PUSH 20\t\t\tbalanceOf[msg.sender]\n  ADD \t\t\tbalanceOf[msg.sender]\n  PUSH 0\t\t\tbalanceOf[msg.sender]\n  KECCAK256 \t\t\tbalanceOf[msg.sender]\n  DUP2 \t\t\tbalanceOf[msg.sender] = initia...\n  SWAP1 \t\t\tbalanceOf[msg.sender] = initia...\n  SSTORE \t\t\tbalanceOf[msg.sender] = initia...\n  POP \t\t\tbalanceOf[msg.sender] = initia...\n  CALLER \t\t\tmsg.sender\n  PUSH 4\t\t\towner\n  PUSH 0\t\t\towner\n  PUSH 100\t\t\towner = msg.sender\n  EXP \t\t\towner = msg.sender\n  DUP2 \t\t\towner = msg.sender\n  SLOAD \t\t\towner = msg.sender\n  DUP2 \t\t\towner = msg.sender\n  PUSH FFFFFFFFFFFFFFFFFFFFFFFFFFFFFFFFFFFFFFFF\t\t\towner = msg.sender\n  MUL \t\t\towner = msg.sender\n  NOT \t\t\towner = msg.sender\n  AND \t\t\towner = msg.sender\n  SWAP1 \t\t\towner = msg.sender\n  DUP4 \t\t\towner = msg.sender\n  PUSH FFFFFFFFFFFFFFFFFFFFFFFFFFFFFFFFFFFFFFFF\t\t\towner = msg.sender\n  AND \t\t\towner = msg.sender\n  MUL \t\t\towner = msg.sender\n  OR \t\t\towner = msg.sender\n  SWAP1 \t\t\towner = msg.sender\n  SSTORE \t\t\towner = msg.sender\n  POP \t\t\towner = msg.sender\n  CALLER \t\t\tmsg.sender\n  PUSH FFFFFFFFFFFFFFFFFFFFFFFFFFFFFFFFFFFFFFFF\t\t\tTransfer(address(0), msg.sende...\n  AND \t\t\tTransfer(address(0), msg.sende...\n  PUSH 0\t\t\t0\n  PUSH FFFFFFFFFFFFFFFFFFFFFFFFFFFFFFFFFFFFFFFF\t\t\tTransfer(address(0), msg.sende...\n  AND \t\t\tTransfer(address(0), msg.sende...\n  PUSH DDF252AD1BE2C89B69C2B068FC378DAA952BA7F163C4A11628F55A4DF523B3EF\t\t\tTransfer(address(0), msg.sende...\n  PUSH 2710\t\t\t10000\n  PUSH 9C4\t\t\t2500\n  PUSH 1\t\t\t1\n  PUSH [tag] 12\t\t\tsquareMetersPerToken * hectare...\n  SWAP2 \t\t\tsquareMetersPerToken * hectare...\n  SWAP1 \t\t\tsquareMetersPerToken * hectare...\n  PUSH [tag] 8\t\t\tsquareMetersPerToken * hectare...\n  JUMP \t\t\tsquareMetersPerToken * hectare...\ntag 12\t\t\tsquareMetersPerToken * hectare...\n  JUMPDEST \t\t\tsquareMetersPerToken * hectare...\n  PUSH [tag] 13\t\t\tsquareMetersPerToken * hectare...\n  SWAP2 \t\t\tsquareMetersPerToken * hectare...\n  SWAP1 \t\t\tsquareMetersPerToken * hectare...\n  PUSH [tag] 8\t\t\tsquareMetersPerToken * hectare...\n  JUMP \t\t\tsquareMetersPerToken * hectare...\ntag 13\t\t\tsquareMetersPerToken * hectare...\n  JUMPDEST \t\t\tsquareMetersPerToken * hectare...\n  PUSH 40\t\t\tTransfer(address(0), msg.sende...\n  MLOAD \t\t\tTransfer(address(0), msg.sende...\n  PUSH [tag] 14\t\t\tTransfer(address(0), msg.sende...\n  SWAP2 \t\t\tTransfer(address(0), msg.sende...\n  SWAP1 \t\t\tTransfer(address(0), msg.sende...\n  PUSH [tag] 15\t\t\tTransfer(address(0), msg.sende...\n  JUMP \t\t\tTransfer(address(0), msg.sende...\ntag 14\t\t\tTransfer(address(0), msg.sende...\n  JUMPDEST \t\t\tTransfer(address(0), msg.sende...\n  PUSH 40\t\t\tTransfer(address(0), msg.sende...\n  MLOAD \t\t\tTransfer(address(0), msg.sende...\n  DUP1 \t\t\tTransfer(address(0), msg.sende...\n  SWAP2 \t\t\tTransfer(address(0), msg.sende...\n  SUB \t\t\tTransfer(address(0), msg.sende...\n  SWAP1 \t\t\tTransfer(address(0), msg.sende...\n  LOG3 \t\t\tTransfer(address(0), msg.sende...\n  PUSH [tag] 16\t\t\tcontract TerraReal {\\n    // P...\n  JUMP \t\t\tcontract TerraReal {\\n    // P...\ntag 17\t\t\t-License-Identifier: MIT\\nprag...\n  JUMPDEST \t\t\t-License-Identifier: MIT\\nprag...\n  PUSH 0\t\t\tntract\n  DUP2 \t\t\tariab\n  MLOAD \t\t\tblic variabl\n  SWAP1 \t\t\t\\n    // Public variabl\n  POP \t\t\t\\n    // Public variabl\n  SWAP2 \t\t\t-License-Identifier: MIT\\nprag...\n  SWAP1 \t\t\t-License-Identifier: MIT\\nprag...\n  POP \t\t\t-License-Identifier: MIT\\nprag...\n  JUMP \t\t\t-License-Identifier: MIT\\nprag...\ntag 18\t\t\ten\\n    string public name = \"...\n  JUMPDEST \t\t\ten\\n    string public name = \"...\n  PUSH 4E487B7100000000000000000000000000000000000000000000000000000000\t\t\tring public symbol = \"TR\";\\n  ...\n  PUSH 0\t\t\t \n  MSTORE \t\t\tl\";\\n    string public symbol ...\n  PUSH 41\t\t\t Con\n  PUSH 4\t\t\t \n  MSTORE \t\t\ty;\\n\\n    // Cons\n  PUSH 24\t\t\tubli\n  PUSH 0\t\t\t6\n  REVERT \t\t\t uint256 public\ntag 19\t\t\tuareMetersPerToken = 1; // Eac...\n  JUMPDEST \t\t\tuareMetersPerToken = 1; // Eac...\n  PUSH 4E487B7100000000000000000000000000000000000000000000000000000000\t\t\t 1 square meter of land\\n    u...\n  PUSH 0\t\t\tn\n  MSTORE \t\t\trepresents 1 square meter of l...\n  PUSH 22\t\t\t6 pu\n  PUSH 4\t\t\tt\n  MSTORE \t\t\t    uint256 pub\n  PUSH 24\t\t\tlSup\n  PUSH 0\t\t\tt\n  REVERT \t\t\tant initialSupp\ntag 20\t\t\tetersPerToken * hectares * 100...\n  JUMPDEST \t\t\tetersPerToken * hectares * 100...\n  PUSH 0\t\t\ting he\n  PUSH 2\t\t\t \n  DUP3 \t\t\t    \n  DIV \t\t\trs\\n\\n    // O\n  SWAP1 \t\t\tquare meters\\n\\n    // O\n  POP \t\t\tquare meters\\n\\n    // O\n  PUSH 1\t\t\t;\n  DUP3 \t\t\t own\n  AND \t\t\tblic owner;\\n\n  DUP1 \t\t\t to hold balances\\n\n  PUSH [tag] 44\t\t\t// Mapping to hold balances\\n ...\n  JUMPI \t\t\t// Mapping to hold balances\\n ...\n  PUSH 7F\t\t\t bal\n  DUP3 \t\t\t) publ\n  AND \t\t\tt256) public bala\n  SWAP2 \t\t\tess => uint256) public bala\n  POP \t\t\tess => uint256) public bala\ntag 44\t\t\t// Mapping to hold balances\\n ...\n  JUMPDEST \t\t\t// Mapping to hold balances\\n ...\n  PUSH 20\t\t\tes\n  DUP3 \t\t\ting(ad\n  LT \t\t\tapping(address\n  DUP2 \t\t\told allowances\\n   \n  SUB \t\t\to hold allowances\\n    mapping...\n  PUSH [tag] 45\t\t\tg to hold allowances\\n    mapp...\n  JUMPI \t\t\tg to hold allowances\\n    mapp...\n  PUSH [tag] 46\t\t\tess => uint256)) p\n  PUSH [tag] 19\t\t\tess => uint256)) p\n  JUMP \t\t\tess => uint256)) p\ntag 46\t\t\tess => uint256)) p\n  JUMPDEST \t\t\tess => uint256)) p\ntag 45\t\t\tg to hold allowances\\n    mapp...\n  JUMPDEST \t\t\tg to hold allowances\\n    mapp...\n  POP \t\t\ttares to square meters\\n\\n    ...\n  SWAP2 \t\t\tetersPerToken * hectares * 100...\n  SWAP1 \t\t\tetersPerToken * hectares * 100...\n  POP \t\t\tetersPerToken * hectares * 100...\n  JUMP \t\t\tetersPerToken * hectares * 100...\ntag 21\t\t\t// Events\\n    event Transfer(...\n  JUMPDEST \t\t\t// Events\\n    event Transfer(...\n  PUSH 0\t\t\t, ad\n  DUP2 \t\t\tint\n  SWAP1 \t\t\ted to, uint\n  POP \t\t\ted to, uint\n  DUP2 \t\t\tt A\n  PUSH 0\t\t\tv\n  MSTORE \t\t\t;\\n    event Ap\n  PUSH 20\t\t\taddr\n  PUSH 0\t\t\tr\n  KECCAK256 \t\t\tdexed owner, addre\n  SWAP1 \t\t\tdress indexed owner, addre\n  POP \t\t\tdress indexed owner, addre\n  SWAP2 \t\t\t// Events\\n    event Transfer(...\n  SWAP1 \t\t\t// Events\\n    event Transfer(...\n  POP \t\t\t// Events\\n    event Transfer(...\n  JUMP \t\t\t// Events\\n    event Transfer(...\ntag 22\t\t\tender, uint256 value);\\n    ev...\n  JUMPDEST \t\t\tender, uint256 value);\\n    ev...\n  PUSH 0\t\t\trshipT\n  PUSH 20\t\t\t a\n  PUSH 1F\t\t\twn\n  DUP4 \t\t\teviou\n  ADD \t\t\td previousOwne\n  DIV \t\t\tdexed previousOwner, ad\n  SWAP1 \t\t\taddress indexed previousOwner,...\n  POP \t\t\taddress indexed previousOwner,...\n  SWAP2 \t\t\tender, uint256 value);\\n    ev...\n  SWAP1 \t\t\tender, uint256 value);\\n    ev...\n  POP \t\t\tender, uint256 value);\\n    ev...\n  JUMP \t\t\tender, uint256 value);\\n    ev...\ntag 23\t\t\td newOwner);\\n\\n    // Constru...\n  JUMPDEST \t\t\td newOwner);\\n\\n    // Constru...\n  PUSH 0\t\t\tctor() {\n  DUP3 \t\t\t    b\n  DUP3 \t\t\t;\\n  \n  SHL \t\t\tpply;\\n        ba\n  SWAP1 \t\t\ttalSupply = initialSupply;\\n  ...\n  POP \t\t\ttalSupply = initialSupply;\\n  ...\n  SWAP3 \t\t\td newOwner);\\n\\n    // Constru...\n  SWAP2 \t\t\td newOwner);\\n\\n    // Constru...\n  POP \t\t\td newOwner);\\n\\n    // Constru...\n  POP \t\t\td newOwner);\\n\\n    // Constru...\n  JUMP \t\t\td newOwner);\\n\\n    // Constru...\ntag 24\t\t\tender] = initialSupply;\\n     ...\n  JUMPDEST \t\t\tender] = initialSupply;\\n     ...\n  PUSH 0\t\t\tsfer(a\n  PUSH 8\t\t\t\\n\n  DUP4 \t\t\tpply);\\n   \n  MUL \t\t\talSupply);\\n    }\\n\\n\n  PUSH [tag] 51\t\t\teck if the caller is the owner...\n  PUSH FFFFFFFFFFFFFFFFFFFFFFFFFFFFFFFFFFFFFFFFFFFFFFFFFFFFFFFFFFFFFFFF\t\t\t\\n    modifier onlyOwner() {\\n...\n  DUP3 \t\t\ts the own\n  PUSH [tag] 23\t\t\teck if the caller is the owner...\n  JUMP \t\t\teck if the caller is the owner...\ntag 51\t\t\teck if the caller is the owner...\n  JUMPDEST \t\t\teck if the caller is the owner...\n  PUSH [tag] 52\t\t\t this action\");\\n        _;\\n ...\n  DUP7 \t\t\t }\\n\\n    \n  DUP4 \t\t\t     _;\\n \n  PUSH [tag] 23\t\t\t this action\");\\n        _;\\n ...\n  JUMP \t\t\t this action\");\\n        _;\\n ...\ntag 52\t\t\t this action\");\\n        _;\\n ...\n  JUMPDEST \t\t\t this action\");\\n        _;\\n ...\n  SWAP6 \t\t\t can perform this action\");\\n ...\n  POP \t\t\t can perform this action\");\\n ...\n  DUP1 \t\t\ttran\n  NOT \t\t\tion trans\n  DUP5 \t\t\t  fun\n  AND \t\t\tn\\n    function transf\n  SWAP4 \t\t\tr function\\n    function trans...\n  POP \t\t\tr function\\n    function trans...\n  DUP1 \t\t\trns \n  DUP7 \t\t\tublic re\n  AND \t\t\te) public returns (\n  DUP5 \t\t\t6 _va\n  OR \t\t\tt256 _value) public returns (b\n  SWAP3 \t\t\ts _to, uint256 _value) public ...\n  POP \t\t\ts _to, uint256 _value) public ...\n  POP \t\t\tdress(0), msg.sender, initialS...\n  POP \t\t\tdress(0), msg.sender, initialS...\n  SWAP4 \t\t\tender] = initialSupply;\\n     ...\n  SWAP3 \t\t\tender] = initialSupply;\\n     ...\n  POP \t\t\tender] = initialSupply;\\n     ...\n  POP \t\t\tender] = initialSupply;\\n     ...\n  POP \t\t\tender] = initialSupply;\\n     ...\n  JUMP \t\t\tender] = initialSupply;\\n     ...\ntag 25\t\t\t {\\n        require(_to != add...\n  JUMPDEST \t\t\t {\\n        require(_to != add...\n  PUSH 0\t\t\t \"Inval\n  DUP2 \t\t\trequi\n  SWAP1 \t\t\t);\\n        requi\n  POP \t\t\t);\\n        requi\n  SWAP2 \t\t\t {\\n        require(_to != add...\n  SWAP1 \t\t\t {\\n        require(_to != add...\n  POP \t\t\t {\\n        require(_to != add...\n  JUMP \t\t\t {\\n        require(_to != add...\ntag 26\t\t\t[msg.sender] >= _value, \"Insuf...\n  JUMPDEST \t\t\t[msg.sender] >= _value, \"Insuf...\n  PUSH 0\t\t\tuff\n  DUP2 \t\t\t     \n  SWAP1 \t\t\tnce\");\\n     \n  POP \t\t\tnce\");\\n     \n  SWAP2 \t\t\t[msg.sender] >= _value, \"Insuf...\n  SWAP1 \t\t\t[msg.sender] >= _value, \"Insuf...\n  POP \t\t\t[msg.sender] >= _value, \"Insuf...\n  JUMP \t\t\t[msg.sender] >= _value, \"Insuf...\ntag 27\t\t\tbalanceOf[msg.sender] -= _valu...\n  JUMPDEST \t\t\tbalanceOf[msg.sender] -= _valu...\n  PUSH 0\t\t\t[_to] += \n  PUSH [tag] 56\t\t\t emit Transfer(msg.sender, _to...\n  PUSH [tag] 57\t\t\t.sender, _to, _value);\\n      ...\n  PUSH [tag] 58\t\t\t_to, _value);\\n        re\n  DUP5 \t\t\t    r\n  PUSH [tag] 25\t\t\t_to, _value);\\n        re\n  JUMP \t\t\t_to, _value);\\n        re\ntag 58\t\t\t_to, _value);\\n        re\n  JUMPDEST \t\t\t_to, _value);\\n        re\n  PUSH [tag] 26\t\t\t.sender, _to, _value);\\n      ...\n  JUMP \t\t\t.sender, _to, _value);\\n      ...\ntag 57\t\t\t.sender, _to, _value);\\n      ...\n  JUMPDEST \t\t\t.sender, _to, _value);\\n      ...\n  PUSH [tag] 25\t\t\t emit Transfer(msg.sender, _to...\n  JUMP \t\t\t emit Transfer(msg.sender, _to...\ntag 56\t\t\t emit Transfer(msg.sender, _to...\n  JUMPDEST \t\t\t emit Transfer(msg.sender, _to...\n  SWAP1 \t\t\t     \\n        emit Transfer(m...\n  POP \t\t\t     \\n        emit Transfer(m...\n  SWAP2 \t\t\tbalanceOf[msg.sender] -= _valu...\n  SWAP1 \t\t\tbalanceOf[msg.sender] -= _valu...\n  POP \t\t\tbalanceOf[msg.sender] -= _valu...\n  JUMP \t\t\tbalanceOf[msg.sender] -= _valu...\ntag 28\t\t\t }\\n\\n    // Approve function\\...\n  JUMPDEST \t\t\t }\\n\\n    // Approve function\\...\n  PUSH 0\t\t\tpro\n  DUP2 \t\t\tr, ui\n  SWAP1 \t\t\t_spender, ui\n  POP \t\t\t_spender, ui\n  SWAP2 \t\t\t }\\n\\n    // Approve function\\...\n  SWAP1 \t\t\t }\\n\\n    // Approve function\\...\n  POP \t\t\t }\\n\\n    // Approve function\\...\n  JUMP \t\t\t }\\n\\n    // Approve function\\...\ntag 29\t\t\t) public returns (bool success...\n  JUMPDEST \t\t\t) public returns (bool success...\n  PUSH [tag] 61\t\t\tsender, _spender, _value);\\n  ...\n  DUP4 \t\t\t    ret\n  PUSH [tag] 27\t\t\tsender, _spender, _value);\\n  ...\n  JUMP \t\t\tsender, _spender, _value);\\n  ...\ntag 61\t\t\tsender, _spender, _value);\\n  ...\n  JUMPDEST \t\t\tsender, _spender, _value);\\n  ...\n  PUSH [tag] 62\t\t\t Transfer from function\\n    f...\n  PUSH [tag] 63\t\t\t(address _from, address _to, u...\n  DUP3 \t\t\t_to, uint256 _va\n  PUSH [tag] 28\t\t\t(address _from, address _to, u...\n  JUMP \t\t\t(address _from, address _to, u...\ntag 63\t\t\t(address _from, address _to, u...\n  JUMPDEST \t\t\t(address _from, address _to, u...\n  DUP5 \t\t\tsferFr\n  DUP5 \t\t\ton t\n  SLOAD \t\t\tfunction tr\n  PUSH [tag] 24\t\t\t Transfer from function\\n    f...\n  JUMP \t\t\t Transfer from function\\n    f...\ntag 62\t\t\t Transfer from function\\n    f...\n  JUMPDEST \t\t\t Transfer from function\\n    f...\n  DUP3 \t\t\t    \n  SSTORE \t\t\t    }\\n\\n    // Transfer from ...\n  POP \t\t\t_value;\\n        emit Approval...\n  POP \t\t\t) public returns (bool success...\n  POP \t\t\t) public returns (bool success...\n  POP \t\t\t) public returns (bool success...\n  JUMP \t\t\t) public returns (bool success...\ntag 30\t\t\turns (bool success) {\\n       ...\n  JUMPDEST \t\t\turns (bool success) {\\n       ...\n  PUSH 0\t\t\t= a\n  SWAP1 \t\t\turns (bool success) {\\n       ...\n  JUMP \t\t\turns (bool success) {\\n       ...\ntag 31\t\t\t \"Invalid address\");\\n        ...\n  JUMPDEST \t\t\t \"Invalid address\");\\n        ...\n  PUSH [tag] 66\t\t\tt balance\");\\n        require(...\n  PUSH [tag] 30\t\t\tt balance\");\\n        require(...\n  JUMP \t\t\tt balance\");\\n        require(...\ntag 66\t\t\tt balance\");\\n        require(...\n  JUMPDEST \t\t\tt balance\");\\n        require(...\n  PUSH [tag] 67\t\t\trom][msg.sender] >= _value, \"A...\n  DUP2 \t\t\t  bala\n  DUP5 \t\t\t\\n\\n    \n  DUP5 \t\t\tded\"\n  PUSH [tag] 29\t\t\trom][msg.sender] >= _value, \"A...\n  JUMP \t\t\trom][msg.sender] >= _value, \"A...\ntag 67\t\t\trom][msg.sender] >= _value, \"A...\n  JUMPDEST \t\t\trom][msg.sender] >= _value, \"A...\n  POP \t\t\t >= _value, \"Insufficient bala...\n  POP \t\t\t \"Invalid address\");\\n        ...\n  POP \t\t\t \"Invalid address\");\\n        ...\n  JUMP \t\t\t \"Invalid address\");\\n        ...\ntag 32\t\t\t-= _value;\\n        balanceOf[...\n  JUMPDEST \t\t\t-= _value;\\n        balanceOf[...\ntag 69\t\t\tce[_from][msg.sender] -= _valu...\n  JUMPDEST \t\t\tce[_from][msg.sender] -= _valu...\n  DUP2 \t\t\tder\n  DUP2 \t\t\tmsg.s\n  LT \t\t\tm][msg.sender]\n  ISZERO \t\t\tce[_from][msg.sender] -= _valu...\n  PUSH [tag] 71\t\t\tce[_from][msg.sender] -= _valu...\n  JUMPI \t\t\tce[_from][msg.sender] -= _valu...\n  PUSH [tag] 72\t\t\tlue);\\n        return true;\\n ...\n  PUSH 0\t\t\t \n  DUP3 \t\t\t }\\n\\n \n  PUSH [tag] 31\t\t\tlue);\\n        return true;\\n ...\n  JUMP \t\t\tlue);\\n        return true;\\n ...\ntag 72\t\t\tlue);\\n        return true;\\n ...\n  JUMPDEST \t\t\tlue);\\n        return true;\\n ...\n  PUSH 1\t\t\ti\n  DUP2 \t\t\t     \n  ADD \t\t\t\\n        emit\n  SWAP1 \t\t\t _value;\\n\\n        emit\n  POP \t\t\t _value;\\n\\n        emit\n  PUSH [tag] 69\t\t\tce[_from][msg.sender] -= _valu...\n  JUMP \t\t\tce[_from][msg.sender] -= _valu...\ntag 71\t\t\tce[_from][msg.sender] -= _valu...\n  JUMPDEST \t\t\tce[_from][msg.sender] -= _valu...\n  POP \t\t\t-= _value;\\n        balanceOf[...\n  POP \t\t\t-= _value;\\n        balanceOf[...\n  JUMP \t\t\t-= _value;\\n        balanceOf[...\ntag 33\t\t\tnction mint(uint256 _amount) p...\n  JUMPDEST \t\t\tnction mint(uint256 _amount) p...\n  PUSH 1F\t\t\ter\n  DUP3 \t\t\tf[o\n  GT \t\t\tceOf[owner]\n  ISZERO \t\t\tlanceOf[owner] += _amount;\\n  ...\n  PUSH [tag] 74\t\t\tlanceOf[owner] += _amount;\\n  ...\n  JUMPI \t\t\tlanceOf[owner] += _amount;\\n  ...\n  PUSH [tag] 75\t\t\tfer(address(0), owner, _amount...\n  DUP2 \t\t\t\\n    \n  PUSH [tag] 21\t\t\tfer(address(0), owner, _amount...\n  JUMP \t\t\tfer(address(0), owner, _amount...\ntag 75\t\t\tfer(address(0), owner, _amount...\n  JUMPDEST \t\t\tfer(address(0), owner, _amount...\n  PUSH [tag] 76\t\t\tew address\\n    function trans\n  DUP5 \t\t\tction tran\n  PUSH [tag] 22\t\t\tew address\\n    function trans\n  JUMP \t\t\tew address\\n    function trans\ntag 76\t\t\tew address\\n    function trans\n  JUMPDEST \t\t\tew address\\n    function trans\n  DUP2 \t\t\thip to a\n  ADD \t\t\tnership to a new address\\n    ...\n  PUSH 20\t\t\tre\n  DUP6 \t\t\tshipTransf\n  LT \t\t\tnershipTransferred\n  ISZERO \t\t\t OwnershipTransferred(owner, n...\n  PUSH [tag] 77\t\t\t OwnershipTransferred(owner, n...\n  JUMPI \t\t\t OwnershipTransferred(owner, n...\n  DUP2 \t\t\t\\n       \n  SWAP1 \t\t\tner, newOwner);\\n       \n  POP \t\t\tner, newOwner);\\n       \ntag 77\t\t\t OwnershipTransferred(owner, n...\n  JUMPDEST \t\t\t OwnershipTransferred(owner, n...\n  PUSH [tag] 78\t\t\ter;\\n    }\\n}\n  PUSH [tag] 79\t\t\t\n  DUP6 \t\t\t\n  PUSH [tag] 22\t\t\t\n  JUMP \t\t\t\ntag 79\t\t\t\n  JUMPDEST \t\t\t\n  DUP4 \t\t\t\n  ADD \t\t\t\n  DUP3 \t\t\t\n  PUSH [tag] 32\t\t\ter;\\n    }\\n}\n  JUMP \t\t\ter;\\n    }\\n}\ntag 78\t\t\ter;\\n    }\\n}\n  JUMPDEST \t\t\ter;\\n    }\\n}\n  POP \t\t\t+= _amount;\\n        emit Tran...\n  POP \t\t\t+= _amount;\\n        emit Tran...\ntag 74\t\t\tlanceOf[owner] += _amount;\\n  ...\n  JUMPDEST \t\t\tlanceOf[owner] += _amount;\\n  ...\n  POP \t\t\tnction mint(uint256 _amount) p...\n  POP \t\t\tnction mint(uint256 _amount) p...\n  POP \t\t\tnction mint(uint256 _amount) p...\n  JUMP \t\t\tnction mint(uint256 _amount) p...\ntag 34\t\t\t\n  JUMPDEST \t\t\t\n  PUSH 0\t\t\t\n  DUP3 \t\t\t\n  DUP3 \t\t\t\n  SHR \t\t\t\n  SWAP1 \t\t\t\n  POP \t\t\t\n  SWAP3 \t\t\t\n  SWAP2 \t\t\t\n  POP \t\t\t\n  POP \t\t\t\n  JUMP \t\t\t\ntag 35\t\t\t\n  JUMPDEST \t\t\t\n  PUSH 0\t\t\t\n  PUSH [tag] 82\t\t\t\n  PUSH 0\t\t\t\n  NOT \t\t\t\n  DUP5 \t\t\t\n  PUSH 8\t\t\t\n  MUL \t\t\t\n  PUSH [tag] 34\t\t\t\n  JUMP \t\t\t\ntag 82\t\t\t\n  JUMPDEST \t\t\t\n  NOT \t\t\t\n  DUP1 \t\t\t\n  DUP4 \t\t\t\n  AND \t\t\t\n  SWAP2 \t\t\t\n  POP \t\t\t\n  POP \t\t\t\n  SWAP3 \t\t\t\n  SWAP2 \t\t\t\n  POP \t\t\t\n  POP \t\t\t\n  JUMP \t\t\t\ntag 36\t\t\t\n  JUMPDEST \t\t\t\n  PUSH 0\t\t\t\n  PUSH [tag] 84\t\t\t\n  DUP4 \t\t\t\n  DUP4 \t\t\t\n  PUSH [tag] 35\t\t\t\n  JUMP \t\t\t\ntag 84\t\t\t\n  JUMPDEST \t\t\t\n  SWAP2 \t\t\t\n  POP \t\t\t\n  DUP3 \t\t\t\n  PUSH 2\t\t\t\n  MUL \t\t\t\n  DUP3 \t\t\t\n  OR \t\t\t\n  SWAP1 \t\t\t\n  POP \t\t\t\n  SWAP3 \t\t\t\n  SWAP2 \t\t\t\n  POP \t\t\t\n  POP \t\t\t\n  JUMP \t\t\t\ntag 2\t\t\t\n  JUMPDEST \t\t\t\n  PUSH [tag] 86\t\t\t\n  DUP3 \t\t\t\n  PUSH [tag] 17\t\t\t\n  JUMP \t\t\t\ntag 86\t\t\t\n  JUMPDEST \t\t\t\n  PUSH FFFFFFFFFFFFFFFF\t\t\t\n  DUP2 \t\t\t\n  GT \t\t\t\n  ISZERO \t\t\t\n  PUSH [tag] 87\t\t\t\n  JUMPI \t\t\t\n  PUSH [tag] 88\t\t\t\n  PUSH [tag] 18\t\t\t\n  JUMP \t\t\t\ntag 88\t\t\t\n  JUMPDEST \t\t\t\ntag 87\t\t\t\n  JUMPDEST \t\t\t\n  PUSH [tag] 89\t\t\t\n  DUP3 \t\t\t\n  SLOAD \t\t\t\n  PUSH [tag] 20\t\t\t\n  JUMP \t\t\t\ntag 89\t\t\t\n  JUMPDEST \t\t\t\n  PUSH [tag] 90\t\t\t\n  DUP3 \t\t\t\n  DUP3 \t\t\t\n  DUP6 \t\t\t\n  PUSH [tag] 33\t\t\t\n  JUMP \t\t\t\ntag 90\t\t\t\n  JUMPDEST \t\t\t\n  PUSH 0\t\t\t\n  PUSH 20\t\t\t\n  SWAP1 \t\t\t\n  POP \t\t\t\n  PUSH 1F\t\t\t\n  DUP4 \t\t\t\n  GT \t\t\t\n  PUSH 1\t\t\t\n  DUP2 \t\t\t\n  EQ \t\t\t\n  PUSH [tag] 92\t\t\t\n  JUMPI \t\t\t\n  PUSH 0\t\t\t\n  DUP5 \t\t\t\n  ISZERO \t\t\t\n  PUSH [tag] 93\t\t\t\n  JUMPI \t\t\t\n  DUP3 \t\t\t\n  DUP8 \t\t\t\n  ADD \t\t\t\n  MLOAD \t\t\t\n  SWAP1 \t\t\t\n  POP \t\t\t\ntag 93\t\t\t\n  JUMPDEST \t\t\t\n  PUSH [tag] 94\t\t\t\n  DUP6 \t\t\t\n  DUP3 \t\t\t\n  PUSH [tag] 36\t\t\t\n  JUMP \t\t\t\ntag 94\t\t\t\n  JUMPDEST \t\t\t\n  DUP7 \t\t\t\n  SSTORE \t\t\t\n  POP \t\t\t\n  PUSH [tag] 91\t\t\t\n  JUMP \t\t\t\ntag 92\t\t\t\n  JUMPDEST \t\t\t\n  PUSH 1F\t\t\t\n  NOT \t\t\t\n  DUP5 \t\t\t\n  AND \t\t\t\n  PUSH [tag] 95\t\t\t\n  DUP7 \t\t\t\n  PUSH [tag] 21\t\t\t\n  JUMP \t\t\t\ntag 95\t\t\t\n  JUMPDEST \t\t\t\n  PUSH 0\t\t\t\ntag 96\t\t\t\n  JUMPDEST \t\t\t\n  DUP3 \t\t\t\n  DUP2 \t\t\t\n  LT \t\t\t\n  ISZERO \t\t\t\n  PUSH [tag] 98\t\t\t\n  JUMPI \t\t\t\n  DUP5 \t\t\t\n  DUP10 \t\t\t\n  ADD \t\t\t\n  MLOAD \t\t\t\n  DUP3 \t\t\t\n  SSTORE \t\t\t\n  PUSH 1\t\t\t\n  DUP3 \t\t\t\n  ADD \t\t\t\n  SWAP2 \t\t\t\n  POP \t\t\t\n  PUSH 20\t\t\t\n  DUP6 \t\t\t\n  ADD \t\t\t\n  SWAP5 \t\t\t\n  POP \t\t\t\n  PUSH 20\t\t\t\n  DUP2 \t\t\t\n  ADD \t\t\t\n  SWAP1 \t\t\t\n  POP \t\t\t\n  PUSH [tag] 96\t\t\t\n  JUMP \t\t\t\ntag 98\t\t\t\n  JUMPDEST \t\t\t\n  DUP7 \t\t\t\n  DUP4 \t\t\t\n  LT \t\t\t\n  ISZERO \t\t\t\n  PUSH [tag] 99\t\t\t\n  JUMPI \t\t\t\n  DUP5 \t\t\t\n  DUP10 \t\t\t\n  ADD \t\t\t\n  MLOAD \t\t\t\n  PUSH [tag] 100\t\t\t\n  PUSH 1F\t\t\t\n  DUP10 \t\t\t\n  AND \t\t\t\n  DUP3 \t\t\t\n  PUSH [tag] 35\t\t\t\n  JUMP \t\t\t\ntag 100\t\t\t\n  JUMPDEST \t\t\t\n  DUP4 \t\t\t\n  SSTORE \t\t\t\n  POP \t\t\t\ntag 99\t\t\t\n  JUMPDEST \t\t\t\n  PUSH 1\t\t\t\n  PUSH 2\t\t\t\n  DUP9 \t\t\t\n  MUL \t\t\t\n  ADD \t\t\t\n  DUP9 \t\t\t\n  SSTORE \t\t\t\n  POP \t\t\t\n  POP \t\t\t\n  POP \t\t\t\ntag 91\t\t\t\n  JUMPDEST \t\t\t\n  POP \t\t\t\n  POP \t\t\t\n  POP \t\t\t\n  POP \t\t\t\n  POP \t\t\t\n  POP \t\t\t\n  JUMP \t\t\t\ntag 37\t\t\t\n  JUMPDEST \t\t\t\n  PUSH 4E487B7100000000000000000000000000000000000000000000000000000000\t\t\t\n  PUSH 0\t\t\t\n  MSTORE \t\t\t\n  PUSH 11\t\t\t\n  PUSH 4\t\t\t\n  MSTORE \t\t\t\n  PUSH 24\t\t\t\n  PUSH 0\t\t\t\n  REVERT \t\t\t\ntag 8\t\t\t\n  JUMPDEST \t\t\t\n  PUSH 0\t\t\t\n  PUSH [tag] 103\t\t\t\n  DUP3 \t\t\t\n  PUSH [tag] 25\t\t\t\n  JUMP \t\t\t\ntag 103\t\t\t\n  JUMPDEST \t\t\t\n  SWAP2 \t\t\t\n  POP \t\t\t\n  PUSH [tag] 104\t\t\t\n  DUP4 \t\t\t\n  PUSH [tag] 25\t\t\t\n  JUMP \t\t\t\ntag 104\t\t\t\n  JUMPDEST \t\t\t\n  SWAP3 \t\t\t\n  POP \t\t\t\n  DUP3 \t\t\t\n  DUP3 \t\t\t\n  MUL \t\t\t\n  PUSH [tag] 105\t\t\t\n  DUP2 \t\t\t\n  PUSH [tag] 25\t\t\t\n  JUMP \t\t\t\ntag 105\t\t\t\n  JUMPDEST \t\t\t\n  SWAP2 \t\t\t\n  POP \t\t\t\n  DUP3 \t\t\t\n  DUP3 \t\t\t\n  DIV \t\t\t\n  DUP5 \t\t\t\n  EQ \t\t\t\n  DUP4 \t\t\t\n  ISZERO \t\t\t\n  OR \t\t\t\n  PUSH [tag] 106\t\t\t\n  JUMPI \t\t\t\n  PUSH [tag] 107\t\t\t\n  PUSH [tag] 37\t\t\t\n  JUMP \t\t\t\ntag 107\t\t\t\n  JUMPDEST \t\t\t\ntag 106\t\t\t\n  JUMPDEST \t\t\t\n  POP \t\t\t\n  SWAP3 \t\t\t\n  SWAP2 \t\t\t\n  POP \t\t\t\n  POP \t\t\t\n  JUMP \t\t\t\ntag 38\t\t\t\n  JUMPDEST \t\t\t\n  PUSH [tag] 109\t\t\t\n  DUP2 \t\t\t\n  PUSH [tag] 25\t\t\t\n  JUMP \t\t\t\ntag 109\t\t\t\n  JUMPDEST \t\t\t\n  DUP3 \t\t\t\n  MSTORE \t\t\t\n  POP \t\t\t\n  POP \t\t\t\n  JUMP \t\t\t\ntag 15\t\t\t\n  JUMPDEST \t\t\t\n  PUSH 0\t\t\t\n  PUSH 20\t\t\t\n  DUP3 \t\t\t\n  ADD \t\t\t\n  SWAP1 \t\t\t\n  POP \t\t\t\n  PUSH [tag] 111\t\t\t\n  PUSH 0\t\t\t\n  DUP4 \t\t\t\n  ADD \t\t\t\n  DUP5 \t\t\t\n  PUSH [tag] 38\t\t\t\n  JUMP \t\t\t\ntag 111\t\t\t\n  JUMPDEST \t\t\t\n  SWAP3 \t\t\t\n  SWAP2 \t\t\t\n  POP \t\t\t\n  POP \t\t\t\n  JUMP \t\t\t\ntag 16\t\t\tcontract TerraReal {\\n    // P...\n  JUMPDEST \t\t\tcontract TerraReal {\\n    // P...\n  PUSH #[$] 0000000000000000000000000000000000000000000000000000000000000000\t\t\tcontract TerraReal {\\n    // P...\n  DUP1 \t\t\tcontract TerraReal {\\n    // P...\n  PUSH [$] 0000000000000000000000000000000000000000000000000000000000000000\t\t\tcontract TerraReal {\\n    // P...\n  PUSH 0\t\t\tcontract TerraReal {\\n    // P...\n  CODECOPY \t\t\tcontract TerraReal {\\n    // P...\n  PUSH 0\t\t\tcontract TerraReal {\\n    // P...\n  RETURN \t\t\tcontract TerraReal {\\n    // P...\n.data\n  0:\n    .code\n      PUSH 80\t\t\tcontract TerraReal {\\n    // P...\n      PUSH 40\t\t\tcontract TerraReal {\\n    // P...\n      MSTORE \t\t\tcontract TerraReal {\\n    // P...\n      CALLVALUE \t\t\tcontract TerraReal {\\n    // P...\n      DUP1 \t\t\tcontract TerraReal {\\n    // P...\n      ISZERO \t\t\tcontract TerraReal {\\n    // P...\n      PUSH [tag] 1\t\t\tcontract TerraReal {\\n    // P...\n      JUMPI \t\t\tcontract TerraReal {\\n    // P...\n      PUSH 0\t\t\tcontract TerraReal {\\n    // P...\n      DUP1 \t\t\tcontract TerraReal {\\n    // P...\n      REVERT \t\t\tcontract TerraReal {\\n    // P...\n    tag 1\t\t\tcontract TerraReal {\\n    // P...\n      JUMPDEST \t\t\tcontract TerraReal {\\n    // P...\n      POP \t\t\tcontract TerraReal {\\n    // P...\n      PUSH 4\t\t\tcontract TerraReal {\\n    // P...\n      CALLDATASIZE \t\t\tcontract TerraReal {\\n    // P...\n      LT \t\t\tcontract TerraReal {\\n    // P...\n      PUSH [tag] 2\t\t\tcontract TerraReal {\\n    // P...\n      JUMPI \t\t\tcontract TerraReal {\\n    // P...\n      PUSH 0\t\t\tcontract TerraReal {\\n    // P...\n      CALLDATALOAD \t\t\tcontract TerraReal {\\n    // P...\n      PUSH E0\t\t\tcontract TerraReal {\\n    // P...\n      SHR \t\t\tcontract TerraReal {\\n    // P...\n      DUP1 \t\t\tcontract TerraReal {\\n    // P...\n      PUSH 8DA5CB5B\t\t\tcontract TerraReal {\\n    // P...\n      GT \t\t\tcontract TerraReal {\\n    // P...\n      PUSH [tag] 18\t\t\tcontract TerraReal {\\n    // P...\n      JUMPI \t\t\tcontract TerraReal {\\n    // P...\n      DUP1 \t\t\tcontract TerraReal {\\n    // P...\n      PUSH DD62ED3E\t\t\tcontract TerraReal {\\n    // P...\n      GT \t\t\tcontract TerraReal {\\n    // P...\n      PUSH [tag] 19\t\t\tcontract TerraReal {\\n    // P...\n      JUMPI \t\t\tcontract TerraReal {\\n    // P...\n      DUP1 \t\t\tcontract TerraReal {\\n    // P...\n      PUSH DD62ED3E\t\t\tcontract TerraReal {\\n    // P...\n      EQ \t\t\tcontract TerraReal {\\n    // P...\n      PUSH [tag] 14\t\t\tcontract TerraReal {\\n    // P...\n      JUMPI \t\t\tcontract TerraReal {\\n    // P...\n      DUP1 \t\t\tcontract TerraReal {\\n    // P...\n      PUSH EE2BDD48\t\t\tcontract TerraReal {\\n    // P...\n      EQ \t\t\tcontract TerraReal {\\n    // P...\n      PUSH [tag] 15\t\t\tcontract TerraReal {\\n    // P...\n      JUMPI \t\t\tcontract TerraReal {\\n    // P...\n      DUP1 \t\t\tcontract TerraReal {\\n    // P...\n      PUSH F2FDE38B\t\t\tcontract TerraReal {\\n    // P...\n      EQ \t\t\tcontract TerraReal {\\n    // P...\n      PUSH [tag] 16\t\t\tcontract TerraReal {\\n    // P...\n      JUMPI \t\t\tcontract TerraReal {\\n    // P...\n      DUP1 \t\t\tcontract TerraReal {\\n    // P...\n      PUSH F3E00728\t\t\tcontract TerraReal {\\n    // P...\n      EQ \t\t\tcontract TerraReal {\\n    // P...\n      PUSH [tag] 17\t\t\tcontract TerraReal {\\n    // P...\n      JUMPI \t\t\tcontract TerraReal {\\n    // P...\n      PUSH [tag] 2\t\t\tcontract TerraReal {\\n    // P...\n      JUMP \t\t\tcontract TerraReal {\\n    // P...\n    tag 19\t\t\tcontract TerraReal {\\n    // P...\n      JUMPDEST \t\t\tcontract TerraReal {\\n    // P...\n      DUP1 \t\t\tcontract TerraReal {\\n    // P...\n      PUSH 8DA5CB5B\t\t\tcontract TerraReal {\\n    // P...\n      EQ \t\t\tcontract TerraReal {\\n    // P...\n      PUSH [tag] 10\t\t\tcontract TerraReal {\\n    // P...\n      JUMPI \t\t\tcontract TerraReal {\\n    // P...\n      DUP1 \t\t\tcontract TerraReal {\\n    // P...\n      PUSH 95D89B41\t\t\tcontract TerraReal {\\n    // P...\n      EQ \t\t\tcontract TerraReal {\\n    // P...\n      PUSH [tag] 11\t\t\tcontract TerraReal {\\n    // P...\n      JUMPI \t\t\tcontract TerraReal {\\n    // P...\n      DUP1 \t\t\tcontract TerraReal {\\n    // P...\n      PUSH A0712D68\t\t\tcontract TerraReal {\\n    // P...\n      EQ \t\t\tcontract TerraReal {\\n    // P...\n      PUSH [tag] 12\t\t\tcontract TerraReal {\\n    // P...\n      JUMPI \t\t\tcontract TerraReal {\\n    // P...\n      DUP1 \t\t\tcontract TerraReal {\\n    // P...\n      PUSH A9059CBB\t\t\tcontract TerraReal {\\n    // P...\n      EQ \t\t\tcontract TerraReal {\\n    // P...\n      PUSH [tag] 13\t\t\tcontract TerraReal {\\n    // P...\n      JUMPI \t\t\tcontract TerraReal {\\n    // P...\n      PUSH [tag] 2\t\t\tcontract TerraReal {\\n    // P...\n      JUMP \t\t\tcontract TerraReal {\\n    // P...\n    tag 18\t\t\tcontract TerraReal {\\n    // P...\n      JUMPDEST \t\t\tcontract TerraReal {\\n    // P...\n      DUP1 \t\t\tcontract TerraReal {\\n    // P...\n      PUSH 23B872DD\t\t\tcontract TerraReal {\\n    // P...\n      GT \t\t\tcontract TerraReal {\\n    // P...\n      PUSH [tag] 20\t\t\tcontract TerraReal {\\n    // P...\n      JUMPI \t\t\tcontract TerraReal {\\n    // P...\n      DUP1 \t\t\tcontract TerraReal {\\n    // P...\n      PUSH 23B872DD\t\t\tcontract TerraReal {\\n    // P...\n      EQ \t\t\tcontract TerraReal {\\n    // P...\n      PUSH [tag] 6\t\t\tcontract TerraReal {\\n    // P...\n      JUMPI \t\t\tcontract TerraReal {\\n    // P...\n      DUP1 \t\t\tcontract TerraReal {\\n    // P...\n      PUSH 313CE567\t\t\tcontract TerraReal {\\n    // P...\n      EQ \t\t\tcontract TerraReal {\\n    // P...\n      PUSH [tag] 7\t\t\tcontract TerraReal {\\n    // P...\n      JUMPI \t\t\tcontract TerraReal {\\n    // P...\n      DUP1 \t\t\tcontract TerraReal {\\n    // P...\n      PUSH 378DC3DC\t\t\tcontract TerraReal {\\n    // P...\n      EQ \t\t\tcontract TerraReal {\\n    // P...\n      PUSH [tag] 8\t\t\tcontract TerraReal {\\n    // P...\n      JUMPI \t\t\tcontract TerraReal {\\n    // P...\n      DUP1 \t\t\tcontract TerraReal {\\n    // P...\n      PUSH 70A08231\t\t\tcontract TerraReal {\\n    // P...\n      EQ \t\t\tcontract TerraReal {\\n    // P...\n      PUSH [tag] 9\t\t\tcontract TerraReal {\\n    // P...\n      JUMPI \t\t\tcontract TerraReal {\\n    // P...\n      PUSH [tag] 2\t\t\tcontract TerraReal {\\n    // P...\n      JUMP \t\t\tcontract TerraReal {\\n    // P...\n    tag 20\t\t\tcontract TerraReal {\\n    // P...\n      JUMPDEST \t\t\tcontract TerraReal {\\n    // P...\n      DUP1 \t\t\tcontract TerraReal {\\n    // P...\n      PUSH 6FDDE03\t\t\tcontract TerraReal {\\n    // P...\n      EQ \t\t\tcontract TerraReal {\\n    // P...\n      PUSH [tag] 3\t\t\tcontract TerraReal {\\n    // P...\n      JUMPI \t\t\tcontract TerraReal {\\n    // P...\n      DUP1 \t\t\tcontract TerraReal {\\n    // P...\n      PUSH 95EA7B3\t\t\tcontract TerraReal {\\n    // P...\n      EQ \t\t\tcontract TerraReal {\\n    // P...\n      PUSH [tag] 4\t\t\tcontract TerraReal {\\n    // P...\n      JUMPI \t\t\tcontract TerraReal {\\n    // P...\n      DUP1 \t\t\tcontract TerraReal {\\n    // P...\n      PUSH 18160DDD\t\t\tcontract TerraReal {\\n    // P...\n      EQ \t\t\tcontract TerraReal {\\n    // P...\n      PUSH [tag] 5\t\t\tcontract TerraReal {\\n    // P...\n      JUMPI \t\t\tcontract TerraReal {\\n    // P...\n    tag 2\t\t\tcontract TerraReal {\\n    // P...\n      JUMPDEST \t\t\tcontract TerraReal {\\n    // P...\n      PUSH 0\t\t\tcontract TerraReal {\\n    // P...\n      DUP1 \t\t\tcontract TerraReal {\\n    // P...\n      REVERT \t\t\tcontract TerraReal {\\n    // P...\n    tag 3\t\t\tstring public name = \"Terra Re...\n      JUMPDEST \t\t\tstring public name = \"Terra Re...\n      PUSH [tag] 21\t\t\tstring public name = \"Terra Re...\n      PUSH [tag] 22\t\t\tstring public name = \"Terra Re...\n      JUMP \t\t\tstring public name = \"Terra Re...\n    tag 21\t\t\tstring public name = \"Terra Re...\n      JUMPDEST \t\t\tstring public name = \"Terra Re...\n      PUSH 40\t\t\tstring public name = \"Terra Re...\n      MLOAD \t\t\tstring public name = \"Terra Re...\n      PUSH [tag] 23\t\t\tstring public name = \"Terra Re...\n      SWAP2 \t\t\tstring public name = \"Terra Re...\n      SWAP1 \t\t\tstring public name = \"Terra Re...\n      PUSH [tag] 24\t\t\tstring public name = \"Terra Re...\n      JUMP \t\t\tstring public name = \"Terra Re...\n    tag 23\t\t\tstring public name = \"Terra Re...\n      JUMPDEST \t\t\tstring public name = \"Terra Re...\n      PUSH 40\t\t\tstring public name = \"Terra Re...\n      MLOAD \t\t\tstring public name = \"Terra Re...\n      DUP1 \t\t\tstring public name = \"Terra Re...\n      SWAP2 \t\t\tstring public name = \"Terra Re...\n      SUB \t\t\tstring public name = \"Terra Re...\n      SWAP1 \t\t\tstring public name = \"Terra Re...\n      RETURN \t\t\tstring public name = \"Terra Re...\n    tag 4\t\t\tfunction approve(address _spen...\n      JUMPDEST \t\t\tfunction approve(address _spen...\n      PUSH [tag] 25\t\t\tfunction approve(address _spen...\n      PUSH 4\t\t\tfunction approve(address _spen...\n      DUP1 \t\t\tfunction approve(address _spen...\n      CALLDATASIZE \t\t\tfunction approve(address _spen...\n      SUB \t\t\tfunction approve(address _spen...\n      DUP2 \t\t\tfunction approve(address _spen...\n      ADD \t\t\tfunction approve(address _spen...\n      SWAP1 \t\t\tfunction approve(address _spen...\n      PUSH [tag] 26\t\t\tfunction approve(address _spen...\n      SWAP2 \t\t\tfunction approve(address _spen...\n      SWAP1 \t\t\tfunction approve(address _spen...\n      PUSH [tag] 27\t\t\tfunction approve(address _spen...\n      JUMP \t\t\tfunction approve(address _spen...\n    tag 26\t\t\tfunction approve(address _spen...\n      JUMPDEST \t\t\tfunction approve(address _spen...\n      PUSH [tag] 28\t\t\tfunction approve(address _spen...\n      JUMP \t\t\tfunction approve(address _spen...\n    tag 25\t\t\tfunction approve(address _spen...\n      JUMPDEST \t\t\tfunction approve(address _spen...\n      PUSH 40\t\t\tfunction approve(address _spen...\n      MLOAD \t\t\tfunction approve(address _spen...\n      PUSH [tag] 29\t\t\tfunction approve(address _spen...\n      SWAP2 \t\t\tfunction approve(address _spen...\n      SWAP1 \t\t\tfunction approve(address _spen...\n      PUSH [tag] 30\t\t\tfunction approve(address _spen...\n      JUMP \t\t\tfunction approve(address _spen...\n    tag 29\t\t\tfunction approve(address _spen...\n      JUMPDEST \t\t\tfunction approve(address _spen...\n      PUSH 40\t\t\tfunction approve(address _spen...\n      MLOAD \t\t\tfunction approve(address _spen...\n      DUP1 \t\t\tfunction approve(address _spen...\n      SWAP2 \t\t\tfunction approve(address _spen...\n      SUB \t\t\tfunction approve(address _spen...\n      SWAP1 \t\t\tfunction approve(address _spen...\n      RETURN \t\t\tfunction approve(address _spen...\n    tag 5\t\t\tuint256 public totalSupply\n      JUMPDEST \t\t\tuint256 public totalSupply\n      PUSH [tag] 31\t\t\tuint256 public totalSupply\n      PUSH [tag] 32\t\t\tuint256 public totalSupply\n      JUMP \t\t\tuint256 public totalSupply\n    tag 31\t\t\tuint256 public totalSupply\n      JUMPDEST \t\t\tuint256 public totalSupply\n      PUSH 40\t\t\tuint256 public totalSupply\n      MLOAD \t\t\tuint256 public totalSupply\n      PUSH [tag] 33\t\t\tuint256 public totalSupply\n      SWAP2 \t\t\tuint256 public totalSupply\n      SWAP1 \t\t\tuint256 public totalSupply\n      PUSH [tag] 34\t\t\tuint256 public totalSupply\n      JUMP \t\t\tuint256 public totalSupply\n    tag 33\t\t\tuint256 public totalSupply\n      JUMPDEST \t\t\tuint256 public totalSupply\n      PUSH 40\t\t\tuint256 public totalSupply\n      MLOAD \t\t\tuint256 public totalSupply\n      DUP1 \t\t\tuint256 public totalSupply\n      SWAP2 \t\t\tuint256 public totalSupply\n      SUB \t\t\tuint256 public totalSupply\n      SWAP1 \t\t\tuint256 public totalSupply\n      RETURN \t\t\tuint256 public totalSupply\n    tag 6\t\t\tfunction transferFrom(address ...\n      JUMPDEST \t\t\tfunction transferFrom(address ...\n      PUSH [tag] 35\t\t\tfunction transferFrom(address ...\n      PUSH 4\t\t\tfunction transferFrom(address ...\n      DUP1 \t\t\tfunction transferFrom(address ...\n      CALLDATASIZE \t\t\tfunction transferFrom(address ...\n      SUB \t\t\tfunction transferFrom(address ...\n      DUP2 \t\t\tfunction transferFrom(address ...\n      ADD \t\t\tfunction transferFrom(address ...\n      SWAP1 \t\t\tfunction transferFrom(address ...\n      PUSH [tag] 36\t\t\tfunction transferFrom(address ...\n      SWAP2 \t\t\tfunction transferFrom(address ...\n      SWAP1 \t\t\tfunction transferFrom(address ...\n      PUSH [tag] 37\t\t\tfunction transferFrom(address ...\n      JUMP \t\t\tfunction transferFrom(address ...\n    tag 36\t\t\tfunction transferFrom(address ...\n      JUMPDEST \t\t\tfunction transferFrom(address ...\n      PUSH [tag] 38\t\t\tfunction transferFrom(address ...\n      JUMP \t\t\tfunction transferFrom(address ...\n    tag 35\t\t\tfunction transferFrom(address ...\n      JUMPDEST \t\t\tfunction transferFrom(address ...\n      PUSH 40\t\t\tfunction transferFrom(address ...\n      MLOAD \t\t\tfunction transferFrom(address ...\n      PUSH [tag] 39\t\t\tfunction transferFrom(address ...\n      SWAP2 \t\t\tfunction transferFrom(address ...\n      SWAP1 \t\t\tfunction transferFrom(address ...\n      PUSH [tag] 30\t\t\tfunction transferFrom(address ...\n      JUMP \t\t\tfunction transferFrom(address ...\n    tag 39\t\t\tfunction transferFrom(address ...\n      JUMPDEST \t\t\tfunction transferFrom(address ...\n      PUSH 40\t\t\tfunction transferFrom(address ...\n      MLOAD \t\t\tfunction transferFrom(address ...\n      DUP1 \t\t\tfunction transferFrom(address ...\n      SWAP2 \t\t\tfunction transferFrom(address ...\n      SUB \t\t\tfunction transferFrom(address ...\n      SWAP1 \t\t\tfunction transferFrom(address ...\n      RETURN \t\t\tfunction transferFrom(address ...\n    tag 7\t\t\tuint8 public decimals = 0\n      JUMPDEST \t\t\tuint8 public decimals = 0\n      PUSH [tag] 40\t\t\tuint8 public decimals = 0\n      PUSH [tag] 41\t\t\tuint8 public decimals = 0\n      JUMP \t\t\tuint8 public decimals = 0\n    tag 40\t\t\tuint8 public decimals = 0\n      JUMPDEST \t\t\tuint8 public decimals = 0\n      PUSH 40\t\t\tuint8 public decimals = 0\n      MLOAD \t\t\tuint8 public decimals = 0\n      PUSH [tag] 42\t\t\tuint8 public decimals = 0\n      SWAP2 \t\t\tuint8 public decimals = 0\n      SWAP1 \t\t\tuint8 public decimals = 0\n      PUSH [tag] 43\t\t\tuint8 public decimals = 0\n      JUMP \t\t\tuint8 public decimals = 0\n    tag 42\t\t\tuint8 public decimals = 0\n      JUMPDEST \t\t\tuint8 public decimals = 0\n      PUSH 40\t\t\tuint8 public decimals = 0\n      MLOAD \t\t\tuint8 public decimals = 0\n      DUP1 \t\t\tuint8 public decimals = 0\n      SWAP2 \t\t\tuint8 public decimals = 0\n      SUB \t\t\tuint8 public decimals = 0\n      SWAP1 \t\t\tuint8 public decimals = 0\n      RETURN \t\t\tuint8 public decimals = 0\n    tag 8\t\t\tuint256 public constant initia...\n      JUMPDEST \t\t\tuint256 public constant initia...\n      PUSH [tag] 44\t\t\tuint256 public constant initia...\n      PUSH [tag] 45\t\t\tuint256 public constant initia...\n      JUMP \t\t\tuint256 public constant initia...\n    tag 44\t\t\tuint256 public constant initia...\n      JUMPDEST \t\t\tuint256 public constant initia...\n      PUSH 40\t\t\tuint256 public constant initia...\n      MLOAD \t\t\tuint256 public constant initia...\n      PUSH [tag] 46\t\t\tuint256 public constant initia...\n      SWAP2 \t\t\tuint256 public constant initia...\n      SWAP1 \t\t\tuint256 public constant initia...\n      PUSH [tag] 34\t\t\tuint256 public constant initia...\n      JUMP \t\t\tuint256 public constant initia...\n    tag 46\t\t\tuint256 public constant initia...\n      JUMPDEST \t\t\tuint256 public constant initia...\n      PUSH 40\t\t\tuint256 public constant initia...\n      MLOAD \t\t\tuint256 public constant initia...\n      DUP1 \t\t\tuint256 public constant initia...\n      SWAP2 \t\t\tuint256 public constant initia...\n      SUB \t\t\tuint256 public constant initia...\n      SWAP1 \t\t\tuint256 public constant initia...\n      RETURN \t\t\tuint256 public constant initia...\n    tag 9\t\t\tmapping(address => uint256) pu...\n      JUMPDEST \t\t\tmapping(address => uint256) pu...\n      PUSH [tag] 47\t\t\tmapping(address => uint256) pu...\n      PUSH 4\t\t\tmapping(address => uint256) pu...\n      DUP1 \t\t\tmapping(address => uint256) pu...\n      CALLDATASIZE \t\t\tmapping(address => uint256) pu...\n      SUB \t\t\tmapping(address => uint256) pu...\n      DUP2 \t\t\tmapping(address => uint256) pu...\n      ADD \t\t\tmapping(address => uint256) pu...\n      SWAP1 \t\t\tmapping(address => uint256) pu...\n      PUSH [tag] 48\t\t\tmapping(address => uint256) pu...\n      SWAP2 \t\t\tmapping(address => uint256) pu...\n      SWAP1 \t\t\tmapping(address => uint256) pu...\n      PUSH [tag] 49\t\t\tmapping(address => uint256) pu...\n      JUMP \t\t\tmapping(address => uint256) pu...\n    tag 48\t\t\tmapping(address => uint256) pu...\n      JUMPDEST \t\t\tmapping(address => uint256) pu...\n      PUSH [tag] 50\t\t\tmapping(address => uint256) pu...\n      JUMP \t\t\tmapping(address => uint256) pu...\n    tag 47\t\t\tmapping(address => uint256) pu...\n      JUMPDEST \t\t\tmapping(address => uint256) pu...\n      PUSH 40\t\t\tmapping(address => uint256) pu...\n      MLOAD \t\t\tmapping(address => uint256) pu...\n      PUSH [tag] 51\t\t\tmapping(address => uint256) pu...\n      SWAP2 \t\t\tmapping(address => uint256) pu...\n      SWAP1 \t\t\tmapping(address => uint256) pu...\n      PUSH [tag] 34\t\t\tmapping(address => uint256) pu...\n      JUMP \t\t\tmapping(address => uint256) pu...\n    tag 51\t\t\tmapping(address => uint256) pu...\n      JUMPDEST \t\t\tmapping(address => uint256) pu...\n      PUSH 40\t\t\tmapping(address => uint256) pu...\n      MLOAD \t\t\tmapping(address => uint256) pu...\n      DUP1 \t\t\tmapping(address => uint256) pu...\n      SWAP2 \t\t\tmapping(address => uint256) pu...\n      SUB \t\t\tmapping(address => uint256) pu...\n      SWAP1 \t\t\tmapping(address => uint256) pu...\n      RETURN \t\t\tmapping(address => uint256) pu...\n    tag 10\t\t\taddress public owner\n      JUMPDEST \t\t\taddress public owner\n      PUSH [tag] 52\t\t\taddress public owner\n      PUSH [tag] 53\t\t\taddress public owner\n      JUMP \t\t\taddress public owner\n    tag 52\t\t\taddress public owner\n      JUMPDEST \t\t\taddress public owner\n      PUSH 40\t\t\taddress public owner\n      MLOAD \t\t\taddress public owner\n      PUSH [tag] 54\t\t\taddress public owner\n      SWAP2 \t\t\taddress public owner\n      SWAP1 \t\t\taddress public owner\n      PUSH [tag] 55\t\t\taddress public owner\n      JUMP \t\t\taddress public owner\n    tag 54\t\t\taddress public owner\n      JUMPDEST \t\t\taddress public owner\n      PUSH 40\t\t\taddress public owner\n      MLOAD \t\t\taddress public owner\n      DUP1 \t\t\taddress public owner\n      SWAP2 \t\t\taddress public owner\n      SUB \t\t\taddress public owner\n      SWAP1 \t\t\taddress public owner\n      RETURN \t\t\taddress public owner\n    tag 11\t\t\tstring public symbol = \"TR\"\n      JUMPDEST \t\t\tstring public symbol = \"TR\"\n      PUSH [tag] 56\t\t\tstring public symbol = \"TR\"\n      PUSH [tag] 57\t\t\tstring public symbol = \"TR\"\n      JUMP \t\t\tstring public symbol = \"TR\"\n    tag 56\t\t\tstring public symbol = \"TR\"\n      JUMPDEST \t\t\tstring public symbol = \"TR\"\n      PUSH 40\t\t\tstring public symbol = \"TR\"\n      MLOAD \t\t\tstring public symbol = \"TR\"\n      PUSH [tag] 58\t\t\tstring public symbol = \"TR\"\n      SWAP2 \t\t\tstring public symbol = \"TR\"\n      SWAP1 \t\t\tstring public symbol = \"TR\"\n      PUSH [tag] 24\t\t\tstring public symbol = \"TR\"\n      JUMP \t\t\tstring public symbol = \"TR\"\n    tag 58\t\t\tstring public symbol = \"TR\"\n      JUMPDEST \t\t\tstring public symbol = \"TR\"\n      PUSH 40\t\t\tstring public symbol = \"TR\"\n      MLOAD \t\t\tstring public symbol = \"TR\"\n      DUP1 \t\t\tstring public symbol = \"TR\"\n      SWAP2 \t\t\tstring public symbol = \"TR\"\n      SUB \t\t\tstring public symbol = \"TR\"\n      SWAP1 \t\t\tstring public symbol = \"TR\"\n      RETURN \t\t\tstring public symbol = \"TR\"\n    tag 12\t\t\tfunction mint(uint256 _amount)...\n      JUMPDEST \t\t\tfunction mint(uint256 _amount)...\n      PUSH [tag] 59\t\t\tfunction mint(uint256 _amount)...\n      PUSH 4\t\t\tfunction mint(uint256 _amount)...\n      DUP1 \t\t\tfunction mint(uint256 _amount)...\n      CALLDATASIZE \t\t\tfunction mint(uint256 _amount)...\n      SUB \t\t\tfunction mint(uint256 _amount)...\n      DUP2 \t\t\tfunction mint(uint256 _amount)...\n      ADD \t\t\tfunction mint(uint256 _amount)...\n      SWAP1 \t\t\tfunction mint(uint256 _amount)...\n      PUSH [tag] 60\t\t\tfunction mint(uint256 _amount)...\n      SWAP2 \t\t\tfunction mint(uint256 _amount)...\n      SWAP1 \t\t\tfunction mint(uint256 _amount)...\n      PUSH [tag] 61\t\t\tfunction mint(uint256 _amount)...\n      JUMP \t\t\tfunction mint(uint256 _amount)...\n    tag 60\t\t\tfunction mint(uint256 _amount)...\n      JUMPDEST \t\t\tfunction mint(uint256 _amount)...\n      PUSH [tag] 62\t\t\tfunction mint(uint256 _amount)...\n      JUMP \t\t\tfunction mint(uint256 _amount)...\n    tag 59\t\t\tfunction mint(uint256 _amount)...\n      JUMPDEST \t\t\tfunction mint(uint256 _amount)...\n      STOP \t\t\tfunction mint(uint256 _amount)...\n    tag 13\t\t\tfunction transfer(address _to,...\n      JUMPDEST \t\t\tfunction transfer(address _to,...\n      PUSH [tag] 63\t\t\tfunction transfer(address _to,...\n      PUSH 4\t\t\tfunction transfer(address _to,...\n      DUP1 \t\t\tfunction transfer(address _to,...\n      CALLDATASIZE \t\t\tfunction transfer(address _to,...\n      SUB \t\t\tfunction transfer(address _to,...\n      DUP2 \t\t\tfunction transfer(address _to,...\n      ADD \t\t\tfunction transfer(address _to,...\n      SWAP1 \t\t\tfunction transfer(address _to,...\n      PUSH [tag] 64\t\t\tfunction transfer(address _to,...\n      SWAP2 \t\t\tfunction transfer(address _to,...\n      SWAP1 \t\t\tfunction transfer(address _to,...\n      PUSH [tag] 27\t\t\tfunction transfer(address _to,...\n      JUMP \t\t\tfunction transfer(address _to,...\n    tag 64\t\t\tfunction transfer(address _to,...\n      JUMPDEST \t\t\tfunction transfer(address _to,...\n      PUSH [tag] 65\t\t\tfunction transfer(address _to,...\n      JUMP \t\t\tfunction transfer(address _to,...\n    tag 63\t\t\tfunction transfer(address _to,...\n      JUMPDEST \t\t\tfunction transfer(address _to,...\n      PUSH 40\t\t\tfunction transfer(address _to,...\n      MLOAD \t\t\tfunction transfer(address _to,...\n      PUSH [tag] 66\t\t\tfunction transfer(address _to,...\n      SWAP2 \t\t\tfunction transfer(address _to,...\n      SWAP1 \t\t\tfunction transfer(address _to,...\n      PUSH [tag] 30\t\t\tfunction transfer(address _to,...\n      JUMP \t\t\tfunction transfer(address _to,...\n    tag 66\t\t\tfunction transfer(address _to,...\n      JUMPDEST \t\t\tfunction transfer(address _to,...\n      PUSH 40\t\t\tfunction transfer(address _to,...\n      MLOAD \t\t\tfunction transfer(address _to,...\n      DUP1 \t\t\tfunction transfer(address _to,...\n      SWAP2 \t\t\tfunction transfer(address _to,...\n      SUB \t\t\tfunction transfer(address _to,...\n      SWAP1 \t\t\tfunction transfer(address _to,...\n      RETURN \t\t\tfunction transfer(address _to,...\n    tag 14\t\t\tmapping(address => mapping(add...\n      JUMPDEST \t\t\tmapping(address => mapping(add...\n      PUSH [tag] 67\t\t\tmapping(address => mapping(add...\n      PUSH 4\t\t\tmapping(address => mapping(add...\n      DUP1 \t\t\tmapping(address => mapping(add...\n      CALLDATASIZE \t\t\tmapping(address => mapping(add...\n      SUB \t\t\tmapping(address => mapping(add...\n      DUP2 \t\t\tmapping(address => mapping(add...\n      ADD \t\t\tmapping(address => mapping(add...\n      SWAP1 \t\t\tmapping(address => mapping(add...\n      PUSH [tag] 68\t\t\tmapping(address => mapping(add...\n      SWAP2 \t\t\tmapping(address => mapping(add...\n      SWAP1 \t\t\tmapping(address => mapping(add...\n      PUSH [tag] 69\t\t\tmapping(address => mapping(add...\n      JUMP \t\t\tmapping(address => mapping(add...\n    tag 68\t\t\tmapping(address => mapping(add...\n      JUMPDEST \t\t\tmapping(address => mapping(add...\n      PUSH [tag] 70\t\t\tmapping(address => mapping(add...\n      JUMP \t\t\tmapping(address => mapping(add...\n    tag 67\t\t\tmapping(address => mapping(add...\n      JUMPDEST \t\t\tmapping(address => mapping(add...\n      PUSH 40\t\t\tmapping(address => mapping(add...\n      MLOAD \t\t\tmapping(address => mapping(add...\n      PUSH [tag] 71\t\t\tmapping(address => mapping(add...\n      SWAP2 \t\t\tmapping(address => mapping(add...\n      SWAP1 \t\t\tmapping(address => mapping(add...\n      PUSH [tag] 34\t\t\tmapping(address => mapping(add...\n      JUMP \t\t\tmapping(address => mapping(add...\n    tag 71\t\t\tmapping(address => mapping(add...\n      JUMPDEST \t\t\tmapping(address => mapping(add...\n      PUSH 40\t\t\tmapping(address => mapping(add...\n      MLOAD \t\t\tmapping(address => mapping(add...\n      DUP1 \t\t\tmapping(address => mapping(add...\n      SWAP2 \t\t\tmapping(address => mapping(add...\n      SUB \t\t\tmapping(address => mapping(add...\n      SWAP1 \t\t\tmapping(address => mapping(add...\n      RETURN \t\t\tmapping(address => mapping(add...\n    tag 15\t\t\tuint256 public constant hectar...\n      JUMPDEST \t\t\tuint256 public constant hectar...\n      PUSH [tag] 72\t\t\tuint256 public constant hectar...\n      PUSH [tag] 73\t\t\tuint256 public constant hectar...\n      JUMP \t\t\tuint256 public constant hectar...\n    tag 72\t\t\tuint256 public constant hectar...\n      JUMPDEST \t\t\tuint256 public constant hectar...\n      PUSH 40\t\t\tuint256 public constant hectar...\n      MLOAD \t\t\tuint256 public constant hectar...\n      PUSH [tag] 74\t\t\tuint256 public constant hectar...\n      SWAP2 \t\t\tuint256 public constant hectar...\n      SWAP1 \t\t\tuint256 public constant hectar...\n      PUSH [tag] 34\t\t\tuint256 public constant hectar...\n      JUMP \t\t\tuint256 public constant hectar...\n    tag 74\t\t\tuint256 public constant hectar...\n      JUMPDEST \t\t\tuint256 public constant hectar...\n      PUSH 40\t\t\tuint256 public constant hectar...\n      MLOAD \t\t\tuint256 public constant hectar...\n      DUP1 \t\t\tuint256 public constant hectar...\n      SWAP2 \t\t\tuint256 public constant hectar...\n      SUB \t\t\tuint256 public constant hectar...\n      SWAP1 \t\t\tuint256 public constant hectar...\n      RETURN \t\t\tuint256 public constant hectar...\n    tag 16\t\t\tfunction transferOwnership(add...\n      JUMPDEST \t\t\tfunction transferOwnership(add...\n      PUSH [tag] 75\t\t\tfunction transferOwnership(add...\n      PUSH 4\t\t\tfunction transferOwnership(add...\n      DUP1 \t\t\tfunction transferOwnership(add...\n      CALLDATASIZE \t\t\tfunction transferOwnership(add...\n      SUB \t\t\tfunction transferOwnership(add...\n      DUP2 \t\t\tfunction transferOwnership(add...\n      ADD \t\t\tfunction transferOwnership(add...\n      SWAP1 \t\t\tfunction transferOwnership(add...\n      PUSH [tag] 76\t\t\tfunction transferOwnership(add...\n      SWAP2 \t\t\tfunction transferOwnership(add...\n      SWAP1 \t\t\tfunction transferOwnership(add...\n      PUSH [tag] 49\t\t\tfunction transferOwnership(add...\n      JUMP \t\t\tfunction transferOwnership(add...\n    tag 76\t\t\tfunction transferOwnership(add...\n      JUMPDEST \t\t\tfunction transferOwnership(add...\n      PUSH [tag] 77\t\t\tfunction transferOwnership(add...\n      JUMP \t\t\tfunction transferOwnership(add...\n    tag 75\t\t\tfunction transferOwnership(add...\n      JUMPDEST \t\t\tfunction transferOwnership(add...\n      STOP \t\t\tfunction transferOwnership(add...\n    tag 17\t\t\tuint256 public constant square...\n      JUMPDEST \t\t\tuint256 public constant square...\n      PUSH [tag] 78\t\t\tuint256 public constant square...\n      PUSH [tag] 79\t\t\tuint256 public constant square...\n      JUMP \t\t\tuint256 public constant square...\n    tag 78\t\t\tuint256 public constant square...\n      JUMPDEST \t\t\tuint256 public constant square...\n      PUSH 40\t\t\tuint256 public constant square...\n      MLOAD \t\t\tuint256 public constant square...\n      PUSH [tag] 80\t\t\tuint256 public constant square...\n      SWAP2 \t\t\tuint256 public constant square...\n      SWAP1 \t\t\tuint256 public constant square...\n      PUSH [tag] 34\t\t\tuint256 public constant square...\n      JUMP \t\t\tuint256 public constant square...\n    tag 80\t\t\tuint256 public constant square...\n      JUMPDEST \t\t\tuint256 public constant square...\n      PUSH 40\t\t\tuint256 public constant square...\n      MLOAD \t\t\tuint256 public constant square...\n      DUP1 \t\t\tuint256 public constant square...\n      SWAP2 \t\t\tuint256 public constant square...\n      SUB \t\t\tuint256 public constant square...\n      SWAP1 \t\t\tuint256 public constant square...\n      RETURN \t\t\tuint256 public constant square...\n    tag 22\t\t\tstring public name = \"Terra Re...\n      JUMPDEST \t\t\tstring public name = \"Terra Re...\n      PUSH 0\t\t\tstring public name = \"Terra Re...\n      DUP1 \t\t\tstring public name = \"Terra Re...\n      SLOAD \t\t\tstring public name = \"Terra Re...\n      PUSH [tag] 81\t\t\tstring public name = \"Terra Re...\n      SWAP1 \t\t\tstring public name = \"Terra Re...\n      PUSH [tag] 82\t\t\tstring public name = \"Terra Re...\n      JUMP \t\t\tstring public name = \"Terra Re...\n    tag 81\t\t\tstring public name = \"Terra Re...\n      JUMPDEST \t\t\tstring public name = \"Terra Re...\n      DUP1 \t\t\tstring public name = \"Terra Re...\n      PUSH 1F\t\t\tstring public name = \"Terra Re...\n      ADD \t\t\tstring public name = \"Terra Re...\n      PUSH 20\t\t\tstring public name = \"Terra Re...\n      DUP1 \t\t\tstring public name = \"Terra Re...\n      SWAP2 \t\t\tstring public name = \"Terra Re...\n      DIV \t\t\tstring public name = \"Terra Re...\n      MUL \t\t\tstring public name = \"Terra Re...\n      PUSH 20\t\t\tstring public name = \"Terra Re...\n      ADD \t\t\tstring public name = \"Terra Re...\n      PUSH 40\t\t\tstring public name = \"Terra Re...\n      MLOAD \t\t\tstring public name = \"Terra Re...\n      SWAP1 \t\t\tstring public name = \"Terra Re...\n      DUP2 \t\t\tstring public name = \"Terra Re...\n      ADD \t\t\tstring public name = \"Terra Re...\n      PUSH 40\t\t\tstring public name = \"Terra Re...\n      MSTORE \t\t\tstring public name = \"Terra Re...\n      DUP1 \t\t\tstring public name = \"Terra Re...\n      SWAP3 \t\t\tstring public name = \"Terra Re...\n      SWAP2 \t\t\tstring public name = \"Terra Re...\n      SWAP1 \t\t\tstring public name = \"Terra Re...\n      DUP2 \t\t\tstring public name = \"Terra Re...\n      DUP2 \t\t\tstring public name = \"Terra Re...\n      MSTORE \t\t\tstring public name = \"Terra Re...\n      PUSH 20\t\t\tstring public name = \"Terra Re...\n      ADD \t\t\tstring public name = \"Terra Re...\n      DUP3 \t\t\tstring public name = \"Terra Re...\n      DUP1 \t\t\tstring public name = \"Terra Re...\n      SLOAD \t\t\tstring public name = \"Terra Re...\n      PUSH [tag] 83\t\t\tstring public name = \"Terra Re...\n      SWAP1 \t\t\tstring public name = \"Terra Re...\n      PUSH [tag] 82\t\t\tstring public name = \"Terra Re...\n      JUMP \t\t\tstring public name = \"Terra Re...\n    tag 83\t\t\tstring public name = \"Terra Re...\n      JUMPDEST \t\t\tstring public name = \"Terra Re...\n      DUP1 \t\t\tstring public name = \"Terra Re...\n      ISZERO \t\t\tstring public name = \"Terra Re...\n      PUSH [tag] 84\t\t\tstring public name = \"Terra Re...\n      JUMPI \t\t\tstring public name = \"Terra Re...\n      DUP1 \t\t\tstring public name = \"Terra Re...\n      PUSH 1F\t\t\tstring public name = \"Terra Re...\n      LT \t\t\tstring public name = \"Terra Re...\n      PUSH [tag] 85\t\t\tstring public name = \"Terra Re...\n      JUMPI \t\t\tstring public name = \"Terra Re...\n      PUSH 100\t\t\tstring public name = \"Terra Re...\n      DUP1 \t\t\tstring public name = \"Terra Re...\n      DUP4 \t\t\tstring public name = \"Terra Re...\n      SLOAD \t\t\tstring public name = \"Terra Re...\n      DIV \t\t\tstring public name = \"Terra Re...\n      MUL \t\t\tstring public name = \"Terra Re...\n      DUP4 \t\t\tstring public name = \"Terra Re...\n      MSTORE \t\t\tstring public name = \"Terra Re...\n      SWAP2 \t\t\tstring public name = \"Terra Re...\n      PUSH 20\t\t\tstring public name = \"Terra Re...\n      ADD \t\t\tstring public name = \"Terra Re...\n      SWAP2 \t\t\tstring public name = \"Terra Re...\n      PUSH [tag] 84\t\t\tstring public name = \"Terra Re...\n      JUMP \t\t\tstring public name = \"Terra Re...\n    tag 85\t\t\tstring public name = \"Terra Re...\n      JUMPDEST \t\t\tstring public name = \"Terra Re...\n      DUP3 \t\t\tstring public name = \"Terra Re...\n      ADD \t\t\tstring public name = \"Terra Re...\n      SWAP2 \t\t\tstring public name = \"Terra Re...\n      SWAP1 \t\t\tstring public name = \"Terra Re...\n      PUSH 0\t\t\tstring public name = \"Terra Re...\n      MSTORE \t\t\tstring public name = \"Terra Re...\n      PUSH 20\t\t\tstring public name = \"Terra Re...\n      PUSH 0\t\t\tstring public name = \"Terra Re...\n      KECCAK256 \t\t\tstring public name = \"Terra Re...\n      SWAP1 \t\t\tstring public name = \"Terra Re...\n    tag 86\t\t\tstring public name = \"Terra Re...\n      JUMPDEST \t\t\tstring public name = \"Terra Re...\n      DUP2 \t\t\tstring public name = \"Terra Re...\n      SLOAD \t\t\tstring public name = \"Terra Re...\n      DUP2 \t\t\tstring public name = \"Terra Re...\n      MSTORE \t\t\tstring public name = \"Terra Re...\n      SWAP1 \t\t\tstring public name = \"Terra Re...\n      PUSH 1\t\t\tstring public name = \"Terra Re...\n      ADD \t\t\tstring public name = \"Terra Re...\n      SWAP1 \t\t\tstring public name = \"Terra Re...\n      PUSH 20\t\t\tstring public name = \"Terra Re...\n      ADD \t\t\tstring public name = \"Terra Re...\n      DUP1 \t\t\tstring public name = \"Terra Re...\n      DUP4 \t\t\tstring public name = \"Terra Re...\n      GT \t\t\tstring public name = \"Terra Re...\n      PUSH [tag] 86\t\t\tstring public name = \"Terra Re...\n      JUMPI \t\t\tstring public name = \"Terra Re...\n      DUP3 \t\t\tstring public name = \"Terra Re...\n      SWAP1 \t\t\tstring public name = \"Terra Re...\n      SUB \t\t\tstring public name = \"Terra Re...\n      PUSH 1F\t\t\tstring public name = \"Terra Re...\n      AND \t\t\tstring public name = \"Terra Re...\n      DUP3 \t\t\tstring public name = \"Terra Re...\n      ADD \t\t\tstring public name = \"Terra Re...\n      SWAP2 \t\t\tstring public name = \"Terra Re...\n    tag 84\t\t\tstring public name = \"Terra Re...\n      JUMPDEST \t\t\tstring public name = \"Terra Re...\n      POP \t\t\tstring public name = \"Terra Re...\n      POP \t\t\tstring public name = \"Terra Re...\n      POP \t\t\tstring public name = \"Terra Re...\n      POP \t\t\tstring public name = \"Terra Re...\n      POP \t\t\tstring public name = \"Terra Re...\n      DUP2 \t\t\tstring public name = \"Terra Re...\n      JUMP \t\t\tstring public name = \"Terra Re...\n    tag 28\t\t\tfunction approve(address _spen...\n      JUMPDEST \t\t\tfunction approve(address _spen...\n      PUSH 0\t\t\tbool success\n      DUP2 \t\t\t_value\n      PUSH 6\t\t\tallowance\n      PUSH 0\t\t\tallowance[msg.sender]\n      CALLER \t\t\tmsg.sender\n      PUSH FFFFFFFFFFFFFFFFFFFFFFFFFFFFFFFFFFFFFFFF\t\t\tallowance[msg.sender]\n      AND \t\t\tallowance[msg.sender]\n      PUSH FFFFFFFFFFFFFFFFFFFFFFFFFFFFFFFFFFFFFFFF\t\t\tallowance[msg.sender]\n      AND \t\t\tallowance[msg.sender]\n      DUP2 \t\t\tallowance[msg.sender]\n      MSTORE \t\t\tallowance[msg.sender]\n      PUSH 20\t\t\tallowance[msg.sender]\n      ADD \t\t\tallowance[msg.sender]\n      SWAP1 \t\t\tallowance[msg.sender]\n      DUP2 \t\t\tallowance[msg.sender]\n      MSTORE \t\t\tallowance[msg.sender]\n      PUSH 20\t\t\tallowance[msg.sender]\n      ADD \t\t\tallowance[msg.sender]\n      PUSH 0\t\t\tallowance[msg.sender]\n      KECCAK256 \t\t\tallowance[msg.sender]\n      PUSH 0\t\t\tallowance[msg.sender][_spender...\n      DUP6 \t\t\t_spender\n      PUSH FFFFFFFFFFFFFFFFFFFFFFFFFFFFFFFFFFFFFFFF\t\t\tallowance[msg.sender][_spender...\n      AND \t\t\tallowance[msg.sender][_spender...\n      PUSH FFFFFFFFFFFFFFFFFFFFFFFFFFFFFFFFFFFFFFFF\t\t\tallowance[msg.sender][_spender...\n      AND \t\t\tallowance[msg.sender][_spender...\n      DUP2 \t\t\tallowance[msg.sender][_spender...\n      MSTORE \t\t\tallowance[msg.sender][_spender...\n      PUSH 20\t\t\tallowance[msg.sender][_spender...\n      ADD \t\t\tallowance[msg.sender][_spender...\n      SWAP1 \t\t\tallowance[msg.sender][_spender...\n      DUP2 \t\t\tallowance[msg.sender][_spender...\n      MSTORE \t\t\tallowance[msg.sender][_spender...\n      PUSH 20\t\t\tallowance[msg.sender][_spender...\n      ADD \t\t\tallowance[msg.sender][_spender...\n      PUSH 0\t\t\tallowance[msg.sender][_spender...\n      KECCAK256 \t\t\tallowance[msg.sender][_spender...\n      DUP2 \t\t\tallowance[msg.sender][_spender...\n      SWAP1 \t\t\tallowance[msg.sender][_spender...\n      SSTORE \t\t\tallowance[msg.sender][_spender...\n      POP \t\t\tallowance[msg.sender][_spender...\n      DUP3 \t\t\t_spender\n      PUSH FFFFFFFFFFFFFFFFFFFFFFFFFFFFFFFFFFFFFFFF\t\t\tApproval(msg.sender, _spender,...\n      AND \t\t\tApproval(msg.sender, _spender,...\n      CALLER \t\t\tmsg.sender\n      PUSH FFFFFFFFFFFFFFFFFFFFFFFFFFFFFFFFFFFFFFFF\t\t\tApproval(msg.sender, _spender,...\n      AND \t\t\tApproval(msg.sender, _spender,...\n      PUSH 8C5BE1E5EBEC7D5BD14F71427D1E84F3DD0314C0F7B2291E5B200AC8C7C3B925\t\t\tApproval(msg.sender, _spender,...\n      DUP5 \t\t\t_value\n      PUSH 40\t\t\tApproval(msg.sender, _spender,...\n      MLOAD \t\t\tApproval(msg.sender, _spender,...\n      PUSH [tag] 88\t\t\tApproval(msg.sender, _spender,...\n      SWAP2 \t\t\tApproval(msg.sender, _spender,...\n      SWAP1 \t\t\tApproval(msg.sender, _spender,...\n      PUSH [tag] 34\t\t\tApproval(msg.sender, _spender,...\n      JUMP \t\t\tApproval(msg.sender, _spender,...\n    tag 88\t\t\tApproval(msg.sender, _spender,...\n      JUMPDEST \t\t\tApproval(msg.sender, _spender,...\n      PUSH 40\t\t\tApproval(msg.sender, _spender,...\n      MLOAD \t\t\tApproval(msg.sender, _spender,...\n      DUP1 \t\t\tApproval(msg.sender, _spender,...\n      SWAP2 \t\t\tApproval(msg.sender, _spender,...\n      SUB \t\t\tApproval(msg.sender, _spender,...\n      SWAP1 \t\t\tApproval(msg.sender, _spender,...\n      LOG3 \t\t\tApproval(msg.sender, _spender,...\n      PUSH 1\t\t\ttrue\n      SWAP1 \t\t\treturn true\n      POP \t\t\treturn true\n      SWAP3 \t\t\tfunction approve(address _spen...\n      SWAP2 \t\t\tfunction approve(address _spen...\n      POP \t\t\tfunction approve(address _spen...\n      POP \t\t\tfunction approve(address _spen...\n      JUMP \t\t\tfunction approve(address _spen...\n    tag 32\t\t\tuint256 public totalSupply\n      JUMPDEST \t\t\tuint256 public totalSupply\n      PUSH 3\t\t\tuint256 public totalSupply\n      SLOAD \t\t\tuint256 public totalSupply\n      DUP2 \t\t\tuint256 public totalSupply\n      JUMP \t\t\tuint256 public totalSupply\n    tag 38\t\t\tfunction transferFrom(address ...\n      JUMPDEST \t\t\tfunction transferFrom(address ...\n      PUSH 0\t\t\tbool success\n      DUP1 \t\t\t0\n      PUSH FFFFFFFFFFFFFFFFFFFFFFFFFFFFFFFFFFFFFFFF\t\t\t_from != address(0)\n      AND \t\t\t_from != address(0)\n      DUP5 \t\t\t_from\n      PUSH FFFFFFFFFFFFFFFFFFFFFFFFFFFFFFFFFFFFFFFF\t\t\t_from != address(0)\n      AND \t\t\t_from != address(0)\n      EQ \t\t\t_from != address(0)\n      ISZERO \t\t\t_from != address(0)\n      DUP1 \t\t\t_from != address(0) && _to != ...\n      ISZERO \t\t\t_from != address(0) && _to != ...\n      PUSH [tag] 90\t\t\t_from != address(0) && _to != ...\n      JUMPI \t\t\t_from != address(0) && _to != ...\n      POP \t\t\t_from != address(0) && _to != ...\n      PUSH 0\t\t\t0\n      PUSH FFFFFFFFFFFFFFFFFFFFFFFFFFFFFFFFFFFFFFFF\t\t\t_to != address(0)\n      AND \t\t\t_to != address(0)\n      DUP4 \t\t\t_to\n      PUSH FFFFFFFFFFFFFFFFFFFFFFFFFFFFFFFFFFFFFFFF\t\t\t_to != address(0)\n      AND \t\t\t_to != address(0)\n      EQ \t\t\t_to != address(0)\n      ISZERO \t\t\t_to != address(0)\n    tag 90\t\t\t_from != address(0) && _to != ...\n      JUMPDEST \t\t\t_from != address(0) && _to != ...\n      PUSH [tag] 91\t\t\trequire(_from != address(0) &&...\n      JUMPI \t\t\trequire(_from != address(0) &&...\n      PUSH 40\t\t\trequire(_from != address(0) &&...\n      MLOAD \t\t\trequire(_from != address(0) &&...\n      PUSH 8C379A000000000000000000000000000000000000000000000000000000000\t\t\trequire(_from != address(0) &&...\n      DUP2 \t\t\trequire(_from != address(0) &&...\n      MSTORE \t\t\trequire(_from != address(0) &&...\n      PUSH 4\t\t\trequire(_from != address(0) &&...\n      ADD \t\t\trequire(_from != address(0) &&...\n      PUSH [tag] 92\t\t\trequire(_from != address(0) &&...\n      SWAP1 \t\t\trequire(_from != address(0) &&...\n      PUSH [tag] 93\t\t\trequire(_from != address(0) &&...\n      JUMP \t\t\trequire(_from != address(0) &&...\n    tag 92\t\t\trequire(_from != address(0) &&...\n      JUMPDEST \t\t\trequire(_from != address(0) &&...\n      PUSH 40\t\t\trequire(_from != address(0) &&...\n      MLOAD \t\t\trequire(_from != address(0) &&...\n      DUP1 \t\t\trequire(_from != address(0) &&...\n      SWAP2 \t\t\trequire(_from != address(0) &&...\n      SUB \t\t\trequire(_from != address(0) &&...\n      SWAP1 \t\t\trequire(_from != address(0) &&...\n      REVERT \t\t\trequire(_from != address(0) &&...\n    tag 91\t\t\trequire(_from != address(0) &&...\n      JUMPDEST \t\t\trequire(_from != address(0) &&...\n      DUP2 \t\t\t_value\n      PUSH 5\t\t\tbalanceOf\n      PUSH 0\t\t\tbalanceOf[_from]\n      DUP7 \t\t\t_from\n      PUSH FFFFFFFFFFFFFFFFFFFFFFFFFFFFFFFFFFFFFFFF\t\t\tbalanceOf[_from]\n      AND \t\t\tbalanceOf[_from]\n      PUSH FFFFFFFFFFFFFFFFFFFFFFFFFFFFFFFFFFFFFFFF\t\t\tbalanceOf[_from]\n      AND \t\t\tbalanceOf[_from]\n      DUP2 \t\t\tbalanceOf[_from]\n      MSTORE \t\t\tbalanceOf[_from]\n      PUSH 20\t\t\tbalanceOf[_from]\n      ADD \t\t\tbalanceOf[_from]\n      SWAP1 \t\t\tbalanceOf[_from]\n      DUP2 \t\t\tbalanceOf[_from]\n      MSTORE \t\t\tbalanceOf[_from]\n      PUSH 20\t\t\tbalanceOf[_from]\n      ADD \t\t\tbalanceOf[_from]\n      PUSH 0\t\t\tbalanceOf[_from]\n      KECCAK256 \t\t\tbalanceOf[_from]\n      SLOAD \t\t\tbalanceOf[_from]\n      LT \t\t\tbalanceOf[_from] >= _value\n      ISZERO \t\t\tbalanceOf[_from] >= _value\n      PUSH [tag] 94\t\t\trequire(balanceOf[_from] >= _v...\n      JUMPI \t\t\trequire(balanceOf[_from] >= _v...\n      PUSH 40\t\t\trequire(balanceOf[_from] >= _v...\n      MLOAD \t\t\trequire(balanceOf[_from] >= _v...\n      PUSH 8C379A000000000000000000000000000000000000000000000000000000000\t\t\trequire(balanceOf[_from] >= _v...\n      DUP2 \t\t\trequire(balanceOf[_from] >= _v...\n      MSTORE \t\t\trequire(balanceOf[_from] >= _v...\n      PUSH 4\t\t\trequire(balanceOf[_from] >= _v...\n      ADD \t\t\trequire(balanceOf[_from] >= _v...\n      PUSH [tag] 95\t\t\trequire(balanceOf[_from] >= _v...\n      SWAP1 \t\t\trequire(balanceOf[_from] >= _v...\n      PUSH [tag] 96\t\t\trequire(balanceOf[_from] >= _v...\n      JUMP \t\t\trequire(balanceOf[_from] >= _v...\n    tag 95\t\t\trequire(balanceOf[_from] >= _v...\n      JUMPDEST \t\t\trequire(balanceOf[_from] >= _v...\n      PUSH 40\t\t\trequire(balanceOf[_from] >= _v...\n      MLOAD \t\t\trequire(balanceOf[_from] >= _v...\n      DUP1 \t\t\trequire(balanceOf[_from] >= _v...\n      SWAP2 \t\t\trequire(balanceOf[_from] >= _v...\n      SUB \t\t\trequire(balanceOf[_from] >= _v...\n      SWAP1 \t\t\trequire(balanceOf[_from] >= _v...\n      REVERT \t\t\trequire(balanceOf[_from] >= _v...\n    tag 94\t\t\trequire(balanceOf[_from] >= _v...\n      JUMPDEST \t\t\trequire(balanceOf[_from] >= _v...\n      DUP2 \t\t\t_value\n      PUSH 6\t\t\tallowance\n      PUSH 0\t\t\tallowance[_from]\n      DUP7 \t\t\t_from\n      PUSH FFFFFFFFFFFFFFFFFFFFFFFFFFFFFFFFFFFFFFFF\t\t\tallowance[_from]\n      AND \t\t\tallowance[_from]\n      PUSH FFFFFFFFFFFFFFFFFFFFFFFFFFFFFFFFFFFFFFFF\t\t\tallowance[_from]\n      AND \t\t\tallowance[_from]\n      DUP2 \t\t\tallowance[_from]\n      MSTORE \t\t\tallowance[_from]\n      PUSH 20\t\t\tallowance[_from]\n      ADD \t\t\tallowance[_from]\n      SWAP1 \t\t\tallowance[_from]\n      DUP2 \t\t\tallowance[_from]\n      MSTORE \t\t\tallowance[_from]\n      PUSH 20\t\t\tallowance[_from]\n      ADD \t\t\tallowance[_from]\n      PUSH 0\t\t\tallowance[_from]\n      KECCAK256 \t\t\tallowance[_from]\n      PUSH 0\t\t\tallowance[_from][msg.sender]\n      CALLER \t\t\tmsg.sender\n      PUSH FFFFFFFFFFFFFFFFFFFFFFFFFFFFFFFFFFFFFFFF\t\t\tallowance[_from][msg.sender]\n      AND \t\t\tallowance[_from][msg.sender]\n      PUSH FFFFFFFFFFFFFFFFFFFFFFFFFFFFFFFFFFFFFFFF\t\t\tallowance[_from][msg.sender]\n      AND \t\t\tallowance[_from][msg.sender]\n      DUP2 \t\t\tallowance[_from][msg.sender]\n      MSTORE \t\t\tallowance[_from][msg.sender]\n      PUSH 20\t\t\tallowance[_from][msg.sender]\n      ADD \t\t\tallowance[_from][msg.sender]\n      SWAP1 \t\t\tallowance[_from][msg.sender]\n      DUP2 \t\t\tallowance[_from][msg.sender]\n      MSTORE \t\t\tallowance[_from][msg.sender]\n      PUSH 20\t\t\tallowance[_from][msg.sender]\n      ADD \t\t\tallowance[_from][msg.sender]\n      PUSH 0\t\t\tallowance[_from][msg.sender]\n      KECCAK256 \t\t\tallowance[_from][msg.sender]\n      SLOAD \t\t\tallowance[_from][msg.sender]\n      LT \t\t\tallowance[_from][msg.sender] >...\n      ISZERO \t\t\tallowance[_from][msg.sender] >...\n      PUSH [tag] 97\t\t\trequire(allowance[_from][msg.s...\n      JUMPI \t\t\trequire(allowance[_from][msg.s...\n      PUSH 40\t\t\trequire(allowance[_from][msg.s...\n      MLOAD \t\t\trequire(allowance[_from][msg.s...\n      PUSH 8C379A000000000000000000000000000000000000000000000000000000000\t\t\trequire(allowance[_from][msg.s...\n      DUP2 \t\t\trequire(allowance[_from][msg.s...\n      MSTORE \t\t\trequire(allowance[_from][msg.s...\n      PUSH 4\t\t\trequire(allowance[_from][msg.s...\n      ADD \t\t\trequire(allowance[_from][msg.s...\n      PUSH [tag] 98\t\t\trequire(allowance[_from][msg.s...\n      SWAP1 \t\t\trequire(allowance[_from][msg.s...\n      PUSH [tag] 99\t\t\trequire(allowance[_from][msg.s...\n      JUMP \t\t\trequire(allowance[_from][msg.s...\n    tag 98\t\t\trequire(allowance[_from][msg.s...\n      JUMPDEST \t\t\trequire(allowance[_from][msg.s...\n      PUSH 40\t\t\trequire(allowance[_from][msg.s...\n      MLOAD \t\t\trequire(allowance[_from][msg.s...\n      DUP1 \t\t\trequire(allowance[_from][msg.s...\n      SWAP2 \t\t\trequire(allowance[_from][msg.s...\n      SUB \t\t\trequire(allowance[_from][msg.s...\n      SWAP1 \t\t\trequire(allowance[_from][msg.s...\n      REVERT \t\t\trequire(allowance[_from][msg.s...\n    tag 97\t\t\trequire(allowance[_from][msg.s...\n      JUMPDEST \t\t\trequire(allowance[_from][msg.s...\n      DUP2 \t\t\t_value\n      PUSH 5\t\t\tbalanceOf\n      PUSH 0\t\t\tbalanceOf[_from]\n      DUP7 \t\t\t_from\n      PUSH FFFFFFFFFFFFFFFFFFFFFFFFFFFFFFFFFFFFFFFF\t\t\tbalanceOf[_from]\n      AND \t\t\tbalanceOf[_from]\n      PUSH FFFFFFFFFFFFFFFFFFFFFFFFFFFFFFFFFFFFFFFF\t\t\tbalanceOf[_from]\n      AND \t\t\tbalanceOf[_from]\n      DUP2 \t\t\tbalanceOf[_from]\n      MSTORE \t\t\tbalanceOf[_from]\n      PUSH 20\t\t\tbalanceOf[_from]\n      ADD \t\t\tbalanceOf[_from]\n      SWAP1 \t\t\tbalanceOf[_from]\n      DUP2 \t\t\tbalanceOf[_from]\n      MSTORE \t\t\tbalanceOf[_from]\n      PUSH 20\t\t\tbalanceOf[_from]\n      ADD \t\t\tbalanceOf[_from]\n      PUSH 0\t\t\tbalanceOf[_from]\n      KECCAK256 \t\t\tbalanceOf[_from]\n      PUSH 0\t\t\tbalanceOf[_from]\n      DUP3 \t\t\tbalanceOf[_from] -= _value\n      DUP3 \t\t\tbalanceOf[_from] -= _value\n      SLOAD \t\t\tbalanceOf[_from] -= _value\n      PUSH [tag] 100\t\t\tbalanceOf[_from] -= _value\n      SWAP2 \t\t\tbalanceOf[_from] -= _value\n      SWAP1 \t\t\tbalanceOf[_from] -= _value\n      PUSH [tag] 101\t\t\tbalanceOf[_from] -= _value\n      JUMP \t\t\tbalanceOf[_from] -= _value\n    tag 100\t\t\tbalanceOf[_from] -= _value\n      JUMPDEST \t\t\tbalanceOf[_from] -= _value\n      SWAP3 \t\t\tbalanceOf[_from] -= _value\n      POP \t\t\tbalanceOf[_from] -= _value\n      POP \t\t\tbalanceOf[_from] -= _value\n      DUP2 \t\t\tbalanceOf[_from] -= _value\n      SWAP1 \t\t\tbalanceOf[_from] -= _value\n      SSTORE \t\t\tbalanceOf[_from] -= _value\n      POP \t\t\tbalanceOf[_from] -= _value\n      DUP2 \t\t\t_value\n      PUSH 5\t\t\tbalanceOf\n      PUSH 0\t\t\tbalanceOf[_to]\n      DUP6 \t\t\t_to\n      PUSH FFFFFFFFFFFFFFFFFFFFFFFFFFFFFFFFFFFFFFFF\t\t\tbalanceOf[_to]\n      AND \t\t\tbalanceOf[_to]\n      PUSH FFFFFFFFFFFFFFFFFFFFFFFFFFFFFFFFFFFFFFFF\t\t\tbalanceOf[_to]\n      AND \t\t\tbalanceOf[_to]\n      DUP2 \t\t\tbalanceOf[_to]\n      MSTORE \t\t\tbalanceOf[_to]\n      PUSH 20\t\t\tbalanceOf[_to]\n      ADD \t\t\tbalanceOf[_to]\n      SWAP1 \t\t\tbalanceOf[_to]\n      DUP2 \t\t\tbalanceOf[_to]\n      MSTORE \t\t\tbalanceOf[_to]\n      PUSH 20\t\t\tbalanceOf[_to]\n      ADD \t\t\tbalanceOf[_to]\n      PUSH 0\t\t\tbalanceOf[_to]\n      KECCAK256 \t\t\tbalanceOf[_to]\n      PUSH 0\t\t\tbalanceOf[_to]\n      DUP3 \t\t\tbalanceOf[_to] += _value\n      DUP3 \t\t\tbalanceOf[_to] += _value\n      SLOAD \t\t\tbalanceOf[_to] += _value\n      PUSH [tag] 102\t\t\tbalanceOf[_to] += _value\n      SWAP2 \t\t\tbalanceOf[_to] += _value\n      SWAP1 \t\t\tbalanceOf[_to] += _value\n      PUSH [tag] 103\t\t\tbalanceOf[_to] += _value\n      JUMP \t\t\tbalanceOf[_to] += _value\n    tag 102\t\t\tbalanceOf[_to] += _value\n      JUMPDEST \t\t\tbalanceOf[_to] += _value\n      SWAP3 \t\t\tbalanceOf[_to] += _value\n      POP \t\t\tbalanceOf[_to] += _value\n      POP \t\t\tbalanceOf[_to] += _value\n      DUP2 \t\t\tbalanceOf[_to] += _value\n      SWAP1 \t\t\tbalanceOf[_to] += _value\n      SSTORE \t\t\tbalanceOf[_to] += _value\n      POP \t\t\tbalanceOf[_to] += _value\n      DUP2 \t\t\t_value\n      PUSH 6\t\t\tallowance\n      PUSH 0\t\t\tallowance[_from]\n      DUP7 \t\t\t_from\n      PUSH FFFFFFFFFFFFFFFFFFFFFFFFFFFFFFFFFFFFFFFF\t\t\tallowance[_from]\n      AND \t\t\tallowance[_from]\n      PUSH FFFFFFFFFFFFFFFFFFFFFFFFFFFFFFFFFFFFFFFF\t\t\tallowance[_from]\n      AND \t\t\tallowance[_from]\n      DUP2 \t\t\tallowance[_from]\n      MSTORE \t\t\tallowance[_from]\n      PUSH 20\t\t\tallowance[_from]\n      ADD \t\t\tallowance[_from]\n      SWAP1 \t\t\tallowance[_from]\n      DUP2 \t\t\tallowance[_from]\n      MSTORE \t\t\tallowance[_from]\n      PUSH 20\t\t\tallowance[_from]\n      ADD \t\t\tallowance[_from]\n      PUSH 0\t\t\tallowance[_from]\n      KECCAK256 \t\t\tallowance[_from]\n      PUSH 0\t\t\tallowance[_from][msg.sender]\n      CALLER \t\t\tmsg.sender\n      PUSH FFFFFFFFFFFFFFFFFFFFFFFFFFFFFFFFFFFFFFFF\t\t\tallowance[_from][msg.sender]\n      AND \t\t\tallowance[_from][msg.sender]\n      PUSH FFFFFFFFFFFFFFFFFFFFFFFFFFFFFFFFFFFFFFFF\t\t\tallowance[_from][msg.sender]\n      AND \t\t\tallowance[_from][msg.sender]\n      DUP2 \t\t\tallowance[_from][msg.sender]\n      MSTORE \t\t\tallowance[_from][msg.sender]\n      PUSH 20\t\t\tallowance[_from][msg.sender]\n      ADD \t\t\tallowance[_from][msg.sender]\n      SWAP1 \t\t\tallowance[_from][msg.sender]\n      DUP2 \t\t\tallowance[_from][msg.sender]\n      MSTORE \t\t\tallowance[_from][msg.sender]\n      PUSH 20\t\t\tallowance[_from][msg.sender]\n      ADD \t\t\tallowance[_from][msg.sender]\n      PUSH 0\t\t\tallowance[_from][msg.sender]\n      KECCAK256 \t\t\tallowance[_from][msg.sender]\n      PUSH 0\t\t\tallowance[_from][msg.sender]\n      DUP3 \t\t\tallowance[_from][msg.sender] -...\n      DUP3 \t\t\tallowance[_from][msg.sender] -...\n      SLOAD \t\t\tallowance[_from][msg.sender] -...\n      PUSH [tag] 104\t\t\tallowance[_from][msg.sender] -...\n      SWAP2 \t\t\tallowance[_from][msg.sender] -...\n      SWAP1 \t\t\tallowance[_from][msg.sender] -...\n      PUSH [tag] 101\t\t\tallowance[_from][msg.sender] -...\n      JUMP \t\t\tallowance[_from][msg.sender] -...\n    tag 104\t\t\tallowance[_from][msg.sender] -...\n      JUMPDEST \t\t\tallowance[_from][msg.sender] -...\n      SWAP3 \t\t\tallowance[_from][msg.sender] -...\n      POP \t\t\tallowance[_from][msg.sender] -...\n      POP \t\t\tallowance[_from][msg.sender] -...\n      DUP2 \t\t\tallowance[_from][msg.sender] -...\n      SWAP1 \t\t\tallowance[_from][msg.sender] -...\n      SSTORE \t\t\tallowance[_from][msg.sender] -...\n      POP \t\t\tallowance[_from][msg.sender] -...\n      DUP3 \t\t\t_to\n      PUSH FFFFFFFFFFFFFFFFFFFFFFFFFFFFFFFFFFFFFFFF\t\t\tTransfer(_from, _to, _value)\n      AND \t\t\tTransfer(_from, _to, _value)\n      DUP5 \t\t\t_from\n      PUSH FFFFFFFFFFFFFFFFFFFFFFFFFFFFFFFFFFFFFFFF\t\t\tTransfer(_from, _to, _value)\n      AND \t\t\tTransfer(_from, _to, _value)\n      PUSH DDF252AD1BE2C89B69C2B068FC378DAA952BA7F163C4A11628F55A4DF523B3EF\t\t\tTransfer(_from, _to, _value)\n      DUP5 \t\t\t_value\n      PUSH 40\t\t\tTransfer(_from, _to, _value)\n      MLOAD \t\t\tTransfer(_from, _to, _value)\n      PUSH [tag] 105\t\t\tTransfer(_from, _to, _value)\n      SWAP2 \t\t\tTransfer(_from, _to, _value)\n      SWAP1 \t\t\tTransfer(_from, _to, _value)\n      PUSH [tag] 34\t\t\tTransfer(_from, _to, _value)\n      JUMP \t\t\tTransfer(_from, _to, _value)\n    tag 105\t\t\tTransfer(_from, _to, _value)\n      JUMPDEST \t\t\tTransfer(_from, _to, _value)\n      PUSH 40\t\t\tTransfer(_from, _to, _value)\n      MLOAD \t\t\tTransfer(_from, _to, _value)\n      DUP1 \t\t\tTransfer(_from, _to, _value)\n      SWAP2 \t\t\tTransfer(_from, _to, _value)\n      SUB \t\t\tTransfer(_from, _to, _value)\n      SWAP1 \t\t\tTransfer(_from, _to, _value)\n      LOG3 \t\t\tTransfer(_from, _to, _value)\n      PUSH 1\t\t\ttrue\n      SWAP1 \t\t\treturn true\n      POP \t\t\treturn true\n      SWAP4 \t\t\tfunction transferFrom(address ...\n      SWAP3 \t\t\tfunction transferFrom(address ...\n      POP \t\t\tfunction transferFrom(address ...\n      POP \t\t\tfunction transferFrom(address ...\n      POP \t\t\tfunction transferFrom(address ...\n      JUMP \t\t\tfunction transferFrom(address ...\n    tag 41\t\t\tuint8 public decimals = 0\n      JUMPDEST \t\t\tuint8 public decimals = 0\n      PUSH 2\t\t\tuint8 public decimals = 0\n      PUSH 0\t\t\tuint8 public decimals = 0\n      SWAP1 \t\t\tuint8 public decimals = 0\n      SLOAD \t\t\tuint8 public decimals = 0\n      SWAP1 \t\t\tuint8 public decimals = 0\n      PUSH 100\t\t\tuint8 public decimals = 0\n      EXP \t\t\tuint8 public decimals = 0\n      SWAP1 \t\t\tuint8 public decimals = 0\n      DIV \t\t\tuint8 public decimals = 0\n      PUSH FF\t\t\tuint8 public decimals = 0\n      AND \t\t\tuint8 public decimals = 0\n      DUP2 \t\t\tuint8 public decimals = 0\n      JUMP \t\t\tuint8 public decimals = 0\n    tag 45\t\t\tuint256 public constant initia...\n      JUMPDEST \t\t\tuint256 public constant initia...\n      PUSH 2710\t\t\t10000\n      PUSH 9C4\t\t\t2500\n      PUSH 1\t\t\t1\n      PUSH [tag] 106\t\t\tsquareMetersPerToken * hectare...\n      SWAP2 \t\t\tsquareMetersPerToken * hectare...\n      SWAP1 \t\t\tsquareMetersPerToken * hectare...\n      PUSH [tag] 107\t\t\tsquareMetersPerToken * hectare...\n      JUMP \t\t\tsquareMetersPerToken * hectare...\n    tag 106\t\t\tsquareMetersPerToken * hectare...\n      JUMPDEST \t\t\tsquareMetersPerToken * hectare...\n      PUSH [tag] 108\t\t\tsquareMetersPerToken * hectare...\n      SWAP2 \t\t\tsquareMetersPerToken * hectare...\n      SWAP1 \t\t\tsquareMetersPerToken * hectare...\n      PUSH [tag] 107\t\t\tsquareMetersPerToken * hectare...\n      JUMP \t\t\tsquareMetersPerToken * hectare...\n    tag 108\t\t\tsquareMetersPerToken * hectare...\n      JUMPDEST \t\t\tsquareMetersPerToken * hectare...\n      DUP2 \t\t\tuint256 public constant initia...\n      JUMP \t\t\tuint256 public constant initia...\n    tag 50\t\t\tmapping(address => uint256) pu...\n      JUMPDEST \t\t\tmapping(address => uint256) pu...\n      PUSH 5\t\t\tmapping(address => uint256) pu...\n      PUSH 20\t\t\tmapping(address => uint256) pu...\n      MSTORE \t\t\tmapping(address => uint256) pu...\n      DUP1 \t\t\tmapping(address => uint256) pu...\n      PUSH 0\t\t\tmapping(address => uint256) pu...\n      MSTORE \t\t\tmapping(address => uint256) pu...\n      PUSH 40\t\t\tmapping(address => uint256) pu...\n      PUSH 0\t\t\tmapping(address => uint256) pu...\n      KECCAK256 \t\t\tmapping(address => uint256) pu...\n      PUSH 0\t\t\tmapping(address => uint256) pu...\n      SWAP2 \t\t\tmapping(address => uint256) pu...\n      POP \t\t\tmapping(address => uint256) pu...\n      SWAP1 \t\t\tmapping(address => uint256) pu...\n      POP \t\t\tmapping(address => uint256) pu...\n      SLOAD \t\t\tmapping(address => uint256) pu...\n      DUP2 \t\t\tmapping(address => uint256) pu...\n      JUMP \t\t\tmapping(address => uint256) pu...\n    tag 53\t\t\taddress public owner\n      JUMPDEST \t\t\taddress public owner\n      PUSH 4\t\t\taddress public owner\n      PUSH 0\t\t\taddress public owner\n      SWAP1 \t\t\taddress public owner\n      SLOAD \t\t\taddress public owner\n      SWAP1 \t\t\taddress public owner\n      PUSH 100\t\t\taddress public owner\n      EXP \t\t\taddress public owner\n      SWAP1 \t\t\taddress public owner\n      DIV \t\t\taddress public owner\n      PUSH FFFFFFFFFFFFFFFFFFFFFFFFFFFFFFFFFFFFFFFF\t\t\taddress public owner\n      AND \t\t\taddress public owner\n      DUP2 \t\t\taddress public owner\n      JUMP \t\t\taddress public owner\n    tag 57\t\t\tstring public symbol = \"TR\"\n      JUMPDEST \t\t\tstring public symbol = \"TR\"\n      PUSH 1\t\t\tstring public symbol = \"TR\"\n      DUP1 \t\t\tstring public symbol = \"TR\"\n      SLOAD \t\t\tstring public symbol = \"TR\"\n      PUSH [tag] 109\t\t\tstring public symbol = \"TR\"\n      SWAP1 \t\t\tstring public symbol = \"TR\"\n      PUSH [tag] 82\t\t\tstring public symbol = \"TR\"\n      JUMP \t\t\tstring public symbol = \"TR\"\n    tag 109\t\t\tstring public symbol = \"TR\"\n      JUMPDEST \t\t\tstring public symbol = \"TR\"\n      DUP1 \t\t\tstring public symbol = \"TR\"\n      PUSH 1F\t\t\tstring public symbol = \"TR\"\n      ADD \t\t\tstring public symbol = \"TR\"\n      PUSH 20\t\t\tstring public symbol = \"TR\"\n      DUP1 \t\t\tstring public symbol = \"TR\"\n      SWAP2 \t\t\tstring public symbol = \"TR\"\n      DIV \t\t\tstring public symbol = \"TR\"\n      MUL \t\t\tstring public symbol = \"TR\"\n      PUSH 20\t\t\tstring public symbol = \"TR\"\n      ADD \t\t\tstring public symbol = \"TR\"\n      PUSH 40\t\t\tstring public symbol = \"TR\"\n      MLOAD \t\t\tstring public symbol = \"TR\"\n      SWAP1 \t\t\tstring public symbol = \"TR\"\n      DUP2 \t\t\tstring public symbol = \"TR\"\n      ADD \t\t\tstring public symbol = \"TR\"\n      PUSH 40\t\t\tstring public symbol = \"TR\"\n      MSTORE \t\t\tstring public symbol = \"TR\"\n      DUP1 \t\t\tstring public symbol = \"TR\"\n      SWAP3 \t\t\tstring public symbol = \"TR\"\n      SWAP2 \t\t\tstring public symbol = \"TR\"\n      SWAP1 \t\t\tstring public symbol = \"TR\"\n      DUP2 \t\t\tstring public symbol = \"TR\"\n      DUP2 \t\t\tstring public symbol = \"TR\"\n      MSTORE \t\t\tstring public symbol = \"TR\"\n      PUSH 20\t\t\tstring public symbol = \"TR\"\n      ADD \t\t\tstring public symbol = \"TR\"\n      DUP3 \t\t\tstring public symbol = \"TR\"\n      DUP1 \t\t\tstring public symbol = \"TR\"\n      SLOAD \t\t\tstring public symbol = \"TR\"\n      PUSH [tag] 110\t\t\tstring public symbol = \"TR\"\n      SWAP1 \t\t\tstring public symbol = \"TR\"\n      PUSH [tag] 82\t\t\tstring public symbol = \"TR\"\n      JUMP \t\t\tstring public symbol = \"TR\"\n    tag 110\t\t\tstring public symbol = \"TR\"\n      JUMPDEST \t\t\tstring public symbol = \"TR\"\n      DUP1 \t\t\tstring public symbol = \"TR\"\n      ISZERO \t\t\tstring public symbol = \"TR\"\n      PUSH [tag] 111\t\t\tstring public symbol = \"TR\"\n      JUMPI \t\t\tstring public symbol = \"TR\"\n      DUP1 \t\t\tstring public symbol = \"TR\"\n      PUSH 1F\t\t\tstring public symbol = \"TR\"\n      LT \t\t\tstring public symbol = \"TR\"\n      PUSH [tag] 112\t\t\tstring public symbol = \"TR\"\n      JUMPI \t\t\tstring public symbol = \"TR\"\n      PUSH 100\t\t\tstring public symbol = \"TR\"\n      DUP1 \t\t\tstring public symbol = \"TR\"\n      DUP4 \t\t\tstring public symbol = \"TR\"\n      SLOAD \t\t\tstring public symbol = \"TR\"\n      DIV \t\t\tstring public symbol = \"TR\"\n      MUL \t\t\tstring public symbol = \"TR\"\n      DUP4 \t\t\tstring public symbol = \"TR\"\n      MSTORE \t\t\tstring public symbol = \"TR\"\n      SWAP2 \t\t\tstring public symbol = \"TR\"\n      PUSH 20\t\t\tstring public symbol = \"TR\"\n      ADD \t\t\tstring public symbol = \"TR\"\n      SWAP2 \t\t\tstring public symbol = \"TR\"\n      PUSH [tag] 111\t\t\tstring public symbol = \"TR\"\n      JUMP \t\t\tstring public symbol = \"TR\"\n    tag 112\t\t\tstring public symbol = \"TR\"\n      JUMPDEST \t\t\tstring public symbol = \"TR\"\n      DUP3 \t\t\tstring public symbol = \"TR\"\n      ADD \t\t\tstring public symbol = \"TR\"\n      SWAP2 \t\t\tstring public symbol = \"TR\"\n      SWAP1 \t\t\tstring public symbol = \"TR\"\n      PUSH 0\t\t\tstring public symbol = \"TR\"\n      MSTORE \t\t\tstring public symbol = \"TR\"\n      PUSH 20\t\t\tstring public symbol = \"TR\"\n      PUSH 0\t\t\tstring public symbol = \"TR\"\n      KECCAK256 \t\t\tstring public symbol = \"TR\"\n      SWAP1 \t\t\tstring public symbol = \"TR\"\n    tag 113\t\t\tstring public symbol = \"TR\"\n      JUMPDEST \t\t\tstring public symbol = \"TR\"\n      DUP2 \t\t\tstring public symbol = \"TR\"\n      SLOAD \t\t\tstring public symbol = \"TR\"\n      DUP2 \t\t\tstring public symbol = \"TR\"\n      MSTORE \t\t\tstring public symbol = \"TR\"\n      SWAP1 \t\t\tstring public symbol = \"TR\"\n      PUSH 1\t\t\tstring public symbol = \"TR\"\n      ADD \t\t\tstring public symbol = \"TR\"\n      SWAP1 \t\t\tstring public symbol = \"TR\"\n      PUSH 20\t\t\tstring public symbol = \"TR\"\n      ADD \t\t\tstring public symbol = \"TR\"\n      DUP1 \t\t\tstring public symbol = \"TR\"\n      DUP4 \t\t\tstring public symbol = \"TR\"\n      GT \t\t\tstring public symbol = \"TR\"\n      PUSH [tag] 113\t\t\tstring public symbol = \"TR\"\n      JUMPI \t\t\tstring public symbol = \"TR\"\n      DUP3 \t\t\tstring public symbol = \"TR\"\n      SWAP1 \t\t\tstring public symbol = \"TR\"\n      SUB \t\t\tstring public symbol = \"TR\"\n      PUSH 1F\t\t\tstring public symbol = \"TR\"\n      AND \t\t\tstring public symbol = \"TR\"\n      DUP3 \t\t\tstring public symbol = \"TR\"\n      ADD \t\t\tstring public symbol = \"TR\"\n      SWAP2 \t\t\tstring public symbol = \"TR\"\n    tag 111\t\t\tstring public symbol = \"TR\"\n      JUMPDEST \t\t\tstring public symbol = \"TR\"\n      POP \t\t\tstring public symbol = \"TR\"\n      POP \t\t\tstring public symbol = \"TR\"\n      POP \t\t\tstring public symbol = \"TR\"\n      POP \t\t\tstring public symbol = \"TR\"\n      POP \t\t\tstring public symbol = \"TR\"\n      DUP2 \t\t\tstring public symbol = \"TR\"\n      JUMP \t\t\tstring public symbol = \"TR\"\n    tag 62\t\t\tfunction mint(uint256 _amount)...\n      JUMPDEST \t\t\tfunction mint(uint256 _amount)...\n      PUSH 4\t\t\towner\n      PUSH 0\t\t\towner\n      SWAP1 \t\t\towner\n      SLOAD \t\t\towner\n      SWAP1 \t\t\towner\n      PUSH 100\t\t\towner\n      EXP \t\t\towner\n      SWAP1 \t\t\towner\n      DIV \t\t\towner\n      PUSH FFFFFFFFFFFFFFFFFFFFFFFFFFFFFFFFFFFFFFFF\t\t\towner\n      AND \t\t\towner\n      PUSH FFFFFFFFFFFFFFFFFFFFFFFFFFFFFFFFFFFFFFFF\t\t\tmsg.sender == owner\n      AND \t\t\tmsg.sender == owner\n      CALLER \t\t\tmsg.sender\n      PUSH FFFFFFFFFFFFFFFFFFFFFFFFFFFFFFFFFFFFFFFF\t\t\tmsg.sender == owner\n      AND \t\t\tmsg.sender == owner\n      EQ \t\t\tmsg.sender == owner\n      PUSH [tag] 115\t\t\trequire(msg.sender == owner, \"...\n      JUMPI \t\t\trequire(msg.sender == owner, \"...\n      PUSH 40\t\t\trequire(msg.sender == owner, \"...\n      MLOAD \t\t\trequire(msg.sender == owner, \"...\n      PUSH 8C379A000000000000000000000000000000000000000000000000000000000\t\t\trequire(msg.sender == owner, \"...\n      DUP2 \t\t\trequire(msg.sender == owner, \"...\n      MSTORE \t\t\trequire(msg.sender == owner, \"...\n      PUSH 4\t\t\trequire(msg.sender == owner, \"...\n      ADD \t\t\trequire(msg.sender == owner, \"...\n      PUSH [tag] 116\t\t\trequire(msg.sender == owner, \"...\n      SWAP1 \t\t\trequire(msg.sender == owner, \"...\n      PUSH [tag] 117\t\t\trequire(msg.sender == owner, \"...\n      JUMP \t\t\trequire(msg.sender == owner, \"...\n    tag 116\t\t\trequire(msg.sender == owner, \"...\n      JUMPDEST \t\t\trequire(msg.sender == owner, \"...\n      PUSH 40\t\t\trequire(msg.sender == owner, \"...\n      MLOAD \t\t\trequire(msg.sender == owner, \"...\n      DUP1 \t\t\trequire(msg.sender == owner, \"...\n      SWAP2 \t\t\trequire(msg.sender == owner, \"...\n      SUB \t\t\trequire(msg.sender == owner, \"...\n      SWAP1 \t\t\trequire(msg.sender == owner, \"...\n      REVERT \t\t\trequire(msg.sender == owner, \"...\n    tag 115\t\t\trequire(msg.sender == owner, \"...\n      JUMPDEST \t\t\trequire(msg.sender == owner, \"...\n      DUP1 \t\t\t_amount\n      PUSH 3\t\t\ttotalSupply\n      PUSH 0\t\t\ttotalSupply\n      DUP3 \t\t\ttotalSupply += _amount\n      DUP3 \t\t\ttotalSupply += _amount\n      SLOAD \t\t\ttotalSupply += _amount\n      PUSH [tag] 119\t\t\ttotalSupply += _amount\n      SWAP2 \t\t\ttotalSupply += _amount\n      SWAP1 \t\t\ttotalSupply += _amount\n      PUSH [tag] 103\t\t\ttotalSupply += _amount\n      JUMP \t\t\ttotalSupply += _amount\n    tag 119\t\t\ttotalSupply += _amount\n      JUMPDEST \t\t\ttotalSupply += _amount\n      SWAP3 \t\t\ttotalSupply += _amount\n      POP \t\t\ttotalSupply += _amount\n      POP \t\t\ttotalSupply += _amount\n      DUP2 \t\t\ttotalSupply += _amount\n      SWAP1 \t\t\ttotalSupply += _amount\n      SSTORE \t\t\ttotalSupply += _amount\n      POP \t\t\ttotalSupply += _amount\n      DUP1 \t\t\t_amount\n      PUSH 5\t\t\tbalanceOf\n      PUSH 0\t\t\tbalanceOf[owner]\n      PUSH 4\t\t\towner\n      PUSH 0\t\t\towner\n      SWAP1 \t\t\towner\n      SLOAD \t\t\towner\n      SWAP1 \t\t\towner\n      PUSH 100\t\t\towner\n      EXP \t\t\towner\n      SWAP1 \t\t\towner\n      DIV \t\t\towner\n      PUSH FFFFFFFFFFFFFFFFFFFFFFFFFFFFFFFFFFFFFFFF\t\t\towner\n      AND \t\t\towner\n      PUSH FFFFFFFFFFFFFFFFFFFFFFFFFFFFFFFFFFFFFFFF\t\t\tbalanceOf[owner]\n      AND \t\t\tbalanceOf[owner]\n      PUSH FFFFFFFFFFFFFFFFFFFFFFFFFFFFFFFFFFFFFFFF\t\t\tbalanceOf[owner]\n      AND \t\t\tbalanceOf[owner]\n      DUP2 \t\t\tbalanceOf[owner]\n      MSTORE \t\t\tbalanceOf[owner]\n      PUSH 20\t\t\tbalanceOf[owner]\n      ADD \t\t\tbalanceOf[owner]\n      SWAP1 \t\t\tbalanceOf[owner]\n      DUP2 \t\t\tbalanceOf[owner]\n      MSTORE \t\t\tbalanceOf[owner]\n      PUSH 20\t\t\tbalanceOf[owner]\n      ADD \t\t\tbalanceOf[owner]\n      PUSH 0\t\t\tbalanceOf[owner]\n      KECCAK256 \t\t\tbalanceOf[owner]\n      PUSH 0\t\t\tbalanceOf[owner]\n      DUP3 \t\t\tbalanceOf[owner] += _amount\n      DUP3 \t\t\tbalanceOf[owner] += _amount\n      SLOAD \t\t\tbalanceOf[owner] += _amount\n      PUSH [tag] 120\t\t\tbalanceOf[owner] += _amount\n      SWAP2 \t\t\tbalanceOf[owner] += _amount\n      SWAP1 \t\t\tbalanceOf[owner] += _amount\n      PUSH [tag] 103\t\t\tbalanceOf[owner] += _amount\n      JUMP \t\t\tbalanceOf[owner] += _amount\n    tag 120\t\t\tbalanceOf[owner] += _amount\n      JUMPDEST \t\t\tbalanceOf[owner] += _amount\n      SWAP3 \t\t\tbalanceOf[owner] += _amount\n      POP \t\t\tbalanceOf[owner] += _amount\n      POP \t\t\tbalanceOf[owner] += _amount\n      DUP2 \t\t\tbalanceOf[owner] += _amount\n      SWAP1 \t\t\tbalanceOf[owner] += _amount\n      SSTORE \t\t\tbalanceOf[owner] += _amount\n      POP \t\t\tbalanceOf[owner] += _amount\n      PUSH 4\t\t\towner\n      PUSH 0\t\t\towner\n      SWAP1 \t\t\towner\n      SLOAD \t\t\towner\n      SWAP1 \t\t\towner\n      PUSH 100\t\t\towner\n      EXP \t\t\towner\n      SWAP1 \t\t\towner\n      DIV \t\t\towner\n      PUSH FFFFFFFFFFFFFFFFFFFFFFFFFFFFFFFFFFFFFFFF\t\t\towner\n      AND \t\t\towner\n      PUSH FFFFFFFFFFFFFFFFFFFFFFFFFFFFFFFFFFFFFFFF\t\t\tTransfer(address(0), owner, _a...\n      AND \t\t\tTransfer(address(0), owner, _a...\n      PUSH 0\t\t\t0\n      PUSH FFFFFFFFFFFFFFFFFFFFFFFFFFFFFFFFFFFFFFFF\t\t\tTransfer(address(0), owner, _a...\n      AND \t\t\tTransfer(address(0), owner, _a...\n      PUSH DDF252AD1BE2C89B69C2B068FC378DAA952BA7F163C4A11628F55A4DF523B3EF\t\t\tTransfer(address(0), owner, _a...\n      DUP4 \t\t\t_amount\n      PUSH 40\t\t\tTransfer(address(0), owner, _a...\n      MLOAD \t\t\tTransfer(address(0), owner, _a...\n      PUSH [tag] 121\t\t\tTransfer(address(0), owner, _a...\n      SWAP2 \t\t\tTransfer(address(0), owner, _a...\n      SWAP1 \t\t\tTransfer(address(0), owner, _a...\n      PUSH [tag] 34\t\t\tTransfer(address(0), owner, _a...\n      JUMP \t\t\tTransfer(address(0), owner, _a...\n    tag 121\t\t\tTransfer(address(0), owner, _a...\n      JUMPDEST \t\t\tTransfer(address(0), owner, _a...\n      PUSH 40\t\t\tTransfer(address(0), owner, _a...\n      MLOAD \t\t\tTransfer(address(0), owner, _a...\n      DUP1 \t\t\tTransfer(address(0), owner, _a...\n      SWAP2 \t\t\tTransfer(address(0), owner, _a...\n      SUB \t\t\tTransfer(address(0), owner, _a...\n      SWAP1 \t\t\tTransfer(address(0), owner, _a...\n      LOG3 \t\t\tTransfer(address(0), owner, _a...\n      POP \t\t\tfunction mint(uint256 _amount)...\n      JUMP \t\t\tfunction mint(uint256 _amount)...\n    tag 65\t\t\tfunction transfer(address _to,...\n      JUMPDEST \t\t\tfunction transfer(address _to,...\n      PUSH 0\t\t\tbool success\n      DUP1 \t\t\t0\n      PUSH FFFFFFFFFFFFFFFFFFFFFFFFFFFFFFFFFFFFFFFF\t\t\t_to != address(0)\n      AND \t\t\t_to != address(0)\n      DUP4 \t\t\t_to\n      PUSH FFFFFFFFFFFFFFFFFFFFFFFFFFFFFFFFFFFFFFFF\t\t\t_to != address(0)\n      AND \t\t\t_to != address(0)\n      SUB \t\t\t_to != address(0)\n      PUSH [tag] 123\t\t\trequire(_to != address(0), \"In...\n      JUMPI \t\t\trequire(_to != address(0), \"In...\n      PUSH 40\t\t\trequire(_to != address(0), \"In...\n      MLOAD \t\t\trequire(_to != address(0), \"In...\n      PUSH 8C379A000000000000000000000000000000000000000000000000000000000\t\t\trequire(_to != address(0), \"In...\n      DUP2 \t\t\trequire(_to != address(0), \"In...\n      MSTORE \t\t\trequire(_to != address(0), \"In...\n      PUSH 4\t\t\trequire(_to != address(0), \"In...\n      ADD \t\t\trequire(_to != address(0), \"In...\n      PUSH [tag] 124\t\t\trequire(_to != address(0), \"In...\n      SWAP1 \t\t\trequire(_to != address(0), \"In...\n      PUSH [tag] 93\t\t\trequire(_to != address(0), \"In...\n      JUMP \t\t\trequire(_to != address(0), \"In...\n    tag 124\t\t\trequire(_to != address(0), \"In...\n      JUMPDEST \t\t\trequire(_to != address(0), \"In...\n      PUSH 40\t\t\trequire(_to != address(0), \"In...\n      MLOAD \t\t\trequire(_to != address(0), \"In...\n      DUP1 \t\t\trequire(_to != address(0), \"In...\n      SWAP2 \t\t\trequire(_to != address(0), \"In...\n      SUB \t\t\trequire(_to != address(0), \"In...\n      SWAP1 \t\t\trequire(_to != address(0), \"In...\n      REVERT \t\t\trequire(_to != address(0), \"In...\n    tag 123\t\t\trequire(_to != address(0), \"In...\n      JUMPDEST \t\t\trequire(_to != address(0), \"In...\n      DUP2 \t\t\t_value\n      PUSH 5\t\t\tbalanceOf\n      PUSH 0\t\t\tbalanceOf[msg.sender]\n      CALLER \t\t\tmsg.sender\n      PUSH FFFFFFFFFFFFFFFFFFFFFFFFFFFFFFFFFFFFFFFF\t\t\tbalanceOf[msg.sender]\n      AND \t\t\tbalanceOf[msg.sender]\n      PUSH FFFFFFFFFFFFFFFFFFFFFFFFFFFFFFFFFFFFFFFF\t\t\tbalanceOf[msg.sender]\n      AND \t\t\tbalanceOf[msg.sender]\n      DUP2 \t\t\tbalanceOf[msg.sender]\n      MSTORE \t\t\tbalanceOf[msg.sender]\n      PUSH 20\t\t\tbalanceOf[msg.sender]\n      ADD \t\t\tbalanceOf[msg.sender]\n      SWAP1 \t\t\tbalanceOf[msg.sender]\n      DUP2 \t\t\tbalanceOf[msg.sender]\n      MSTORE \t\t\tbalanceOf[msg.sender]\n      PUSH 20\t\t\tbalanceOf[msg.sender]\n      ADD \t\t\tbalanceOf[msg.sender]\n      PUSH 0\t\t\tbalanceOf[msg.sender]\n      KECCAK256 \t\t\tbalanceOf[msg.sender]\n      SLOAD \t\t\tbalanceOf[msg.sender]\n      LT \t\t\tbalanceOf[msg.sender] >= _valu...\n      ISZERO \t\t\tbalanceOf[msg.sender] >= _valu...\n      PUSH [tag] 125\t\t\trequire(balanceOf[msg.sender] ...\n      JUMPI \t\t\trequire(balanceOf[msg.sender] ...\n      PUSH 40\t\t\trequire(balanceOf[msg.sender] ...\n      MLOAD \t\t\trequire(balanceOf[msg.sender] ...\n      PUSH 8C379A000000000000000000000000000000000000000000000000000000000\t\t\trequire(balanceOf[msg.sender] ...\n      DUP2 \t\t\trequire(balanceOf[msg.sender] ...\n      MSTORE \t\t\trequire(balanceOf[msg.sender] ...\n      PUSH 4\t\t\trequire(balanceOf[msg.sender] ...\n      ADD \t\t\trequire(balanceOf[msg.sender] ...\n      PUSH [tag] 126\t\t\trequire(balanceOf[msg.sender] ...\n      SWAP1 \t\t\trequire(balanceOf[msg.sender] ...\n      PUSH [tag] 96\t\t\trequire(balanceOf[msg.sender] ...\n      JUMP \t\t\trequire(balanceOf[msg.sender] ...\n    tag 126\t\t\trequire(balanceOf[msg.sender] ...\n      JUMPDEST \t\t\trequire(balanceOf[msg.sender] ...\n      PUSH 40\t\t\trequire(balanceOf[msg.sender] ...\n      MLOAD \t\t\trequire(balanceOf[msg.sender] ...\n      DUP1 \t\t\trequire(balanceOf[msg.sender] ...\n      SWAP2 \t\t\trequire(balanceOf[msg.sender] ...\n      SUB \t\t\trequire(balanceOf[msg.sender] ...\n      SWAP1 \t\t\trequire(balanceOf[msg.sender] ...\n      REVERT \t\t\trequire(balanceOf[msg.sender] ...\n    tag 125\t\t\trequire(balanceOf[msg.sender] ...\n      JUMPDEST \t\t\trequire(balanceOf[msg.sender] ...\n      DUP2 \t\t\t_value\n      PUSH 5\t\t\tbalanceOf\n      PUSH 0\t\t\tbalanceOf[msg.sender]\n      CALLER \t\t\tmsg.sender\n      PUSH FFFFFFFFFFFFFFFFFFFFFFFFFFFFFFFFFFFFFFFF\t\t\tbalanceOf[msg.sender]\n      AND \t\t\tbalanceOf[msg.sender]\n      PUSH FFFFFFFFFFFFFFFFFFFFFFFFFFFFFFFFFFFFFFFF\t\t\tbalanceOf[msg.sender]\n      AND \t\t\tbalanceOf[msg.sender]\n      DUP2 \t\t\tbalanceOf[msg.sender]\n      MSTORE \t\t\tbalanceOf[msg.sender]\n      PUSH 20\t\t\tbalanceOf[msg.sender]\n      ADD \t\t\tbalanceOf[msg.sender]\n      SWAP1 \t\t\tbalanceOf[msg.sender]\n      DUP2 \t\t\tbalanceOf[msg.sender]\n      MSTORE \t\t\tbalanceOf[msg.sender]\n      PUSH 20\t\t\tbalanceOf[msg.sender]\n      ADD \t\t\tbalanceOf[msg.sender]\n      PUSH 0\t\t\tbalanceOf[msg.sender]\n      KECCAK256 \t\t\tbalanceOf[msg.sender]\n      PUSH 0\t\t\tbalanceOf[msg.sender]\n      DUP3 \t\t\tbalanceOf[msg.sender] -= _valu...\n      DUP3 \t\t\tbalanceOf[msg.sender] -= _valu...\n      SLOAD \t\t\tbalanceOf[msg.sender] -= _valu...\n      PUSH [tag] 127\t\t\tbalanceOf[msg.sender] -= _valu...\n      SWAP2 \t\t\tbalanceOf[msg.sender] -= _valu...\n      SWAP1 \t\t\tbalanceOf[msg.sender] -= _valu...\n      PUSH [tag] 101\t\t\tbalanceOf[msg.sender] -= _valu...\n      JUMP \t\t\tbalanceOf[msg.sender] -= _valu...\n    tag 127\t\t\tbalanceOf[msg.sender] -= _valu...\n      JUMPDEST \t\t\tbalanceOf[msg.sender] -= _valu...\n      SWAP3 \t\t\tbalanceOf[msg.sender] -= _valu...\n      POP \t\t\tbalanceOf[msg.sender] -= _valu...\n      POP \t\t\tbalanceOf[msg.sender] -= _valu...\n      DUP2 \t\t\tbalanceOf[msg.sender] -= _valu...\n      SWAP1 \t\t\tbalanceOf[msg.sender] -= _valu...\n      SSTORE \t\t\tbalanceOf[msg.sender] -= _valu...\n      POP \t\t\tbalanceOf[msg.sender] -= _valu...\n      DUP2 \t\t\t_value\n      PUSH 5\t\t\tbalanceOf\n      PUSH 0\t\t\tbalanceOf[_to]\n      DUP6 \t\t\t_to\n      PUSH FFFFFFFFFFFFFFFFFFFFFFFFFFFFFFFFFFFFFFFF\t\t\tbalanceOf[_to]\n      AND \t\t\tbalanceOf[_to]\n      PUSH FFFFFFFFFFFFFFFFFFFFFFFFFFFFFFFFFFFFFFFF\t\t\tbalanceOf[_to]\n      AND \t\t\tbalanceOf[_to]\n      DUP2 \t\t\tbalanceOf[_to]\n      MSTORE \t\t\tbalanceOf[_to]\n      PUSH 20\t\t\tbalanceOf[_to]\n      ADD \t\t\tbalanceOf[_to]\n      SWAP1 \t\t\tbalanceOf[_to]\n      DUP2 \t\t\tbalanceOf[_to]\n      MSTORE \t\t\tbalanceOf[_to]\n      PUSH 20\t\t\tbalanceOf[_to]\n      ADD \t\t\tbalanceOf[_to]\n      PUSH 0\t\t\tbalanceOf[_to]\n      KECCAK256 \t\t\tbalanceOf[_to]\n      PUSH 0\t\t\tbalanceOf[_to]\n      DUP3 \t\t\tbalanceOf[_to] += _value\n      DUP3 \t\t\tbalanceOf[_to] += _value\n      SLOAD \t\t\tbalanceOf[_to] += _value\n      PUSH [tag] 128\t\t\tbalanceOf[_to] += _value\n      SWAP2 \t\t\tbalanceOf[_to] += _value\n      SWAP1 \t\t\tbalanceOf[_to] += _value\n      PUSH [tag] 103\t\t\tbalanceOf[_to] += _value\n      JUMP \t\t\tbalanceOf[_to] += _value\n    tag 128\t\t\tbalanceOf[_to] += _value\n      JUMPDEST \t\t\tbalanceOf[_to] += _value\n      SWAP3 \t\t\tbalanceOf[_to] += _value\n      POP \t\t\tbalanceOf[_to] += _value\n      POP \t\t\tbalanceOf[_to] += _value\n      DUP2 \t\t\tbalanceOf[_to] += _value\n      SWAP1 \t\t\tbalanceOf[_to] += _value\n      SSTORE \t\t\tbalanceOf[_to] += _value\n      POP \t\t\tbalanceOf[_to] += _value\n      DUP3 \t\t\t_to\n      PUSH FFFFFFFFFFFFFFFFFFFFFFFFFFFFFFFFFFFFFFFF\t\t\tTransfer(msg.sender, _to, _val...\n      AND \t\t\tTransfer(msg.sender, _to, _val...\n      CALLER \t\t\tmsg.sender\n      PUSH FFFFFFFFFFFFFFFFFFFFFFFFFFFFFFFFFFFFFFFF\t\t\tTransfer(msg.sender, _to, _val...\n      AND \t\t\tTransfer(msg.sender, _to, _val...\n      PUSH DDF252AD1BE2C89B69C2B068FC378DAA952BA7F163C4A11628F55A4DF523B3EF\t\t\tTransfer(msg.sender, _to, _val...\n      DUP5 \t\t\t_value\n      PUSH 40\t\t\tTransfer(msg.sender, _to, _val...\n      MLOAD \t\t\tTransfer(msg.sender, _to, _val...\n      PUSH [tag] 129\t\t\tTransfer(msg.sender, _to, _val...\n      SWAP2 \t\t\tTransfer(msg.sender, _to, _val...\n      SWAP1 \t\t\tTransfer(msg.sender, _to, _val...\n      PUSH [tag] 34\t\t\tTransfer(msg.sender, _to, _val...\n      JUMP \t\t\tTransfer(msg.sender, _to, _val...\n    tag 129\t\t\tTransfer(msg.sender, _to, _val...\n      JUMPDEST \t\t\tTransfer(msg.sender, _to, _val...\n      PUSH 40\t\t\tTransfer(msg.sender, _to, _val...\n      MLOAD \t\t\tTransfer(msg.sender, _to, _val...\n      DUP1 \t\t\tTransfer(msg.sender, _to, _val...\n      SWAP2 \t\t\tTransfer(msg.sender, _to, _val...\n      SUB \t\t\tTransfer(msg.sender, _to, _val...\n      SWAP1 \t\t\tTransfer(msg.sender, _to, _val...\n      LOG3 \t\t\tTransfer(msg.sender, _to, _val...\n      PUSH 1\t\t\ttrue\n      SWAP1 \t\t\treturn true\n      POP \t\t\treturn true\n      SWAP3 \t\t\tfunction transfer(address _to,...\n      SWAP2 \t\t\tfunction transfer(address _to,...\n      POP \t\t\tfunction transfer(address _to,...\n      POP \t\t\tfunction transfer(address _to,...\n      JUMP \t\t\tfunction transfer(address _to,...\n    tag 70\t\t\tmapping(address => mapping(add...\n      JUMPDEST \t\t\tmapping(address => mapping(add...\n      PUSH 6\t\t\tmapping(address => mapping(add...\n      PUSH 20\t\t\tmapping(address => mapping(add...\n      MSTORE \t\t\tmapping(address => mapping(add...\n      DUP2 \t\t\tmapping(address => mapping(add...\n      PUSH 0\t\t\tmapping(address => mapping(add...\n      MSTORE \t\t\tmapping(address => mapping(add...\n      PUSH 40\t\t\tmapping(address => mapping(add...\n      PUSH 0\t\t\tmapping(address => mapping(add...\n      KECCAK256 \t\t\tmapping(address => mapping(add...\n      PUSH 20\t\t\tmapping(address => mapping(add...\n      MSTORE \t\t\tmapping(address => mapping(add...\n      DUP1 \t\t\tmapping(address => mapping(add...\n      PUSH 0\t\t\tmapping(address => mapping(add...\n      MSTORE \t\t\tmapping(address => mapping(add...\n      PUSH 40\t\t\tmapping(address => mapping(add...\n      PUSH 0\t\t\tmapping(address => mapping(add...\n      KECCAK256 \t\t\tmapping(address => mapping(add...\n      PUSH 0\t\t\tmapping(address => mapping(add...\n      SWAP2 \t\t\tmapping(address => mapping(add...\n      POP \t\t\tmapping(address => mapping(add...\n      SWAP2 \t\t\tmapping(address => mapping(add...\n      POP \t\t\tmapping(address => mapping(add...\n      POP \t\t\tmapping(address => mapping(add...\n      SLOAD \t\t\tmapping(address => mapping(add...\n      DUP2 \t\t\tmapping(address => mapping(add...\n      JUMP \t\t\tmapping(address => mapping(add...\n    tag 73\t\t\tuint256 public constant hectar...\n      JUMPDEST \t\t\tuint256 public constant hectar...\n      PUSH 9C4\t\t\t2500\n      DUP2 \t\t\tuint256 public constant hectar...\n      JUMP \t\t\tuint256 public constant hectar...\n    tag 77\t\t\tfunction transferOwnership(add...\n      JUMPDEST \t\t\tfunction transferOwnership(add...\n      PUSH 4\t\t\towner\n      PUSH 0\t\t\towner\n      SWAP1 \t\t\towner\n      SLOAD \t\t\towner\n      SWAP1 \t\t\towner\n      PUSH 100\t\t\towner\n      EXP \t\t\towner\n      SWAP1 \t\t\towner\n      DIV \t\t\towner\n      PUSH FFFFFFFFFFFFFFFFFFFFFFFFFFFFFFFFFFFFFFFF\t\t\towner\n      AND \t\t\towner\n      PUSH FFFFFFFFFFFFFFFFFFFFFFFFFFFFFFFFFFFFFFFF\t\t\tmsg.sender == owner\n      AND \t\t\tmsg.sender == owner\n      CALLER \t\t\tmsg.sender\n      PUSH FFFFFFFFFFFFFFFFFFFFFFFFFFFFFFFFFFFFFFFF\t\t\tmsg.sender == owner\n      AND \t\t\tmsg.sender == owner\n      EQ \t\t\tmsg.sender == owner\n      PUSH [tag] 131\t\t\trequire(msg.sender == owner, \"...\n      JUMPI \t\t\trequire(msg.sender == owner, \"...\n      PUSH 40\t\t\trequire(msg.sender == owner, \"...\n      MLOAD \t\t\trequire(msg.sender == owner, \"...\n      PUSH 8C379A000000000000000000000000000000000000000000000000000000000\t\t\trequire(msg.sender == owner, \"...\n      DUP2 \t\t\trequire(msg.sender == owner, \"...\n      MSTORE \t\t\trequire(msg.sender == owner, \"...\n      PUSH 4\t\t\trequire(msg.sender == owner, \"...\n      ADD \t\t\trequire(msg.sender == owner, \"...\n      PUSH [tag] 132\t\t\trequire(msg.sender == owner, \"...\n      SWAP1 \t\t\trequire(msg.sender == owner, \"...\n      PUSH [tag] 117\t\t\trequire(msg.sender == owner, \"...\n      JUMP \t\t\trequire(msg.sender == owner, \"...\n    tag 132\t\t\trequire(msg.sender == owner, \"...\n      JUMPDEST \t\t\trequire(msg.sender == owner, \"...\n      PUSH 40\t\t\trequire(msg.sender == owner, \"...\n      MLOAD \t\t\trequire(msg.sender == owner, \"...\n      DUP1 \t\t\trequire(msg.sender == owner, \"...\n      SWAP2 \t\t\trequire(msg.sender == owner, \"...\n      SUB \t\t\trequire(msg.sender == owner, \"...\n      SWAP1 \t\t\trequire(msg.sender == owner, \"...\n      REVERT \t\t\trequire(msg.sender == owner, \"...\n    tag 131\t\t\trequire(msg.sender == owner, \"...\n      JUMPDEST \t\t\trequire(msg.sender == owner, \"...\n      PUSH 0\t\t\t0\n      PUSH FFFFFFFFFFFFFFFFFFFFFFFFFFFFFFFFFFFFFFFF\t\t\tnewOwner != address(0)\n      AND \t\t\tnewOwner != address(0)\n      DUP2 \t\t\tnewOwner\n      PUSH FFFFFFFFFFFFFFFFFFFFFFFFFFFFFFFFFFFFFFFF\t\t\tnewOwner != address(0)\n      AND \t\t\tnewOwner != address(0)\n      SUB \t\t\tnewOwner != address(0)\n      PUSH [tag] 134\t\t\trequire(newOwner != address(0)...\n      JUMPI \t\t\trequire(newOwner != address(0)...\n      PUSH 40\t\t\trequire(newOwner != address(0)...\n      MLOAD \t\t\trequire(newOwner != address(0)...\n      PUSH 8C379A000000000000000000000000000000000000000000000000000000000\t\t\trequire(newOwner != address(0)...\n      DUP2 \t\t\trequire(newOwner != address(0)...\n      MSTORE \t\t\trequire(newOwner != address(0)...\n      PUSH 4\t\t\trequire(newOwner != address(0)...\n      ADD \t\t\trequire(newOwner != address(0)...\n      PUSH [tag] 135\t\t\trequire(newOwner != address(0)...\n      SWAP1 \t\t\trequire(newOwner != address(0)...\n      PUSH [tag] 136\t\t\trequire(newOwner != address(0)...\n      JUMP \t\t\trequire(newOwner != address(0)...\n    tag 135\t\t\trequire(newOwner != address(0)...\n      JUMPDEST \t\t\trequire(newOwner != address(0)...\n      PUSH 40\t\t\trequire(newOwner != address(0)...\n      MLOAD \t\t\trequire(newOwner != address(0)...\n      DUP1 \t\t\trequire(newOwner != address(0)...\n      SWAP2 \t\t\trequire(newOwner != address(0)...\n      SUB \t\t\trequire(newOwner != address(0)...\n      SWAP1 \t\t\trequire(newOwner != address(0)...\n      REVERT \t\t\trequire(newOwner != address(0)...\n    tag 134\t\t\trequire(newOwner != address(0)...\n      JUMPDEST \t\t\trequire(newOwner != address(0)...\n      DUP1 \t\t\tnewOwner\n      PUSH FFFFFFFFFFFFFFFFFFFFFFFFFFFFFFFFFFFFFFFF\t\t\tOwnershipTransferred(owner, ne...\n      AND \t\t\tOwnershipTransferred(owner, ne...\n      PUSH 4\t\t\towner\n      PUSH 0\t\t\towner\n      SWAP1 \t\t\towner\n      SLOAD \t\t\towner\n      SWAP1 \t\t\towner\n      PUSH 100\t\t\towner\n      EXP \t\t\towner\n      SWAP1 \t\t\towner\n      DIV \t\t\towner\n      PUSH FFFFFFFFFFFFFFFFFFFFFFFFFFFFFFFFFFFFFFFF\t\t\towner\n      AND \t\t\towner\n      PUSH FFFFFFFFFFFFFFFFFFFFFFFFFFFFFFFFFFFFFFFF\t\t\tOwnershipTransferred(owner, ne...\n      AND \t\t\tOwnershipTransferred(owner, ne...\n      PUSH 8BE0079C531659141344CD1FD0A4F28419497F9722A3DAAFE3B4186F6B6457E0\t\t\tOwnershipTransferred(owner, ne...\n      PUSH 40\t\t\tOwnershipTransferred(owner, ne...\n      MLOAD \t\t\tOwnershipTransferred(owner, ne...\n      PUSH 40\t\t\tOwnershipTransferred(owner, ne...\n      MLOAD \t\t\tOwnershipTransferred(owner, ne...\n      DUP1 \t\t\tOwnershipTransferred(owner, ne...\n      SWAP2 \t\t\tOwnershipTransferred(owner, ne...\n      SUB \t\t\tOwnershipTransferred(owner, ne...\n      SWAP1 \t\t\tOwnershipTransferred(owner, ne...\n      LOG3 \t\t\tOwnershipTransferred(owner, ne...\n      DUP1 \t\t\tnewOwner\n      PUSH 4\t\t\towner\n      PUSH 0\t\t\towner\n      PUSH 100\t\t\towner = newOwner\n      EXP \t\t\towner = newOwner\n      DUP2 \t\t\towner = newOwner\n      SLOAD \t\t\towner = newOwner\n      DUP2 \t\t\towner = newOwner\n      PUSH FFFFFFFFFFFFFFFFFFFFFFFFFFFFFFFFFFFFFFFF\t\t\towner = newOwner\n      MUL \t\t\towner = newOwner\n      NOT \t\t\towner = newOwner\n      AND \t\t\towner = newOwner\n      SWAP1 \t\t\towner = newOwner\n      DUP4 \t\t\towner = newOwner\n      PUSH FFFFFFFFFFFFFFFFFFFFFFFFFFFFFFFFFFFFFFFF\t\t\towner = newOwner\n      AND \t\t\towner = newOwner\n      MUL \t\t\towner = newOwner\n      OR \t\t\towner = newOwner\n      SWAP1 \t\t\towner = newOwner\n      SSTORE \t\t\towner = newOwner\n      POP \t\t\towner = newOwner\n      POP \t\t\tfunction transferOwnership(add...\n      JUMP \t\t\tfunction transferOwnership(add...\n    tag 79\t\t\tuint256 public constant square...\n      JUMPDEST \t\t\tuint256 public constant square...\n      PUSH 1\t\t\t1\n      DUP2 \t\t\tuint256 public constant square...\n      JUMP \t\t\tuint256 public constant square...\n    tag 137\t\t\t-License-Identifier: MIT\\nprag...\n      JUMPDEST \t\t\t-License-Identifier: MIT\\nprag...\n      PUSH 0\t\t\tntract\n      DUP2 \t\t\tariab\n      MLOAD \t\t\tblic variabl\n      SWAP1 \t\t\t\\n    // Public variabl\n      POP \t\t\t\\n    // Public variabl\n      SWAP2 \t\t\t-License-Identifier: MIT\\nprag...\n      SWAP1 \t\t\t-License-Identifier: MIT\\nprag...\n      POP \t\t\t-License-Identifier: MIT\\nprag...\n      JUMP \t\t\t-License-Identifier: MIT\\nprag...\n    tag 138\t\t\ten\\n    string public name = \"...\n      JUMPDEST \t\t\ten\\n    string public name = \"...\n      PUSH 0\t\t\t public dec\n      DUP3 \t\t\tpublic\n      DUP3 \t\t\tt25\n      MSTORE \t\t\t    uint256 public \n      PUSH 20\t\t\t  ui\n      DUP3 \t\t\tts\\n\n      ADD \t\t\tstants\\n    uin\n      SWAP1 \t\t\tly;\\n\\n    // Constants\\n    u...\n      POP \t\t\tly;\\n\\n    // Constants\\n    u...\n      SWAP3 \t\t\ten\\n    string public name = \"...\n      SWAP2 \t\t\ten\\n    string public name = \"...\n      POP \t\t\ten\\n    string public name = \"...\n      POP \t\t\ten\\n    string public name = \"...\n      JUMP \t\t\ten\\n    string public name = \"...\n    tag 139\t\t\tconstant squareMetersPerToken ...\n      JUMPDEST \t\t\tconstant squareMetersPerToken ...\n      DUP3 \t\t\tnt256 \n      DUP2 \t\t\t   \n      DUP4 \t\t\tand\n      MCOPY \t\t\tr of land\\n    uint256 p\n      PUSH 0\t\t\t \n      DUP4 \t\t\t 2500;\n      DUP4 \t\t\tres\n      ADD \t\t\tectares = 2500; \n      MSTORE \t\t\tstant hectares = 2500; // 2\n      POP \t\t\tconstant squareMetersPerToken ...\n      POP \t\t\tconstant squareMetersPerToken ...\n      POP \t\t\tconstant squareMetersPerToken ...\n      JUMP \t\t\tconstant squareMetersPerToken ...\n    tag 140\t\t\t\\n    uint256 public constant ...\n      JUMPDEST \t\t\t\\n    uint256 public constant ...\n      PUSH 0\t\t\ty = sq\n      PUSH 1F\t\t\tve\n      NOT \t\t\t Conver\n      PUSH 1F\t\t\t0;\n      DUP4 \t\t\t * 10\n      ADD \t\t\tares * 10000; \n      AND \t\t\thectares * 10000; // Convert\n      SWAP1 \t\t\terToken * hectares * 10000; //...\n      POP \t\t\terToken * hectares * 10000; //...\n      SWAP2 \t\t\t\\n    uint256 public constant ...\n      SWAP1 \t\t\t\\n    uint256 public constant ...\n      POP \t\t\t\\n    uint256 public constant ...\n      JUMP \t\t\t\\n    uint256 public constant ...\n    tag 141\t\t\t to square meters\\n\\n    // Ow...\n      JUMPDEST \t\t\t to square meters\\n\\n    // Ow...\n      PUSH 0\t\t\tppi\n      PUSH [tag] 176\t\t\tapping(address => uint256) pub...\n      DUP3 \t\t\t bala\n      PUSH [tag] 137\t\t\tapping(address => uint256) pub...\n      JUMP \t\t\tapping(address => uint256) pub...\n    tag 176\t\t\tapping(address => uint256) pub...\n      JUMPDEST \t\t\tapping(address => uint256) pub...\n      PUSH [tag] 177\t\t\tping to hold allowances\\n    m...\n      DUP2 \t\t\t> uint\n      DUP6 \t\t\tess\n      PUSH [tag] 138\t\t\tping to hold allowances\\n    m...\n      JUMP \t\t\tping to hold allowances\\n    m...\n    tag 177\t\t\tping to hold allowances\\n    m...\n      JUMPDEST \t\t\tping to hold allowances\\n    m...\n      SWAP4 \t\t\t // Mapping to hold allowances...\n      POP \t\t\t // Mapping to hold allowances...\n      PUSH [tag] 178\t\t\tic allowance;\\n\\n    // Events...\n      DUP2 \t\t\tdexed \n      DUP6 \t\t\tss \n      PUSH 20\t\t\tr(ad\n      DUP7 \t\t\tTrans\n      ADD \t\t\tent Transfer(add\n      PUSH [tag] 139\t\t\tic allowance;\\n\\n    // Events...\n      JUMP \t\t\tic allowance;\\n\\n    // Events...\n    tag 178\t\t\tic allowance;\\n\\n    // Events...\n      JUMPDEST \t\t\tic allowance;\\n\\n    // Events...\n      PUSH [tag] 179\t\t\tuint256 value);\\n    event App\n      DUP2 \t\t\tent Ap\n      PUSH [tag] 140\t\t\tuint256 value);\\n    event App\n      JUMP \t\t\tuint256 value);\\n    event App\n    tag 179\t\t\tuint256 value);\\n    event App\n      JUMPDEST \t\t\tuint256 value);\\n    event App\n      DUP5 \t\t\t to\n      ADD \t\t\texed to, uint256 value);\\n    ...\n      SWAP2 \t\t\tess indexed to, uint256 value)...\n      POP \t\t\tess indexed to, uint256 value)...\n      POP \t\t\tg to hold balances\\n    mappin...\n      SWAP3 \t\t\t to square meters\\n\\n    // Ow...\n      SWAP2 \t\t\t to square meters\\n\\n    // Ow...\n      POP \t\t\t to square meters\\n\\n    // Ow...\n      POP \t\t\t to square meters\\n\\n    // Ow...\n      JUMP \t\t\t to square meters\\n\\n    // Ow...\n    tag 24\t\t\t indexed owner, address indexe...\n      JUMPDEST \t\t\t indexed owner, address indexe...\n      PUSH 0\t\t\twner\n      PUSH 20\t\t\t//\n      DUP3 \t\t\tner);\\n\\n  \n      ADD \t\t\tewOwner);\\n\\n    // \n      SWAP1 \t\t\tndexed newOwner);\\n\\n    // \n      POP \t\t\tndexed newOwner);\\n\\n    // \n      DUP2 \t\t\tupply = i\n      DUP2 \t\t\ttota\n      SUB \t\t\t    totalSupply = in\n      PUSH 0\t\t\t \n      DUP4 \t\t\tructor() \n      ADD \t\t\tonstructor() {\\n  \n      MSTORE \t\t\tr\\n    constructor() {\\n      ...\n      PUSH [tag] 181\t\t\t   balanceOf[msg.sender] = ini...\n      DUP2 \t\t\t    \n      DUP5 \t\t\tnder;\\n\n      PUSH [tag] 141\t\t\t   balanceOf[msg.sender] = ini...\n      JUMP \t\t\t   balanceOf[msg.sender] = ini...\n    tag 181\t\t\t   balanceOf[msg.sender] = ini...\n      JUMPDEST \t\t\t   balanceOf[msg.sender] = ini...\n      SWAP1 \t\t\ty;\\n        balanceOf[msg.send...\n      POP \t\t\ty;\\n        balanceOf[msg.send...\n      SWAP3 \t\t\t indexed owner, address indexe...\n      SWAP2 \t\t\t indexed owner, address indexe...\n      POP \t\t\t indexed owner, address indexe...\n      POP \t\t\t indexed owner, address indexe...\n      JUMP \t\t\t indexed owner, address indexe...\n    tag 143\t\t\taller is the owner\\n    modifi...\n      JUMPDEST \t\t\taller is the owner\\n    modifi...\n      PUSH 0\t\t\ti\n      DUP1 \t\t\t \n      REVERT \t\t\tperform this\n    tag 145\t\t\t{\\n        require(_to != addr...\n      JUMPDEST \t\t\t{\\n        require(_to != addr...\n      PUSH 0\t\t\t\"Invali\n      PUSH FFFFFFFFFFFFFFFFFFFFFFFFFFFFFFFFFFFFFFFF\t\t\tnceOf[msg.sender] >= _value, \"...\n      DUP3 \t\t\tre(ba\n      AND \t\t\tequire(balanceOf[msg.sender] >...\n      SWAP1 \t\t\t;\\n        require(balanceOf[m...\n      POP \t\t\t;\\n        require(balanceOf[m...\n      SWAP2 \t\t\t{\\n        require(_to != addr...\n      SWAP1 \t\t\t{\\n        require(_to != addr...\n      POP \t\t\t{\\n        require(_to != addr...\n      JUMP \t\t\t{\\n        require(_to != addr...\n    tag 146\t\t\t       \\n        balanceOf[msg...\n      JUMPDEST \t\t\t       \\n        balanceOf[msg...\n      PUSH 0\t\t\t -= _va\n      PUSH [tag] 187\t\t\t[_to] += _value;\\n       \n      DUP3 \t\t\t     \n      PUSH [tag] 145\t\t\t[_to] += _value;\\n       \n      JUMP \t\t\t[_to] += _value;\\n       \n    tag 187\t\t\t[_to] += _value;\\n       \n      JUMPDEST \t\t\t[_to] += _value;\\n       \n      SWAP1 \t\t\t  balanceOf[_to] += _value;\\n ...\n      POP \t\t\t  balanceOf[_to] += _value;\\n ...\n      SWAP2 \t\t\t       \\n        balanceOf[msg...\n      SWAP1 \t\t\t       \\n        balanceOf[msg...\n      POP \t\t\t       \\n        balanceOf[msg...\n      JUMP \t\t\t       \\n        balanceOf[msg...\n    tag 147\t\t\tit Transfer(msg.sender, _to, _...\n      JUMPDEST \t\t\tit Transfer(msg.sender, _to, _...\n      PUSH [tag] 189\t\t\tApprove function\\n    fun\n      DUP2 \t\t\t   fu\n      PUSH [tag] 146\t\t\tApprove function\\n    fun\n      JUMP \t\t\tApprove function\\n    fun\n    tag 189\t\t\tApprove function\\n    fun\n      JUMPDEST \t\t\tApprove function\\n    fun\n      DUP2 \t\t\t    /\n      EQ \t\t\t}\\n\\n    // Approve function\\n...\n      PUSH [tag] 190\t\t\ttrue;\\n    }\\n\\n    // Approve...\n      JUMPI \t\t\ttrue;\\n    }\\n\\n    // Approve...\n      PUSH 0\t\t\td\n      DUP1 \t\t\te\n      REVERT \t\t\t approve(add\n    tag 190\t\t\ttrue;\\n    }\\n\\n    // Approve...\n      JUMPDEST \t\t\ttrue;\\n    }\\n\\n    // Approve...\n      POP \t\t\tit Transfer(msg.sender, _to, _...\n      JUMP \t\t\tit Transfer(msg.sender, _to, _...\n    tag 148\t\t\t uint256 _value) public return...\n      JUMPDEST \t\t\t uint256 _value) public return...\n      PUSH 0\t\t\t {\\n  \n      DUP2 \t\t\tder] =\n      CALLDATALOAD \t\t\tsender][_spender] = \n      SWAP1 \t\t\tance[msg.sender][_spender] = \n      POP \t\t\tance[msg.sender][_spender] = \n      PUSH [tag] 192\t\t\t       emit Approval(msg.sende...\n      DUP2 \t\t\tnder,\n      PUSH [tag] 147\t\t\t       emit Approval(msg.sende...\n      JUMP \t\t\t       emit Approval(msg.sende...\n    tag 192\t\t\t       emit Approval(msg.sende...\n      JUMPDEST \t\t\t       emit Approval(msg.sende...\n      SWAP3 \t\t\t uint256 _value) public return...\n      SWAP2 \t\t\t uint256 _value) public return...\n      POP \t\t\t uint256 _value) public return...\n      POP \t\t\t uint256 _value) public return...\n      JUMP \t\t\t uint256 _value) public return...\n    tag 149\t\t\talue);\\n        return true;\\n...\n      JUMPDEST \t\t\talue);\\n        return true;\\n...\n      PUSH 0\t\t\t  // Tr\n      DUP2 \t\t\t   fu\n      SWAP1 \t\t\t function\\n    fu\n      POP \t\t\t function\\n    fu\n      SWAP2 \t\t\talue);\\n        return true;\\n...\n      SWAP1 \t\t\talue);\\n        return true;\\n...\n      POP \t\t\talue);\\n        return true;\\n...\n      JUMP \t\t\talue);\\n        return true;\\n...\n    tag 150\t\t\tferFrom(address _from, address...\n      JUMPDEST \t\t\tferFrom(address _from, address...\n      PUSH [tag] 195\t\t\tsuccess) {\\n        requi\n      DUP2 \t\t\t requ\n      PUSH [tag] 149\t\t\tsuccess) {\\n        requi\n      JUMP \t\t\tsuccess) {\\n        requi\n    tag 195\t\t\tsuccess) {\\n        requi\n      JUMPDEST \t\t\tsuccess) {\\n        requi\n      DUP2 \t\t\t (boo\n      EQ \t\t\trns (bool success) {\\n        ...\n      PUSH [tag] 196\t\t\tublic returns (bool success) {...\n      JUMPI \t\t\tublic returns (bool success) {...\n      PUSH 0\t\t\tr\n      DUP1 \t\t\ta\n      REVERT \t\t\trom != addre\n    tag 196\t\t\tublic returns (bool success) {...\n      JUMPDEST \t\t\tublic returns (bool success) {...\n      POP \t\t\tferFrom(address _from, address...\n      JUMP \t\t\tferFrom(address _from, address...\n    tag 151\t\t\t= address(0), \"Invalid address...\n      JUMPDEST \t\t\t= address(0), \"Invalid address...\n      PUSH 0\t\t\tire(b\n      DUP2 \t\t\tficien\n      CALLDATALOAD \t\t\tvalue, \"Insufficient\n      SWAP1 \t\t\trom] >= _value, \"Insufficient\n      POP \t\t\trom] >= _value, \"Insufficient\n      PUSH [tag] 198\t\t\t);\\n        require(allowance[...\n      DUP2 \t\t\te[_fr\n      PUSH [tag] 150\t\t\t);\\n        require(allowance[...\n      JUMP \t\t\t);\\n        require(allowance[...\n    tag 198\t\t\t);\\n        require(allowance[...\n      JUMPDEST \t\t\t);\\n        require(allowance[...\n      SWAP3 \t\t\t= address(0), \"Invalid address...\n      SWAP2 \t\t\t= address(0), \"Invalid address...\n      POP \t\t\t= address(0), \"Invalid address...\n      POP \t\t\t= address(0), \"Invalid address...\n      JUMP \t\t\t= address(0), \"Invalid address...\n    tag 27\t\t\tr] >= _value, \"Allowance excee...\n      JUMPDEST \t\t\tr] >= _value, \"Allowance excee...\n      PUSH 0\t\t\talue;\\n\n      DUP1 \t\t\t      \n      PUSH 40\t\t\t[_\n      DUP4 \t\t\t   allowa\n      DUP6 \t\t\tue;\\n   \n      SUB \t\t\t_value;\\n        allowan\n      SLT \t\t\t += _value;\\n        allowance...\n      ISZERO \t\t\tto] += _value;\\n        allowa...\n      PUSH [tag] 200\t\t\tto] += _value;\\n        allowa...\n      JUMPI \t\t\tto] += _value;\\n        allowa...\n      PUSH [tag] 201\t\t\t][msg.sender] -= _value;\\n\\n  ...\n      PUSH [tag] 143\t\t\t][msg.sender] -= _value;\\n\\n  ...\n      JUMP \t\t\t][msg.sender] -= _value;\\n\\n  ...\n    tag 201\t\t\t][msg.sender] -= _value;\\n\\n  ...\n      JUMPDEST \t\t\t][msg.sender] -= _value;\\n\\n  ...\n    tag 200\t\t\tto] += _value;\\n        allowa...\n      JUMPDEST \t\t\tto] += _value;\\n        allowa...\n      PUSH 0\t\t\t \n      PUSH [tag] 202\t\t\tamount) public onlyOwner {\\n  ...\n      DUP6 \t\t\ty += _a\n      DUP3 \t\t\totalSu\n      DUP7 \t\t\t{\\n       \n      ADD \t\t\tner {\\n        totalSup\n      PUSH [tag] 148\t\t\tamount) public onlyOwner {\\n  ...\n      JUMP \t\t\tamount) public onlyOwner {\\n  ...\n    tag 202\t\t\tamount) public onlyOwner {\\n  ...\n      JUMPDEST \t\t\tamount) public onlyOwner {\\n  ...\n      SWAP3 \t\t\t(uint256 _amount) public onlyO...\n      POP \t\t\t(uint256 _amount) public onlyO...\n      POP \t\t\t   }\\n\\n    // Mint function\\n...\n      PUSH 20\t\t\t  \n      PUSH [tag] 203\t\t\t, owner, _amount);\\n    }\\n\\n ...\n      DUP6 \t\t\ttransfe\n      DUP3 \t\t\tction \n      DUP7 \t\t\t\\n    // F\n      ADD \t\t\t  }\\n\\n    // Function t\n      PUSH [tag] 151\t\t\t, owner, _amount);\\n    }\\n\\n ...\n      JUMP \t\t\t, owner, _amount);\\n    }\\n\\n ...\n    tag 203\t\t\t, owner, _amount);\\n    }\\n\\n ...\n      JUMPDEST \t\t\t, owner, _amount);\\n    }\\n\\n ...\n      SWAP2 \t\t\taddress(0), owner, _amount);\\n...\n      POP \t\t\taddress(0), owner, _amount);\\n...\n      POP \t\t\teOf[owner] += _amount;\\n      ...\n      SWAP3 \t\t\tr] >= _value, \"Allowance excee...\n      POP \t\t\tr] >= _value, \"Allowance excee...\n      SWAP3 \t\t\tr] >= _value, \"Allowance excee...\n      SWAP1 \t\t\tr] >= _value, \"Allowance excee...\n      POP \t\t\tr] >= _value, \"Allowance excee...\n      JUMP \t\t\tr] >= _value, \"Allowance excee...\n    tag 152\t\t\tress\\n    function transferOwn...\n      JUMPDEST \t\t\tress\\n    function transferOwn...\n      PUSH 0\t\t\tp(addre\n      DUP2 \t\t\t    r\n      ISZERO \t\t\t {\\n        re\n      ISZERO \t\t\tlyOwner {\\n        req\n      SWAP1 \t\t\t) public onlyOwner {\\n        ...\n      POP \t\t\t) public onlyOwner {\\n        ...\n      SWAP2 \t\t\tress\\n    function transferOwn...\n      SWAP1 \t\t\tress\\n    function transferOwn...\n      POP \t\t\tress\\n    function transferOwn...\n      JUMP \t\t\tress\\n    function transferOwn...\n    tag 153\t\t\tr != address(0), \"New owner is...\n      JUMPDEST \t\t\tr != address(0), \"New owner is...\n      PUSH [tag] 206\t\t\tred(owner, newOwner);\n      DUP2 \t\t\twner)\n      PUSH [tag] 152\t\t\tred(owner, newOwner);\n      JUMP \t\t\tred(owner, newOwner);\n    tag 206\t\t\tred(owner, newOwner);\n      JUMPDEST \t\t\tred(owner, newOwner);\n      DUP3 \t\t\tnsf\n      MSTORE \t\t\tshipTransferred(owner, newOwne...\n      POP \t\t\tr != address(0), \"New owner is...\n      POP \t\t\tr != address(0), \"New owner is...\n      JUMP \t\t\tr != address(0), \"New owner is...\n    tag 30\t\t\tr = newOwner;\\n    }\\n}\n      JUMPDEST \t\t\tr = newOwner;\\n    }\\n}\n      PUSH 0\t\t\t\n      PUSH 20\t\t\t\n      DUP3 \t\t\t\n      ADD \t\t\t\n      SWAP1 \t\t\t\n      POP \t\t\t\n      PUSH [tag] 208\t\t\t\n      PUSH 0\t\t\t\n      DUP4 \t\t\t\n      ADD \t\t\t\n      DUP5 \t\t\t\n      PUSH [tag] 153\t\t\t\n      JUMP \t\t\t\n    tag 208\t\t\t\n      JUMPDEST \t\t\t\n      SWAP3 \t\t\tr = newOwner;\\n    }\\n}\n      SWAP2 \t\t\tr = newOwner;\\n    }\\n}\n      POP \t\t\tr = newOwner;\\n    }\\n}\n      POP \t\t\tr = newOwner;\\n    }\\n}\n      JUMP \t\t\tr = newOwner;\\n    }\\n}\n    tag 154\t\t\t\n      JUMPDEST \t\t\t\n      PUSH [tag] 210\t\t\t\n      DUP2 \t\t\t\n      PUSH [tag] 149\t\t\t\n      JUMP \t\t\t\n    tag 210\t\t\t\n      JUMPDEST \t\t\t\n      DUP3 \t\t\t\n      MSTORE \t\t\t\n      POP \t\t\t\n      POP \t\t\t\n      JUMP \t\t\t\n    tag 34\t\t\t\n      JUMPDEST \t\t\t\n      PUSH 0\t\t\t\n      PUSH 20\t\t\t\n      DUP3 \t\t\t\n      ADD \t\t\t\n      SWAP1 \t\t\t\n      POP \t\t\t\n      PUSH [tag] 212\t\t\t\n      PUSH 0\t\t\t\n      DUP4 \t\t\t\n      ADD \t\t\t\n      DUP5 \t\t\t\n      PUSH [tag] 154\t\t\t\n      JUMP \t\t\t\n    tag 212\t\t\t\n      JUMPDEST \t\t\t\n      SWAP3 \t\t\t\n      SWAP2 \t\t\t\n      POP \t\t\t\n      POP \t\t\t\n      JUMP \t\t\t\n    tag 37\t\t\t\n      JUMPDEST \t\t\t\n      PUSH 0\t\t\t\n      DUP1 \t\t\t\n      PUSH 0\t\t\t\n      PUSH 60\t\t\t\n      DUP5 \t\t\t\n      DUP7 \t\t\t\n      SUB \t\t\t\n      SLT \t\t\t\n      ISZERO \t\t\t\n      PUSH [tag] 214\t\t\t\n      JUMPI \t\t\t\n      PUSH [tag] 215\t\t\t\n      PUSH [tag] 143\t\t\t\n      JUMP \t\t\t\n    tag 215\t\t\t\n      JUMPDEST \t\t\t\n    tag 214\t\t\t\n      JUMPDEST \t\t\t\n      PUSH 0\t\t\t\n      PUSH [tag] 216\t\t\t\n      DUP7 \t\t\t\n      DUP3 \t\t\t\n      DUP8 \t\t\t\n      ADD \t\t\t\n      PUSH [tag] 148\t\t\t\n      JUMP \t\t\t\n    tag 216\t\t\t\n      JUMPDEST \t\t\t\n      SWAP4 \t\t\t\n      POP \t\t\t\n      POP \t\t\t\n      PUSH 20\t\t\t\n      PUSH [tag] 217\t\t\t\n      DUP7 \t\t\t\n      DUP3 \t\t\t\n      DUP8 \t\t\t\n      ADD \t\t\t\n      PUSH [tag] 148\t\t\t\n      JUMP \t\t\t\n    tag 217\t\t\t\n      JUMPDEST \t\t\t\n      SWAP3 \t\t\t\n      POP \t\t\t\n      POP \t\t\t\n      PUSH 40\t\t\t\n      PUSH [tag] 218\t\t\t\n      DUP7 \t\t\t\n      DUP3 \t\t\t\n      DUP8 \t\t\t\n      ADD \t\t\t\n      PUSH [tag] 151\t\t\t\n      JUMP \t\t\t\n    tag 218\t\t\t\n      JUMPDEST \t\t\t\n      SWAP2 \t\t\t\n      POP \t\t\t\n      POP \t\t\t\n      SWAP3 \t\t\t\n      POP \t\t\t\n      SWAP3 \t\t\t\n      POP \t\t\t\n      SWAP3 \t\t\t\n      JUMP \t\t\t\n    tag 155\t\t\t\n      JUMPDEST \t\t\t\n      PUSH 0\t\t\t\n      PUSH FF\t\t\t\n      DUP3 \t\t\t\n      AND \t\t\t\n      SWAP1 \t\t\t\n      POP \t\t\t\n      SWAP2 \t\t\t\n      SWAP1 \t\t\t\n      POP \t\t\t\n      JUMP \t\t\t\n    tag 156\t\t\t\n      JUMPDEST \t\t\t\n      PUSH [tag] 221\t\t\t\n      DUP2 \t\t\t\n      PUSH [tag] 155\t\t\t\n      JUMP \t\t\t\n    tag 221\t\t\t\n      JUMPDEST \t\t\t\n      DUP3 \t\t\t\n      MSTORE \t\t\t\n      POP \t\t\t\n      POP \t\t\t\n      JUMP \t\t\t\n    tag 43\t\t\t\n      JUMPDEST \t\t\t\n      PUSH 0\t\t\t\n      PUSH 20\t\t\t\n      DUP3 \t\t\t\n      ADD \t\t\t\n      SWAP1 \t\t\t\n      POP \t\t\t\n      PUSH [tag] 223\t\t\t\n      PUSH 0\t\t\t\n      DUP4 \t\t\t\n      ADD \t\t\t\n      DUP5 \t\t\t\n      PUSH [tag] 156\t\t\t\n      JUMP \t\t\t\n    tag 223\t\t\t\n      JUMPDEST \t\t\t\n      SWAP3 \t\t\t\n      SWAP2 \t\t\t\n      POP \t\t\t\n      POP \t\t\t\n      JUMP \t\t\t\n    tag 49\t\t\t\n      JUMPDEST \t\t\t\n      PUSH 0\t\t\t\n      PUSH 20\t\t\t\n      DUP3 \t\t\t\n      DUP5 \t\t\t\n      SUB \t\t\t\n      SLT \t\t\t\n      ISZERO \t\t\t\n      PUSH [tag] 225\t\t\t\n      JUMPI \t\t\t\n      PUSH [tag] 226\t\t\t\n      PUSH [tag] 143\t\t\t\n      JUMP \t\t\t\n    tag 226\t\t\t\n      JUMPDEST \t\t\t\n    tag 225\t\t\t\n      JUMPDEST \t\t\t\n      PUSH 0\t\t\t\n      PUSH [tag] 227\t\t\t\n      DUP5 \t\t\t\n      DUP3 \t\t\t\n      DUP6 \t\t\t\n      ADD \t\t\t\n      PUSH [tag] 148\t\t\t\n      JUMP \t\t\t\n    tag 227\t\t\t\n      JUMPDEST \t\t\t\n      SWAP2 \t\t\t\n      POP \t\t\t\n      POP \t\t\t\n      SWAP3 \t\t\t\n      SWAP2 \t\t\t\n      POP \t\t\t\n      POP \t\t\t\n      JUMP \t\t\t\n    tag 157\t\t\t\n      JUMPDEST \t\t\t\n      PUSH [tag] 229\t\t\t\n      DUP2 \t\t\t\n      PUSH [tag] 146\t\t\t\n      JUMP \t\t\t\n    tag 229\t\t\t\n      JUMPDEST \t\t\t\n      DUP3 \t\t\t\n      MSTORE \t\t\t\n      POP \t\t\t\n      POP \t\t\t\n      JUMP \t\t\t\n    tag 55\t\t\t\n      JUMPDEST \t\t\t\n      PUSH 0\t\t\t\n      PUSH 20\t\t\t\n      DUP3 \t\t\t\n      ADD \t\t\t\n      SWAP1 \t\t\t\n      POP \t\t\t\n      PUSH [tag] 231\t\t\t\n      PUSH 0\t\t\t\n      DUP4 \t\t\t\n      ADD \t\t\t\n      DUP5 \t\t\t\n      PUSH [tag] 157\t\t\t\n      JUMP \t\t\t\n    tag 231\t\t\t\n      JUMPDEST \t\t\t\n      SWAP3 \t\t\t\n      SWAP2 \t\t\t\n      POP \t\t\t\n      POP \t\t\t\n      JUMP \t\t\t\n    tag 61\t\t\t\n      JUMPDEST \t\t\t\n      PUSH 0\t\t\t\n      PUSH 20\t\t\t\n      DUP3 \t\t\t\n      DUP5 \t\t\t\n      SUB \t\t\t\n      SLT \t\t\t\n      ISZERO \t\t\t\n      PUSH [tag] 233\t\t\t\n      JUMPI \t\t\t\n      PUSH [tag] 234\t\t\t\n      PUSH [tag] 143\t\t\t\n      JUMP \t\t\t\n    tag 234\t\t\t\n      JUMPDEST \t\t\t\n    tag 233\t\t\t\n      JUMPDEST \t\t\t\n      PUSH 0\t\t\t\n      PUSH [tag] 235\t\t\t\n      DUP5 \t\t\t\n      DUP3 \t\t\t\n      DUP6 \t\t\t\n      ADD \t\t\t\n      PUSH [tag] 151\t\t\t\n      JUMP \t\t\t\n    tag 235\t\t\t\n      JUMPDEST \t\t\t\n      SWAP2 \t\t\t\n      POP \t\t\t\n      POP \t\t\t\n      SWAP3 \t\t\t\n      SWAP2 \t\t\t\n      POP \t\t\t\n      POP \t\t\t\n      JUMP \t\t\t\n    tag 69\t\t\t\n      JUMPDEST \t\t\t\n      PUSH 0\t\t\t\n      DUP1 \t\t\t\n      PUSH 40\t\t\t\n      DUP4 \t\t\t\n      DUP6 \t\t\t\n      SUB \t\t\t\n      SLT \t\t\t\n      ISZERO \t\t\t\n      PUSH [tag] 237\t\t\t\n      JUMPI \t\t\t\n      PUSH [tag] 238\t\t\t\n      PUSH [tag] 143\t\t\t\n      JUMP \t\t\t\n    tag 238\t\t\t\n      JUMPDEST \t\t\t\n    tag 237\t\t\t\n      JUMPDEST \t\t\t\n      PUSH 0\t\t\t\n      PUSH [tag] 239\t\t\t\n      DUP6 \t\t\t\n      DUP3 \t\t\t\n      DUP7 \t\t\t\n      ADD \t\t\t\n      PUSH [tag] 148\t\t\t\n      JUMP \t\t\t\n    tag 239\t\t\t\n      JUMPDEST \t\t\t\n      SWAP3 \t\t\t\n      POP \t\t\t\n      POP \t\t\t\n      PUSH 20\t\t\t\n      PUSH [tag] 240\t\t\t\n      DUP6 \t\t\t\n      DUP3 \t\t\t\n      DUP7 \t\t\t\n      ADD \t\t\t\n      PUSH [tag] 148\t\t\t\n      JUMP \t\t\t\n    tag 240\t\t\t\n      JUMPDEST \t\t\t\n      SWAP2 \t\t\t\n      POP \t\t\t\n      POP \t\t\t\n      SWAP3 \t\t\t\n      POP \t\t\t\n      SWAP3 \t\t\t\n      SWAP1 \t\t\t\n      POP \t\t\t\n      JUMP \t\t\t\n    tag 158\t\t\t\n      JUMPDEST \t\t\t\n      PUSH 4E487B7100000000000000000000000000000000000000000000000000000000\t\t\t\n      PUSH 0\t\t\t\n      MSTORE \t\t\t\n      PUSH 22\t\t\t\n      PUSH 4\t\t\t\n      MSTORE \t\t\t\n      PUSH 24\t\t\t\n      PUSH 0\t\t\t\n      REVERT \t\t\t\n    tag 82\t\t\t\n      JUMPDEST \t\t\t\n      PUSH 0\t\t\t\n      PUSH 2\t\t\t\n      DUP3 \t\t\t\n      DIV \t\t\t\n      SWAP1 \t\t\t\n      POP \t\t\t\n      PUSH 1\t\t\t\n      DUP3 \t\t\t\n      AND \t\t\t\n      DUP1 \t\t\t\n      PUSH [tag] 243\t\t\t\n      JUMPI \t\t\t\n      PUSH 7F\t\t\t\n      DUP3 \t\t\t\n      AND \t\t\t\n      SWAP2 \t\t\t\n      POP \t\t\t\n    tag 243\t\t\t\n      JUMPDEST \t\t\t\n      PUSH 20\t\t\t\n      DUP3 \t\t\t\n      LT \t\t\t\n      DUP2 \t\t\t\n      SUB \t\t\t\n      PUSH [tag] 244\t\t\t\n      JUMPI \t\t\t\n      PUSH [tag] 245\t\t\t\n      PUSH [tag] 158\t\t\t\n      JUMP \t\t\t\n    tag 245\t\t\t\n      JUMPDEST \t\t\t\n    tag 244\t\t\t\n      JUMPDEST \t\t\t\n      POP \t\t\t\n      SWAP2 \t\t\t\n      SWAP1 \t\t\t\n      POP \t\t\t\n      JUMP \t\t\t\n    tag 159\t\t\t\n      JUMPDEST \t\t\t\n      PUSH 496E76616C696420616464726573730000000000000000000000000000000000\t\t\t\n      PUSH 0\t\t\t\n      DUP3 \t\t\t\n      ADD \t\t\t\n      MSTORE \t\t\t\n      POP \t\t\t\n      JUMP \t\t\t\n    tag 160\t\t\t\n      JUMPDEST \t\t\t\n      PUSH 0\t\t\t\n      PUSH [tag] 248\t\t\t\n      PUSH F\t\t\t\n      DUP4 \t\t\t\n      PUSH [tag] 138\t\t\t\n      JUMP \t\t\t\n    tag 248\t\t\t\n      JUMPDEST \t\t\t\n      SWAP2 \t\t\t\n      POP \t\t\t\n      PUSH [tag] 249\t\t\t\n      DUP3 \t\t\t\n      PUSH [tag] 159\t\t\t\n      JUMP \t\t\t\n    tag 249\t\t\t\n      JUMPDEST \t\t\t\n      PUSH 20\t\t\t\n      DUP3 \t\t\t\n      ADD \t\t\t\n      SWAP1 \t\t\t\n      POP \t\t\t\n      SWAP2 \t\t\t\n      SWAP1 \t\t\t\n      POP \t\t\t\n      JUMP \t\t\t\n    tag 93\t\t\t\n      JUMPDEST \t\t\t\n      PUSH 0\t\t\t\n      PUSH 20\t\t\t\n      DUP3 \t\t\t\n      ADD \t\t\t\n      SWAP1 \t\t\t\n      POP \t\t\t\n      DUP2 \t\t\t\n      DUP2 \t\t\t\n      SUB \t\t\t\n      PUSH 0\t\t\t\n      DUP4 \t\t\t\n      ADD \t\t\t\n      MSTORE \t\t\t\n      PUSH [tag] 251\t\t\t\n      DUP2 \t\t\t\n      PUSH [tag] 160\t\t\t\n      JUMP \t\t\t\n    tag 251\t\t\t\n      JUMPDEST \t\t\t\n      SWAP1 \t\t\t\n      POP \t\t\t\n      SWAP2 \t\t\t\n      SWAP1 \t\t\t\n      POP \t\t\t\n      JUMP \t\t\t\n    tag 161\t\t\t\n      JUMPDEST \t\t\t\n      PUSH 496E73756666696369656E742062616C616E6365000000000000000000000000\t\t\t\n      PUSH 0\t\t\t\n      DUP3 \t\t\t\n      ADD \t\t\t\n      MSTORE \t\t\t\n      POP \t\t\t\n      JUMP \t\t\t\n    tag 162\t\t\t\n      JUMPDEST \t\t\t\n      PUSH 0\t\t\t\n      PUSH [tag] 254\t\t\t\n      PUSH 14\t\t\t\n      DUP4 \t\t\t\n      PUSH [tag] 138\t\t\t\n      JUMP \t\t\t\n    tag 254\t\t\t\n      JUMPDEST \t\t\t\n      SWAP2 \t\t\t\n      POP \t\t\t\n      PUSH [tag] 255\t\t\t\n      DUP3 \t\t\t\n      PUSH [tag] 161\t\t\t\n      JUMP \t\t\t\n    tag 255\t\t\t\n      JUMPDEST \t\t\t\n      PUSH 20\t\t\t\n      DUP3 \t\t\t\n      ADD \t\t\t\n      SWAP1 \t\t\t\n      POP \t\t\t\n      SWAP2 \t\t\t\n      SWAP1 \t\t\t\n      POP \t\t\t\n      JUMP \t\t\t\n    tag 96\t\t\t\n      JUMPDEST \t\t\t\n      PUSH 0\t\t\t\n      PUSH 20\t\t\t\n      DUP3 \t\t\t\n      ADD \t\t\t\n      SWAP1 \t\t\t\n      POP \t\t\t\n      DUP2 \t\t\t\n      DUP2 \t\t\t\n      SUB \t\t\t\n      PUSH 0\t\t\t\n      DUP4 \t\t\t\n      ADD \t\t\t\n      MSTORE \t\t\t\n      PUSH [tag] 257\t\t\t\n      DUP2 \t\t\t\n      PUSH [tag] 162\t\t\t\n      JUMP \t\t\t\n    tag 257\t\t\t\n      JUMPDEST \t\t\t\n      SWAP1 \t\t\t\n      POP \t\t\t\n      SWAP2 \t\t\t\n      SWAP1 \t\t\t\n      POP \t\t\t\n      JUMP \t\t\t\n    tag 163\t\t\t\n      JUMPDEST \t\t\t\n      PUSH 416C6C6F77616E63652065786365656465640000000000000000000000000000\t\t\t\n      PUSH 0\t\t\t\n      DUP3 \t\t\t\n      ADD \t\t\t\n      MSTORE \t\t\t\n      POP \t\t\t\n      JUMP \t\t\t\n    tag 164\t\t\t\n      JUMPDEST \t\t\t\n      PUSH 0\t\t\t\n      PUSH [tag] 260\t\t\t\n      PUSH 12\t\t\t\n      DUP4 \t\t\t\n      PUSH [tag] 138\t\t\t\n      JUMP \t\t\t\n    tag 260\t\t\t\n      JUMPDEST \t\t\t\n      SWAP2 \t\t\t\n      POP \t\t\t\n      PUSH [tag] 261\t\t\t\n      DUP3 \t\t\t\n      PUSH [tag] 163\t\t\t\n      JUMP \t\t\t\n    tag 261\t\t\t\n      JUMPDEST \t\t\t\n      PUSH 20\t\t\t\n      DUP3 \t\t\t\n      ADD \t\t\t\n      SWAP1 \t\t\t\n      POP \t\t\t\n      SWAP2 \t\t\t\n      SWAP1 \t\t\t\n      POP \t\t\t\n      JUMP \t\t\t\n    tag 99\t\t\t\n      JUMPDEST \t\t\t\n      PUSH 0\t\t\t\n      PUSH 20\t\t\t\n      DUP3 \t\t\t\n      ADD \t\t\t\n      SWAP1 \t\t\t\n      POP \t\t\t\n      DUP2 \t\t\t\n      DUP2 \t\t\t\n      SUB \t\t\t\n      PUSH 0\t\t\t\n      DUP4 \t\t\t\n      ADD \t\t\t\n      MSTORE \t\t\t\n      PUSH [tag] 263\t\t\t\n      DUP2 \t\t\t\n      PUSH [tag] 164\t\t\t\n      JUMP \t\t\t\n    tag 263\t\t\t\n      JUMPDEST \t\t\t\n      SWAP1 \t\t\t\n      POP \t\t\t\n      SWAP2 \t\t\t\n      SWAP1 \t\t\t\n      POP \t\t\t\n      JUMP \t\t\t\n    tag 165\t\t\t\n      JUMPDEST \t\t\t\n      PUSH 4E487B7100000000000000000000000000000000000000000000000000000000\t\t\t\n      PUSH 0\t\t\t\n      MSTORE \t\t\t\n      PUSH 11\t\t\t\n      PUSH 4\t\t\t\n      MSTORE \t\t\t\n      PUSH 24\t\t\t\n      PUSH 0\t\t\t\n      REVERT \t\t\t\n    tag 101\t\t\t\n      JUMPDEST \t\t\t\n      PUSH 0\t\t\t\n      PUSH [tag] 266\t\t\t\n      DUP3 \t\t\t\n      PUSH [tag] 149\t\t\t\n      JUMP \t\t\t\n    tag 266\t\t\t\n      JUMPDEST \t\t\t\n      SWAP2 \t\t\t\n      POP \t\t\t\n      PUSH [tag] 267\t\t\t\n      DUP4 \t\t\t\n      PUSH [tag] 149\t\t\t\n      JUMP \t\t\t\n    tag 267\t\t\t\n      JUMPDEST \t\t\t\n      SWAP3 \t\t\t\n      POP \t\t\t\n      DUP3 \t\t\t\n      DUP3 \t\t\t\n      SUB \t\t\t\n      SWAP1 \t\t\t\n      POP \t\t\t\n      DUP2 \t\t\t\n      DUP2 \t\t\t\n      GT \t\t\t\n      ISZERO \t\t\t\n      PUSH [tag] 268\t\t\t\n      JUMPI \t\t\t\n      PUSH [tag] 269\t\t\t\n      PUSH [tag] 165\t\t\t\n      JUMP \t\t\t\n    tag 269\t\t\t\n      JUMPDEST \t\t\t\n    tag 268\t\t\t\n      JUMPDEST \t\t\t\n      SWAP3 \t\t\t\n      SWAP2 \t\t\t\n      POP \t\t\t\n      POP \t\t\t\n      JUMP \t\t\t\n    tag 103\t\t\t\n      JUMPDEST \t\t\t\n      PUSH 0\t\t\t\n      PUSH [tag] 271\t\t\t\n      DUP3 \t\t\t\n      PUSH [tag] 149\t\t\t\n      JUMP \t\t\t\n    tag 271\t\t\t\n      JUMPDEST \t\t\t\n      SWAP2 \t\t\t\n      POP \t\t\t\n      PUSH [tag] 272\t\t\t\n      DUP4 \t\t\t\n      PUSH [tag] 149\t\t\t\n      JUMP \t\t\t\n    tag 272\t\t\t\n      JUMPDEST \t\t\t\n      SWAP3 \t\t\t\n      POP \t\t\t\n      DUP3 \t\t\t\n      DUP3 \t\t\t\n      ADD \t\t\t\n      SWAP1 \t\t\t\n      POP \t\t\t\n      DUP1 \t\t\t\n      DUP3 \t\t\t\n      GT \t\t\t\n      ISZERO \t\t\t\n      PUSH [tag] 273\t\t\t\n      JUMPI \t\t\t\n      PUSH [tag] 274\t\t\t\n      PUSH [tag] 165\t\t\t\n      JUMP \t\t\t\n    tag 274\t\t\t\n      JUMPDEST \t\t\t\n    tag 273\t\t\t\n      JUMPDEST \t\t\t\n      SWAP3 \t\t\t\n      SWAP2 \t\t\t\n      POP \t\t\t\n      POP \t\t\t\n      JUMP \t\t\t\n    tag 107\t\t\t\n      JUMPDEST \t\t\t\n      PUSH 0\t\t\t\n      PUSH [tag] 276\t\t\t\n      DUP3 \t\t\t\n      PUSH [tag] 149\t\t\t\n      JUMP \t\t\t\n    tag 276\t\t\t\n      JUMPDEST \t\t\t\n      SWAP2 \t\t\t\n      POP \t\t\t\n      PUSH [tag] 277\t\t\t\n      DUP4 \t\t\t\n      PUSH [tag] 149\t\t\t\n      JUMP \t\t\t\n    tag 277\t\t\t\n      JUMPDEST \t\t\t\n      SWAP3 \t\t\t\n      POP \t\t\t\n      DUP3 \t\t\t\n      DUP3 \t\t\t\n      MUL \t\t\t\n      PUSH [tag] 278\t\t\t\n      DUP2 \t\t\t\n      PUSH [tag] 149\t\t\t\n      JUMP \t\t\t\n    tag 278\t\t\t\n      JUMPDEST \t\t\t\n      SWAP2 \t\t\t\n      POP \t\t\t\n      DUP3 \t\t\t\n      DUP3 \t\t\t\n      DIV \t\t\t\n      DUP5 \t\t\t\n      EQ \t\t\t\n      DUP4 \t\t\t\n      ISZERO \t\t\t\n      OR \t\t\t\n      PUSH [tag] 279\t\t\t\n      JUMPI \t\t\t\n      PUSH [tag] 280\t\t\t\n      PUSH [tag] 165\t\t\t\n      JUMP \t\t\t\n    tag 280\t\t\t\n      JUMPDEST \t\t\t\n    tag 279\t\t\t\n      JUMPDEST \t\t\t\n      POP \t\t\t\n      SWAP3 \t\t\t\n      SWAP2 \t\t\t\n      POP \t\t\t\n      POP \t\t\t\n      JUMP \t\t\t\n    tag 166\t\t\t\n      JUMPDEST \t\t\t\n      PUSH 4F6E6C79206F776E65722063616E20706572666F726D20746869732061637469\t\t\t\n      PUSH 0\t\t\t\n      DUP3 \t\t\t\n      ADD \t\t\t\n      MSTORE \t\t\t\n      PUSH 6F6E000000000000000000000000000000000000000000000000000000000000\t\t\t\n      PUSH 20\t\t\t\n      DUP3 \t\t\t\n      ADD \t\t\t\n      MSTORE \t\t\t\n      POP \t\t\t\n      JUMP \t\t\t\n    tag 167\t\t\t\n      JUMPDEST \t\t\t\n      PUSH 0\t\t\t\n      PUSH [tag] 283\t\t\t\n      PUSH 22\t\t\t\n      DUP4 \t\t\t\n      PUSH [tag] 138\t\t\t\n      JUMP \t\t\t\n    tag 283\t\t\t\n      JUMPDEST \t\t\t\n      SWAP2 \t\t\t\n      POP \t\t\t\n      PUSH [tag] 284\t\t\t\n      DUP3 \t\t\t\n      PUSH [tag] 166\t\t\t\n      JUMP \t\t\t\n    tag 284\t\t\t\n      JUMPDEST \t\t\t\n      PUSH 40\t\t\t\n      DUP3 \t\t\t\n      ADD \t\t\t\n      SWAP1 \t\t\t\n      POP \t\t\t\n      SWAP2 \t\t\t\n      SWAP1 \t\t\t\n      POP \t\t\t\n      JUMP \t\t\t\n    tag 117\t\t\t\n      JUMPDEST \t\t\t\n      PUSH 0\t\t\t\n      PUSH 20\t\t\t\n      DUP3 \t\t\t\n      ADD \t\t\t\n      SWAP1 \t\t\t\n      POP \t\t\t\n      DUP2 \t\t\t\n      DUP2 \t\t\t\n      SUB \t\t\t\n      PUSH 0\t\t\t\n      DUP4 \t\t\t\n      ADD \t\t\t\n      MSTORE \t\t\t\n      PUSH [tag] 286\t\t\t\n      DUP2 \t\t\t\n      PUSH [tag] 167\t\t\t\n      JUMP \t\t\t\n    tag 286\t\t\t\n      JUMPDEST \t\t\t\n      SWAP1 \t\t\t\n      POP \t\t\t\n      SWAP2 \t\t\t\n      SWAP1 \t\t\t\n      POP \t\t\t\n      JUMP \t\t\t\n    tag 168\t\t\t\n      JUMPDEST \t\t\t\n      PUSH 4E6577206F776E657220697320746865207A65726F2061646472657373000000\t\t\t\n      PUSH 0\t\t\t\n      DUP3 \t\t\t\n      ADD \t\t\t\n      MSTORE \t\t\t\n      POP \t\t\t\n      JUMP \t\t\t\n    tag 169\t\t\t\n      JUMPDEST \t\t\t\n      PUSH 0\t\t\t\n      PUSH [tag] 289\t\t\t\n      PUSH 1D\t\t\t\n      DUP4 \t\t\t\n      PUSH [tag] 138\t\t\t\n      JUMP \t\t\t\n    tag 289\t\t\t\n      JUMPDEST \t\t\t\n      SWAP2 \t\t\t\n      POP \t\t\t\n      PUSH [tag] 290\t\t\t\n      DUP3 \t\t\t\n      PUSH [tag] 168\t\t\t\n      JUMP \t\t\t\n    tag 290\t\t\t\n      JUMPDEST \t\t\t\n      PUSH 20\t\t\t\n      DUP3 \t\t\t\n      ADD \t\t\t\n      SWAP1 \t\t\t\n      POP \t\t\t\n      SWAP2 \t\t\t\n      SWAP1 \t\t\t\n      POP \t\t\t\n      JUMP \t\t\t\n    tag 136\t\t\t\n      JUMPDEST \t\t\t\n      PUSH 0\t\t\t\n      PUSH 20\t\t\t\n      DUP3 \t\t\t\n      ADD \t\t\t\n      SWAP1 \t\t\t\n      POP \t\t\t\n      DUP2 \t\t\t\n      DUP2 \t\t\t\n      SUB \t\t\t\n      PUSH 0\t\t\t\n      DUP4 \t\t\t\n      ADD \t\t\t\n      MSTORE \t\t\t\n      PUSH [tag] 292\t\t\t\n      DUP2 \t\t\t\n      PUSH [tag] 169\t\t\t\n      JUMP \t\t\t\n    tag 292\t\t\t\n      JUMPDEST \t\t\t\n      SWAP1 \t\t\t\n      POP \t\t\t\n      SWAP2 \t\t\t\n      SWAP1 \t\t\t\n      POP \t\t\t\n      JUMP \t\t\t\n    .data\n"
}